:10000000E5C0000004C1000002C1000000C1000002
:10001000FEC00000FCC00000FAC00000F8C00000F4
:10002000F6C00000F4C00000F2C00000F0C0000004
:10003000DDC30000ECC00000EAC00000E8C0000022
:10004000E6C00000E4C00000E2C00000E0C0000024
:10005000DEC00000DCC00000DAC00000D8C0000034
:10006000D6C000000C94431F0C94951FD0C0000014
:10007000CEC00000CCC00000CAC00000C8C0000054
:10008000C6C00000C4C00000C2C00000C0C0000064
:100090000C94D91F0C942B20BAC000000C9401239F
:1000A000B6C00000B4C00000B2C00000B0C0000084
:1000B000AEC00000ACC00000AAC00000A8C0000094
:1000C000A6C00000A4C00000A2C000000C946F20D5
:1000D0000C94C1209CC000000C9405210C94572165
:1000E00096C00000FA16FA16FA16311739174E178D
:1000F000FA16FA16311739172323932393239323E0
:1001000093239323932393232323932393239323AF
:10011000932393239323932325239323932393239D
:10012000932393239323932393239323932393231F
:10013000932393239323932325239323932393237D
:1001400093239323932393239323932393239323FF
:1001500093239323932393238F23932393239323F3
:1001600093239323932393235A2393239323932318
:1001700093239323932393239323932393239323CF
:1001800093239323932393234E2393239323932304
:10019000932393239323932372230E944A0B8091EA
:1001A000AF14823008F05CD20E947717F6CFCF935D
:1001B000DF931F92CDB7DEB7CE0101960E94771470
:1001C00049810E946C160E94C316F6CF11241FBEEF
:1001D000CFEFD1E2DEBFCDBF00E00CBF16E0A0E064
:1001E000B2E0E6E4F4E500E00BBF02C007900D9238
:1001F000A23AB107D9F726E1A2EAB6E001C01D9202
:10020000A73EB207E1F70E941A180C94212AF8CEF3
:100210000895EEEAF6E0A2EBB6E0B183A083138284
:100220001282EAE5F4E1F093AD06E093AC061382A6
:1002300012821182108288EA9DE013969C938E931D
:100240001297ED93FC939093A9068093A806909340
:10025000AB068093AA0680E090E89093A306809373
:10026000A2060895CF93DF93EC01AEEAB6E001C099
:10027000DF01ED91FC911197EC17FD07C8F3129681
:100280008D919C9113979D01280F391FC217D30799
:1002900049F42A813B81820F931F13969C938E937E
:1002A0001297ED018A819B819E01280F391FE21769
:1002B000F307C1F42091AC063091AD06E217F307C5
:1002C00071F022813381820F931F9B838A83ED918A
:1002D000FC911197808191819983888305C039832E
:1002E000288302C0F983E883CA17DB0711F0CD9396
:1002F000DC93DF91CF910895EF92FF920F931F93BC
:10030000CF93DF938C010E94950C8091AC06909165
:10031000AD06892B09F47DDF8091A2069091A3069A
:1003200080239123892B09F076C00115110549F02E
:10033000C80104960817190718F000E010E001C082
:100340008C010115110509F469C08091AA069091EC
:10035000AB068017910708F464C0C091AE06D09137
:10036000AF06EEEAF6E002C0FE01EC018A819B8155
:100370008017910720F4888199810097A9F78091CF
:10038000AC069091AD06C817D90709F44DC0E080BE
:10039000F18084E0E80EF11C88819981918380834B
:1003A0002A813B81201B310B2930310548F0CE01D9
:1003B000800F911FFC01338322831B830A8352DF4A
:1003C0002A813B818091AA069091AB06821B930BF8
:1003D0009093AB068093AA064091A8065091A90677
:1003E0008417950720F49093A9068093A80680911E
:1003F000A2069091A306282B392B3B832A831982CE
:1004000018828091A6069091A70601969093A70660
:100410008093A6060BC0E12CF12C08C0E12CF12C36
:1004200005C0E12CF12C02C0E12CF12C0E94D50D6D
:10043000E114F10411F40E948317C701DF91CF91F9
:100440001F910F91FF90EF9008950F931F93CF93FB
:10045000DF93009791F1EC0124974A815B81209111
:10046000A2063091A306BA0162237323672B29F1F8
:1004700068817981672B09F52095309524233523F0
:100480003B832A830E94950C8A819B812091AA0636
:100490003091AB06820F931F9093AB068093AA0610
:1004A000CE01E0DE8091A4069091A506019690937E
:1004B000A5068093A4060E94D50DDF91CF911F91D0
:1004C0000F910895FC010396928381834FEF5FEFB4
:1004D000BA014383548365837683908787839287A9
:1004E000818710820895FC011386128608950F9368
:1004F0001F93CF93DF93EB01088119812A813B8100
:100500000F3F4FEF14072407340721F4FC01A185A6
:10051000B28511C0DC01139601C0DF011496ED9184
:10052000FC911597408151816281738104171507F1
:100530002607370790F71496ED91FC911597FD83E8
:10054000EC83D783C683BF83AE831596DC93CE93AB
:1005500014979B878A87FC0120812F5F2083DF917E
:10056000CF911F910F910895CF93DF93FC01A28546
:10057000B385C481D581868197819F838E83C6810F
:10058000D781848195819D838C8311968D919C91D7
:100590001297E817F90731F48681978112969C9398
:1005A0008E931197138612868C9181508C938C9127
:1005B000DF91CF910895A89590EC88E10FB6F8945B
:1005C000A895809360000FBE909360000895FC0191
:1005D0006083319770833197108231971082319701
:1005E00020E8208331971082319710823197108252
:1005F000779740833197508386970895DCDFA091E9
:100600001D15B0911E15CD91CDBFDD91DEBFFF91BF
:10061000EF91DF91CF91BF91AF919F918F917F919A
:100620006F915F914F913F912F911F910F91FF908B
:10063000EF90DF90CF90BF90AF909F908F907F9082
:100640006F905F904F903F902F901F900F900CBE37
:100650000F900BBE0F900FBE0F90089581E008958C
:100660000F920FB6F8940F920BB60F920CB60F9232
:100670001F9211242F923F924F925F926F927F921E
:100680008F929F92AF92BF92CF92DF92EF92FF92A2
:100690000F931F932F933F934F935F936F937F938A
:1006A0008F939F93AF93BF93CF93DF93EF93FF937A
:1006B000A0911D15B0911E150DB60D920EB60D929E
:1006C0000E94310FA0911D15B0911E15CD91CDBF87
:1006D000DD91DEBFFF91EF91DF91CF91BF91AF919F
:1006E0009F918F917F916F915F914F913F912F914A
:1006F0001F910F91FF90EF90DF90CF90BF90AF9040
:100700009F908F907F906F905F904F903F902F9031
:100710001F900F900CBE0F900BBE0F900FBE0F904E
:1007200008950F920FB6F8940F920BB60F920CB675
:100730000F921F9211242F923F924F925F926F92CD
:100740007F928F929F92AF92BF92CF92DF92EF9261
:10075000FF920F931F932F933F934F935F936F934A
:100760007F938F939F93AF93BF93CF93DF93EF9339
:10077000FF93A0911D15B0911E150DB60D920EB6EA
:100780000D9213BE0E94A90C81110E94310FA091FD
:100790001D15B0911E15CD91CDBFDD91DEBFFF912E
:1007A000EF91DF91CF91BF91AF919F918F917F9109
:1007B0006F915F914F913F912F911F910F91FF90FA
:1007C000EF90DF90CF90BF90AF909F908F907F90F1
:1007D0006F905F904F903F902F901F900F900CBEA6
:1007E0000F900BBE0F900FBE0F9008959ADF1895D3
:1007F0000FB6F8940F92FC01868D811102C081E042
:1008000001C080E00F900FBE08950FB6F8940F92CC
:10081000FC01268D878D281302C081E001C080E095
:100820000F900FBE08950F931F93CF93DF93EC01AA
:10083000042F1E8D48A141110CC088819981892BFC
:1008400009F042C08C819D810E9442111D821C8250
:1008500042C0011117C050E08A819B810E94A426EA
:1008600028A18A819B81820F911D9B838A832C8181
:100870003D818217930750F1888199819B838A83F8
:1008800080E029C050E08E819F810E94A42688A12B
:1008900090E09195819591092E813F81280F391F14
:1008A0003F832E83488159812417350730F42C81EA
:1008B0003D81820F931F9F838E83023049F4112361
:1008C00049F0115080E007C080E005C080E003C01F
:1008D00080E001C080E01F5F1E8FDF91CF911F91EC
:1008E0000F910895FC0140A14423A9F050E0268116
:1008F0003781240F351F37832683848195812817FC
:10090000390720F08081918197838683CB016681AE
:1009100077810C94A42608951F93CF93DF93EC0165
:100920000FB6F8940F921AA10BC08B89882351F04F
:10093000CE0143960E94EF0F81110E942B1111509E
:1009400011169CF38FEF8AA30F900FBE0FB6F89489
:100950000F9219A10BC08885882351F0CE0108960B
:100960000E94EF0F81110E942B11115011169CF360
:100970008FEF89A30F900FBEDF91CF911F91089544
:10098000CF93DF93EC010FB6F8940F92E881F981D1
:100990008F8D28A190E030E0829FA001839F500DB1
:1009A000929F500D11244E0F5F1F5D834C831E8E4E
:1009B000FB83EA830197289FA001299F500D389F50
:1009C000500D1124CF01840F951F9F838E838FEFCD
:1009D00089A38AA361110BC08885882371F0CE0199
:1009E00008960E94EF0F882341F03ADE06C0CE0140
:1009F000089668DDCE01439665DD0F900FBE81E05D
:100A0000DF91CF9108950F931F93F801611103C0F7
:100A10001183008302C051834083878F60A361E00C
:100A2000CF01AEDF1F910F910895DF92EF92FF92F9
:100A30000F931F93CF93DF93F82EE62ED42E869F2D
:100A4000C0011124839658DCEC01009741F08C0121
:100A50002D2DAC014D5D5F4F6E2D8F2DD4DFCE015E
:100A6000DF91CF911F910F91FF90EF90DF9008954C
:100A7000CF92DF92EF92FF920F931F93CF93DF936A
:100A8000CDB7DEB729970FB6F894DEBF0FBECDBF46
:100A90007C016B012E833F834887598710E00FB696
:100AA000F8940F92F701968D878D981710F0023009
:100AB000B1F4402FB601C701B6DEF701938999233F
:100AC00041F0C70143960E94EF0F882321F0C8DD53
:100AD00002C08111C5DD0F900FBE81E04CC08E8138
:100AE0009F81A885B985892B8A2B8B2B21F40F90A8
:100AF0000FBE80E040C0111105C0CE0101960E94DA
:100B0000B41011E00F900FBE10D70FB6F8940F92EB
:100B1000F70181A18F3F09F411A2F70182A18F3F54
:100B200009F412A20F900FBEBE016A5F7F4FCE0183
:100B300001960E94C510811119C0C70166DE882385
:100B400081F04E815F8168857985C70108960E9492
:100B5000960FC701E1DE0E94D50D8111A0CF80DD87
:100B60009ECFC701D9DE0E94D50D99CFC701D4DE33
:100B70000E94D50D80E029960FB6F894DEBF0FBE17
:100B8000CDBFDF91CF911F910F91FF90EF90DF903C
:100B9000CF9008950F93009769F0FC01158214829D
:100BA00011821082168200E020E030E0A90160E0AE
:100BB00070E05EDF0F910895CF93DF93482F60E0E0
:100BC00081E033DFEC01E6DFCE01DF91CF910895C4
:100BD000EF92FF920F931F93CF93DF938A01FC0153
:100BE000568D378D531710F02230F9F4422F7801CB
:100BF000EC011AA18E8DCE0116DE1F3F81F48B8988
:100C00008823A9F0CE0143960E94EF0F882389F034
:100C1000E114F10481F081E0F70180830DC0FF242D
:100C2000F394F10EFAA281E007C080E005C081E0F4
:100C300003C081E001C081E0DF91CF911F910F914E
:100C4000FF90EF900895CF92DF92EF92FF920F9373
:100C50001F93CF93DF93CDB7DEB729970FB6F894E4
:100C6000DEBF0FBECDBF8C016B012E833F83488753
:100C70005987E12C0FB6F8940F92F801F68CFF20FB
:100C800099F0B601C8012EDEFA94F801F68E80853F
:100C9000882331F0C80108960E94EF0F8111E0DC33
:100CA0000F900FBE81E04FC08E819F81A885B985CE
:100CB000892B8A2B8B2B21F40F900FBE80E043C031
:100CC000E11006C0CE0101960E94B410EE24E39418
:100CD0000F900FBE2AD60FB6F8940F92F80181A19B
:100CE0008F3F09F411A2F80182A18F3F09F412A2EB
:100CF0000F900FBEBE016A5F7F4FCE0101960E942A
:100D0000C510811117C0C80173DD882379F04E81A9
:100D10005F8168857985C80143960E94960FC80156
:100D2000FBDD43D78111A6CF9BDCA4CFC801F4DD46
:100D30003CD7A0CFC801F0DD38D7C80159DD8823E2
:100D400009F498CF80E029960FB6F894DEBF0FBE65
:100D5000CDBFDF91CF911F910F91FF90EF90DF906A
:100D6000CF900895CF93DF93EC010FB6F8940F92D4
:100D700089A18F3F09F419A28AA18F3F09F41AA211
:100D80000F900FBE8E8D811104C0CE0143960E943C
:100D9000AD0FCE01C1DDDF91CF910895FC014481FB
:100DA000558122813381240F351F80819181B901C2
:100DB000681B790BCB016417750710F0841B950B2A
:100DC00008950F93FC018FE0DF011D928A95E9F7EA
:100DD00075876487558344833783268306870F91FD
:100DE0000895AF92BF92CF92DF92EF92FF920F934E
:100DF0001F93CF93DF936C015B017A01FC01C281E9
:100E0000D381048115810C1B1D0B4017510708F479
:100E10008A01F60184859585A801B5018C0F9D1F77
:100E20000E94A4260E151F0558F4A701401B510B64
:100E3000B501600F711FF601848595850E94A42677
:100E4000CE018E0D9F1DF6012481358182179307F7
:100E500010F0821B930BF60193838283C701DF910D
:100E6000CF911F910F91FF90EF90DF90CF90BF90A7
:100E7000AF900895CF92DF92EF92FF920F931F935E
:100E8000CF93DF931F921F92CDB7DEB77C016B012A
:100E90005A83498321153105C1F0FC01868580FD07
:100EA00008C04217530708F49A013A83298381E066
:100EB0000FC02017310758F042E050E0BE016F5FCD
:100EC0007F4FC7018EDF81E003C080E001C080E07A
:100ED000882331F049815A81B601C70182DF02C0FF
:100EE00080E090E00F900F90DF91CF911F910F91D4
:100EF000FF90EF90DF90CF900895AF92BF92CF9286
:100F0000DF92EF92FF920F931F93CF93DF937C01B9
:100F10005B01E9014217530708F4EA01209781F1C8
:100F2000F7010081118184819581801B910B6E01F5
:100F30008C179D0708F46C01F70164857585600FB7
:100F4000711FA601C5010E94A426CC16DD0658F427
:100F5000AE014C195D09F70164857585C5018C0DDD
:100F60009D1D0E94A4260C0F1D1FF70184819581F1
:100F70000817190710F0081B190BF70111830083DC
:100F8000CE01DF91CF911F910F91FF90EF90DF90F5
:100F9000CF90BF90AF9008956F927F928F929F9263
:100FA000AF92BF92CF92DF92EF92FF920F931F9377
:100FB000CF93DF931F921F92CDB7DEB76C014B0129
:100FC0005A01790101151105B1F0FC0160807180B1
:100FD000A801BE016F5F7F4F90DF89819A81E01A7F
:100FE000F10AA816B90630F4F60171826082A12CCC
:100FF000B12C01C05C019701A501B401C6017DDFE0
:101000000F900F90DF91CF911F910F91FF90EF9074
:10101000DF90CF90BF90AF909F908F907F906F9018
:101020000895CF92DF92EF92FF920F93CF93DF93C9
:10103000EC016B01413011F401E001C000E0C1148A
:10104000D10419F4CC24C394D12CCE014096C817F6
:10105000D90720F4219650D97C0102C0E12CF12C53
:10106000E114F10439F09601AE01B701615F7F4FE1
:10107000C701A7DEC701DF91CF910F91FF90EF90DD
:10108000DF90CF9008950F930FB6F8940F92FC0164
:1010900020853185232B71F422853385232B61F440
:1010A000268137814481558164857585068589DE71
:1010B00081E003C080E001C080E00F900FBE0F917F
:1010C0000895FC012481358180819181820F931FD5
:1010D00042815381841B950B01978217930710F06F
:1010E000821B930B08952F923F924F925F926F92C3
:1010F0007F928F929F92AF92BF92CF92DF92EF92A8
:10110000FF920F931F93CF93DF93CDB7DEB72B974B
:101110000FB6F894DEBF0FBECDBF4C017B876A8748
:101120001A010E831F8328873987FC0184819581EA
:101130000197268520FF0CC02A01F2E04F0E511CBA
:101140008415950558F41E821F821886198606C0DC
:101150008417950710F02A0101C02C018E819F8110
:10116000A885B985892B8A2B8B2B09F436C0CE0133
:101170000196E4D70FB6F8940F92C401A2DF3C01A8
:101180008415950538F560E080E090E00E945D14DC
:101190000E942F11F401938782870F900FBEAE80BB
:1011A000BF80C884D984E12CF12C00E010E09801C4
:1011B00040E050E0BA0180E00E949D11F4011386E6
:1011C0001286BE016A5F7F4FCE010196DED788236B
:1011D00089F205C00F900FBE02C0612C712C611402
:1011E000710419F4C4016DDF3C0182019301A10176
:1011F0006A857B85C4013EDE6C01892BE9F0C40160
:10120000CDDDF4012681378182179307A8F08DD3B5
:10121000F40180859185892B71F080859185E12C81
:10122000F12C00E020E030E0A90160E00E944412CF
:10123000F40111861086B9D4C6012B960FB6F89426
:10124000DEBF0FBECDBFDF91CF911F910F91FF90F9
:10125000EF90DF90CF90BF90AF909F908F907F9056
:101260006F905F904F903F902F900895AF92BF92F4
:10127000CF92DF92EF92FF920F931F93CF93DF9362
:10128000EC017B015A0169018E8580FF04C08A014F
:101290000E5F1F4F01C08A01CE0113DF9C01A50123
:1012A000B701CE01E7DD5C01892BC1F0CE0176DD0F
:1012B0002E813F818217930788F088859985892B35
:1012C00069F088859985E12CF12C00E020E030E080
:1012D000A90160E00E943B1319861886C501DF91C1
:1012E000CF911F910F91FF90EF90DF90CF90BF9023
:1012F000AF9008954F925F926F927F928F929F92DC
:10130000AF92BF92CF92DF92EF92FF920F931F9313
:10131000CF93DF93EC012B013A01580169018E85CF
:1013200080FF05C06894882481F8912C02C0812C2C
:10133000912CA114B104C104D10431F10FB6F89479
:101340000F92CE012BDD7C018816990640F060E0FB
:1013500080E090E00E945D1482D7998788870F9083
:101360000FBE8E149F0498F0E12CF12C00E010E0E9
:10137000980140E050E0BA0180E0DFD71986188676
:10138000CE010CDD7C0103C0CE0108DD7C018E1492
:101390009F04E8F484019701A301B201CE01FCDDB2
:1013A0006C01892BB1F0C1D28A859B85892B69F0AC
:1013B0008A859B85E12CF12C00E020E030E0A9013A
:1013C00060E00E9444121B861A86EFD302C0C12C33
:1013D000D12CC601DF91CF911F910F91FF90EF901B
:1013E000DF90CF90BF90AF909F908F907F906F9045
:1013F0005F904F900895E0919714F0919814808138
:1014000081110CC08FEF9FEFDC01809361149093EA
:101410006214A0936314B09364140895E091971438
:10142000F09198140780F085E02D80819181A28150
:10143000B3818093611490936214A0936314B0936A
:1014400064140895CF93DF93EC018B8D9C8D0E94E3
:101450002502CE010E942502DF91CF9108954F927F
:101460005F926F927F928F929F92AF92BF92CF9234
:10147000DF92EF92FF920F93CF93DF932C015B01EA
:101480004A013901E60165EA70E08B8D9C8D0E946E
:10149000AD268B8D9C8D21E0821A9108880E991EB5
:1014A000A114B10489F415C0822F90E0F501E80F72
:1014B000F91F3081DE01A80FB91F5D963C93808132
:1014C000882329F02F5F01C020E0203168F31CA69B
:1014D00001C01D8E0A3008F009E00A8F0DA71EA674
:1014E000CE01029600D8CE010E960E947302DB87D1
:1014F000CA878AE090E0A0E0B0E0801B9109A109D2
:10150000B1098E879F87A88BB98BDF8BCE8B84E048
:10151000FE01BF96DF011D928A95E9F71BAAA30180
:10152000B201C40154D899838883E114F10419F0FD
:10153000F701D183C083DF91CF910F91FF90EF909E
:10154000DF90CF90BF90AF909F908F907F906F90E3
:101550005F904F900895CF93C0E009C02BE0C29FE9
:10156000C001112481559B4E0E946202CF5FCA3098
:10157000A8F384EA94E10E94620289E994E10E945E
:1015800062028AE894E10E9462028FE794E10E947D
:10159000620283E794E10E94620284EA94E19093FC
:1015A00098148093971489E994E19093961480930A
:1015B0009514CF910895CF93DF93EC010FB6F89473
:1015C0000F92809172148F5F8093721480911D1519
:1015D00090911E15892B51F4D0931E15C0931D15A3
:1015E00080917214813091F4B6DF10C080916C1438
:1015F00081110CC0E0911D15F0911E15928D8A8D00
:10160000891720F0D0931E15C0931D158091651485
:101610008F5F80936514EA8D80916D148E1710F49E
:10162000E0936D148BE08E9FF0011124E155FB4E89
:101630000180F281E02DFF83EE8326813781398797
:101640002887A681B7819E012E5F3F4F15963C9358
:101650002E93149737832683EA8D8E9FF0011124F1
:10166000E155FB4EFD87EC8780818F5F80830F9073
:101670000FBE80916C14882351F0E0911D15F091FC
:101680001E15928D8A8D981710F40E943003DF91F9
:10169000CF910895CF93DF931BC00FB6F8940F92AC
:1016A000E0918614F0918714C085D185CE01029611
:1016B0000E94B402809172148150809372148091C0
:1016C0007E14815080937E140F900FBECE01BADE3F
:1016D00080917E148111E1CFDF91CF9108958F9297
:1016E0009F92AF92BF92CF92DF92EF92FF92CF93F1
:1016F000DF936B017C01C42F80906E1490906F1467
:10170000A0907014B090711480911D1590911E15C9
:1017100002960E94B4028FEFC816D806E806F806B3
:10172000B1F5CC23A1F1E3E7F4E1A181B281C0914D
:101730001D15D0911E15BF83AE83C0911D15D0918C
:101740001E1516968D919C911797998788871696E6
:10175000CD91DC91179780911D1590911E150296E1
:101760009D838C8380911D1590911E15029617966E
:101770009C938E931697A0911D15B0911E151D96E2
:10178000FC93EE931C9780818F5F80833FC0C80CD1
:10179000D91CEA1CFB1CE0911D15F0911E15C2829C
:1017A000D382E482F582C814D904EA04FB0468F405
:1017B00060911D1570911E1580919514909196144D
:1017C0006E5F7F4F0E94770221C060911D1570915E
:1017D0001E1580919714909198146E5F7F4F0E9410
:1017E00077028091611490916214A0916314B0917A
:1017F0006414C816D906EA06FB0640F4C0926114C8
:10180000D0926214E0926314F0926414DF91CF914D
:10181000FF90EF90DF90CF90BF90AF909F908F9010
:1018200008952F923F924F925F926F927F928F9284
:101830009F92AF92BF92CF92DF92EF92FF920F935F
:10184000CF93DF933C011B014A012901CA010E9489
:101850007C016C01892B71F084E390E00E947C0193
:10186000EC01892B19F0DC8ECB8E06C0C6010E94DC
:10187000250202C0C0E0D0E0209761F0A12CB12C7D
:101880006E019201A401B101C301E9DDCE0193DE35
:1018900081E001C08FEFDF91CF910F91FF90EF902A
:1018A000DF90CF90BF90AF909F908F907F906F9080
:1018B0005F904F903F902F900895EF92FF920F937B
:1018C0000F2EFFE5EF2EF4E1FF2EF02D00E020E0DB
:1018D00030E040EC50E06EE372E08DEC90E0A1DF90
:1018E000813011F40E9401158130C9F4F8948FEF12
:1018F0009FEFDC018093611490936214A0936314B2
:10190000B093641481E080936C1410926E14109262
:101910006F1410927014109271140E94FE02809144
:1019200006020F91FF90EF90089580915E148F5FF3
:1019300080935E1408950FB6F8940F9260916E1420
:1019400070916F1480917014909171140F900FBE6C
:101950000895CF92DF92EF92FF92CF93DF93809121
:101960005E14811105C1C0906E14D0906F14E09088
:101970007014F09071148FEFC81AD80AE80AF80AA8
:10198000C0926E14D0926F14E0927014F0927114A1
:10199000C114D104E104F104B1F480919714909141
:1019A00098142091951430919614309398142093A4
:1019B00097149093961480939514809166148F5F7A
:1019C0008093661418DD8091611490916214A09147
:1019D0006314B0916414C816D906EA06FB0620F415
:1019E00080E0B2C081E001C080E0E0919714F09106
:1019F0009814908191110CC04FEF5FEFBA014093A2
:101A000061145093621460936314709364149CC0C7
:101A1000E0919714F09198140780F085E02D0084F0
:101A2000F185E02D4281538164817581C416D5060C
:101A3000E606F70648F440936114509362146093ED
:101A400063147093641480C0A485B585C681D78162
:101A5000208531853F832E83C085D18526813781BE
:101A60003D832C8311964D915C9112979F012E5FBF
:101A70003F4F4217530731F44085518512965C93CE
:101A80004E931197158614869C9191509C93A08D2E
:101A9000B18D109709F1C289D389448955895F8333
:101AA0004E83C489D589428953895D834C831196BD
:101AB0006D917C911297AF01425F5F4F641775077C
:101AC00031F44489558912965C934E931197118E87
:101AD000108E9C9191509C93A28D90916D149A17A9
:101AE00010F4A0936D149BE09A9FD0011124A1558E
:101AF000BB4E11960D90BC91A02DB783A683169670
:101B00004D915C911797518740871696CD91DC9146
:101B100017973D832C8317963C932E931697A28D8F
:101B20009A9FD0011124A155BB4EB587A4879C91E3
:101B30009F5F9C93228DE0911D15F0911E15928D53
:101B4000291708F04FCF51CFE0911D15F0911E15C8
:101B5000E28D9BE0E99FF0011124E155FB4E90815D
:101B6000923008F081E090916714911116C016C070
:101B70008091681490916914A0916A14B0916B14CB
:101B80000196A11DB11D8093681490936914A093D0
:101B90006A14B0936B1480E001C081E0DF91CF91B3
:101BA000FF90EF90DF90CF900895CF92DF92EF9269
:101BB000FF92CF93DF930FB6F8940F9280915E144B
:101BC000815080935E1480915E148111BEC080911B
:101BD0007214811188C0BCC0E0919114F0919214EC
:101BE0000084F185E02DA08DB18DC289D3898489CF
:101BF00095899F838E83C489D589828993899D83A2
:101C00008C8311962D913C911297CF010E96281737
:101C1000390731F48489958912969C938E93119794
:101C2000118E108E8C9181508C93A485B585C681C0
:101C3000D781808591859F838E83C085D18586815C
:101C400097819D838C8311968D919C9112979F0112
:101C50002E5F3F4F8217930731F48085918512964E
:101C60009C938E931197158614868C9181508C933A
:101C7000A28D80916D148A1710F4A0936D148BE0DF
:101C80008A9FD0011124A155BB4E11960D90BC9195
:101C9000A02DB783A68316964D915C911797518717
:101CA00040871696CD91DC9117973D832C8317962C
:101CB0003C932E931697A28D8A9FD0011124A15593
:101CC000BB4EB587A4878C918F5F8C93928DA0912A
:101CD0001D15B0911E155A968C91981730F081E021
:101CE0008093671402C0E0E0F0E080918A148111D3
:101CF00073CFEF2B09F07FDBC0906814D09069148C
:101D0000E0906A14F0906B14C114D104E104F10462
:101D1000A1F01FDE882319F081E08093671481E031
:101D2000C81AD108E108F108A1F7109268141092BE
:101D3000691410926A1410926B14809167148823AE
:101D400031F00E94300381E003C080E001C080E0F8
:101D50000F900FBEDF91CF91FF90EF90DF90CF906B
:101D600008958F929F92AF92BF92CF92DF92EF929F
:101D7000FF921F93CF93DF93EC016A017B01D5DDC6
:101D800080906E1490906F14A0907014B0907114A5
:101D900088819981AA81BB81AC01BD014C0D5D1D7B
:101DA0006E1D7F1D88169906AA06BB0660F44817AB
:101DB00059076A077B0798F484169506A606B706A6
:101DC00080F010E013C0481759076A077B0758F0E6
:101DD00084169506A606B70640F010E007C010E08E
:101DE00005C011E003C011E001C011E04883598330
:101DF0006A837B83112341F0CB01BA016819790909
:101E00008A099B0940E06BDCD0DE811102C00E9490
:101E10003003812FDF91CF911F91FF90EF90DF90E2
:101E2000CF90BF90AF909F908F900895CF92DF9208
:101E3000EF92FF926B017C01672B682B692B39F0C5
:101E400074DD40E0C701B6014ADCAFDE01C080E0CE
:101E5000811102C00E943003FF90EF90DF90CF907D
:101E6000089580915E14882321F081E080936714A7
:101E7000089510926714E0911D15F0911E152081B0
:101E80003181E0911D15F0911E15838D948D82177F
:101E9000930760F060911D1570911E15635E7F4F72
:101EA00080911D1590911E150E948F1780916D14C1
:101EB00001C08150282F30E09BE0929FF001939F5A
:101EC000F00D1124E155FB4E9081992391F39BE095
:101ED000929FA001939F500D1124DF010180F28198
:101EE000E02D0480F581E02D1296FC93EE9311977E
:101EF0004E545B4EE417F50729F444815581FD01EA
:101F0000528341839BE0929FF001939FF00D112437
:101F1000E155FB4E0180F281E02D20853185309323
:101F20001E1520931D1580936D140895CF92DF9296
:101F3000EF92FF926A017B0160911D1570911E1551
:101F4000625F7F4F0E94770241E0C701B601C7DBA5
:101F5000FF90EF90DF90CF900895CF93DF93FC0137
:101F6000CB01BA01A181B281C0911D15D0911E157E
:101F7000BB8BAA8BC0911D15D0911E1516964D9145
:101F80005C9117975D8B4C8B1696CD91DC911797D2
:101F900040911D1550911E15425F5F4F5D834C832C
:101FA00040911D1550911E15425F5F4F17965C932F
:101FB0004E931697A0911D15B0911E155996FC933E
:101FC000EE93589730813F5F3083222319F06FEFF3
:101FD0007FEFCB01422F83DBDF91CF910895CF9329
:101FE000DF93DC011796ED91FC9118970084F18541
:101FF000E02DA08DB18DC289D389848995899F8375
:102000008E83C489D589828993899D838C83119617
:102010008D919C9112979F01225F3F4F82179307EA
:1020200031F48489958912969C938E931197118E21
:10203000108E8C9181508C9380915E14811152C0CE
:10204000A485B585C681D781808591859F838E8340
:10205000C085D185868197819D838C8311968D91D2
:102060009C9112979F012E5F3F4F8217930731F487
:102070008085918512969C938E9311971586148670
:102080008C9181508C93A28D80916D148A1710F4DD
:10209000A0936D148BE08A9FD0011124A155BB4EF3
:1020A00011960D90BC91A02DB783A68316964D91E5
:1020B0005C911797518740871696CD91DC911797C1
:1020C0003D832C8317963C932E931697A28D8A9F5F
:1020D000D0011124A155BB4EB587A4878C918F5F89
:1020E0008C931CC04AE854E1DA011196CD91DC9141
:1020F0001297D38BC28B8E819F81958B848B8E811F
:102100009F81DC0115963C932E9314973F832E8379
:10211000518F408FDA018C918F5F8C93928DE0917B
:102120001D15F0911E15828D891720F481E0809392
:10213000671401C080E0DF91CF9108950FB6F89445
:102140000F9220916614FC01208340916E145091EF
:102150006F14609170147091711441835283638382
:1021600074830F900FBE089520916614FC012083A4
:1021700040916E1450916F146091701470917114AD
:10218000418352836383748308958F929F92AF92A9
:10219000BF92CF92DF92EF92FF920F931F93CF9354
:1021A000DF93FB010FB6F8940F92C0906E14D0909D
:1021B0006F14E0907014F0907114DC0111960D9181
:1021C0001D912D913C91149746015701801A910A57
:1021D000A20AB30A40815181628173814F3FBFEFF0
:1021E0005B076B077B0739F1EC01B881A09166149E
:1021F000BA1759F0C016D106E206F30630F0108285
:1022000011821282138281E017C084169506A606F9
:10221000B70658F4481959096A097B094083518364
:1022200062837383A1DF80E007C010821182128273
:10223000138281E001C080E00F900FBEDF91CF914B
:102240001F910F91FF90EF90DF90CF90BF90AF90D4
:102250009F908F90089581E08093671408958091F6
:102260001D1590911E15089580916C14882331F0EE
:1022700080915E14811104C082E0089581E0089588
:1022800080E008950F931F93CF93DF93FC01892B78
:1022900009F449C086A5815086A7228D95A52917E6
:1022A00009F443C0811143C0EF018F010E5F1F4F3E
:1022B000C8010E94B402EDA5EA8F8AE090E0A0E098
:1022C000B0E08E1B9109A109B1098E879F87A88B69
:1022D000B98B80916D148E1710F4E0936D148BE020
:1022E0008E9FF0011124E155FB4E0180F281E02D1B
:1022F000FF83EE832681378139872887A681B781BE
:1023000015961C930E93149717830683EA8D8E9F60
:10231000F0011124E155FB4EFD87EC8780818F5F32
:10232000808381E005C080E003C080E001C080E0E0
:10233000DF91CF911F910F9108954F925F926F920D
:102340007F92AF92BF92CF92DF92EF92FF920F9364
:102350001F93CF93DF93280139010FB6F8940F92A2
:10236000E0911D15F0911E15C82FD0E0EC0FFD1F58
:1023700083A9823071F1E0911D15F0911E15CE01F7
:10238000880F991F880F991FE80FF91F87A590A93B
:10239000A1A9B2A9409550956095709548235923FD
:1023A0006A237B2347A750AB61AB72ABE0911D154D
:1023B000F0911E15EC0FFD1F81E083ABA114B10459
:1023C000C104D10431F041E0C601B50188D90E94B1
:1023D00030030F900FBE0FB6F8940F92E114F10482
:1023E000A1F0E0911D15F0911E15CE01880F991FE7
:1023F000880F991FE80FF91F87A590A9A1A9B2A975
:10240000F70180839183A283B383E0911D15F0913E
:102410001E15EC0FFD1F83A98230E9F4E0911D1514
:10242000F0911E15CE01880F991F880F991FE80F94
:10243000F91F87A590A9A1A9B2A9409450946094CE
:102440007094482259226A227B2247A650AA61AA88
:1024500072AA81E001C080E020911D1530911E1507
:10246000C20FD31F1BAA0F900FBEDF91CF911F91F8
:102470000F91FF90EF90DF90CF90BF90AF907F9043
:102480006F905F904F9008958F929F92AF92BF92FE
:10249000EF92FF920F93CF93DF93DC010FB6F89486
:1024A0000F92E114F10489F0E62FF0E0EE0FFF1F28
:1024B000EE0FFF1FE80FF91F87A490A8A1A8B2A8EC
:1024C000F70180829182A282B38270E0FD01E60F63
:1024D000F71F83A992E093AB023001F118F40130A9
:1024E00031F04DC0033079F10430D1F148C0660FAE
:1024F000771F660F771FFD01E60FF71F87A490A8CF
:10250000A1A8B2A8BA01A901482959296A297B2999
:1025100047A750AB61AB72AB01E034C0660F771FC9
:10252000660F771FFD01E60FF71F47A550A961A9A8
:1025300072A94F5F5F4F6F4F7F4F47A750AB61ABA3
:1025400072AB01E01FC0660F771F660F771FFD019A
:10255000E60FF71F27A730AB41AB52AB01E012C02B
:10256000823079F0660F771F660F771FFD01E60F47
:10257000F71F27A730AB41AB52AB01E003C001E02E
:1025800001C000E0813009F069C01C96ED91FC911A
:102590001D971696CD91DC91179718968D919C9169
:1025A00019979F838E831896CD91DC911997169673
:1025B0008D919C9117979D838C83818192819D0140
:1025C0002E5F3F4F8217930731F418968D919C919F
:1025D0001997928381831D961C921E921C9780816D
:1025E000815080835A96EC915A9780916D148E1782
:1025F00010F4E0936D148BE08E9FF0011124E155EF
:10260000FB4E0180F281E02D1796FC93EE93169716
:102610004681578119965C934E931897C681D7814E
:102620003D832C83378326835A96EC915A978E9F4D
:10263000F0011124E155FB4E1D96FC93EE931C977F
:1026400080818F5F80835A969C91E0911D15F09157
:102650001E15828D891710F40E9430030F900FBE53
:10266000802FDF91CF910F91FF90EF90BF90AF90AF
:102670009F908F9008958F929F92AF92BF92CF922A
:10268000DF92EF92FF920F93CF93DF93DC01E1147F
:10269000F10489F0E62FF0E0EE0FFF1FEE0FFF1FB1
:1026A000E80FF91F87A490A8A1A8B2A8F70180821B
:1026B0009182A282B38270E0FD01E60FF71F93A919
:1026C00082E083AB023001F118F4013031F04DC0EB
:1026D000033079F10430D1F148C0660F771F660FDF
:1026E000771FFD01E60FF71F87A490A8A1A8B2A845
:1026F000BA01A901482959296A297B2947A750AB62
:1027000061AB72AB81E034C0660F771F660F771F35
:10271000FD01E60FF71F47A550A961A972A94F5FF8
:102720005F4F6F4F7F4F47A750AB61AB72AB81E0FC
:102730001FC0660F771F660F771FFD01E60FF71F9B
:1027400027A730AB41AB52AB81E012C0923079F099
:10275000660F771F660F771FFD01E60FF71F27A78C
:1027600030AB41AB52AB81E003C081E001C080E0FF
:10277000913009F096C090915E1491115FC01C9643
:10278000ED91FC911D971696CD91DC9117971896B7
:102790002D913C9119973F832E831896CD91DC9112
:1027A000199716962D913C9117973D832C83418163
:1027B00052819D012E5F3F4F4217530731F4189607
:1027C0004D915C911997528341831D961C921E92E4
:1027D0001C979081915090835A96EC915A979091C2
:1027E0006D149E1710F4E0936D149BE09E9FF00112
:1027F0001124E155FB4E0180F281E02D1796FC93E8
:10280000EE9316974681578119965C934E931897CD
:10281000C681D7813D832C83378326835A96EC91DA
:102820005A979E9FF0011124E155FB4E1D96FC9393
:10283000EE931C9790819F5F908321C06AE874E1BA
:10284000FB01C181D2815396DC93CE9352972E81A6
:102850003F8155963C932E9354974E815F819D0105
:10286000225F3F4FFA01358324833F832E8359969D
:102870007C936E935897FB0190819F5F90835A964B
:102880002C91E0911D15F0911E15928D921748F430
:10289000C114D10419F091E0F601908391E0909376
:1028A0006714DF91CF910F91FF90EF90DF90CF9061
:1028B000BF90AF909F908F900895009721F48091E2
:1028C0001D1590911E150FB6F8940F9270E0FC0143
:1028D000E60FF71F23A9223031F4FC01E60FF71FA2
:1028E00013AA81E001C080E00F900FBE0895DC01C3
:1028F000E0912915F0912A15808191E0811190E0F5
:102900009C93911108C00780F085E02D6081718152
:1029100082819381089560E070E0CB010895CF92A9
:10292000DF92EF92FF920F931F93FC014283538338
:1029300064837583938782870417150726073707F3
:10294000C0F00C191D092E093F0986859785A089BD
:10295000B189081719072A073B0700F5BF016E5F09
:102960007F4F80912715909128150E94770280E073
:1029700018C00C151D052E053F0528F44C155D05E6
:102980006E057F0568F4BF016E5F7F4F809129154A
:1029900090912A150E94770280E003C081E001C077
:1029A00081E01F910F91FF90EF90DF90CF900895FD
:1029B0000FB6F8940F928091251590912615892BCA
:1029C000E9F486E395E10E9462028BE295E10E94C0
:1029D000620286E395E190932A15809329158BE294
:1029E00095E1909328158093271540E067E08AE0F1
:1029F0000E94150590932615809325150F900FBE04
:102A00000895EF92FF920F93D3DF80912515909157
:102A10002615892B91F00F2EF3E2EF2EF5E1FF2E14
:102A2000F02D03E020E030E040EC50E063E472E0A1
:102A300087ED90E00E94110C01C080E00F91FF90A3
:102A4000EF9008958F929F92AF92BF92CF92DF92B4
:102A5000EF92FF920F931F93CF93DF93CDB7DEB723
:102A600027970FB6F894DEBF0FBECDBFE0912515B6
:102A7000F0912615309781F169832A833B834C833B
:102A80005D839F838E836630F4F4EEDB823069F4DD
:102A900000E0A7019601BE016F5F7F4F8091251571
:102AA000909126150E94380518C000E020E030E023
:102AB000A901BE016F5F7F4F80912515909126156A
:102AC0000E9438050AC020E0A801BE016F5F7F4F59
:102AD000CF010E94E80501C080E027960FB6F89468
:102AE000DEBF0FBECDBFDF91CF911F910F91FF9041
:102AF000EF90DF90CF90BF90AF909F908F90089510
:102B00008F929F92AF92BF92CF92DF92EF92FF92FD
:102B10000F931F93CF93DF933BC00780F085E02D89
:102B200080809180A280B380C085D1858E010E5FA8
:102B30001F4FC8010E94B402EC89FD89CE0119958E
:102B40008E8982FF25C08E859F85A889B989880DC9
:102B5000991DAA1DBB1D88169906AA06BB0670F40E
:102B60008A839B83AC83BD83DB87CA87B80180914E
:102B7000291590912A150E9477020AC0C12CD12CE8
:102B8000760100E010E0A501940160E0CE015ADF7B
:102B9000E0912915F0912A1580818111BECF809195
:102BA00027159091281590932A1580932915F09355
:102BB0002815E0932715DF91CF911F910F91FF907A
:102BC000EF90DF90CF90BF90AF909F908F9008953F
:102BD000CF92DF92EF92FF92CF93DF93EC010E94AE
:102BE0009B0C6B017C0180911F1590912015A09189
:102BF0002115B0912215C816D906EA06FB0620F465
:102C00007FDF81E0888301C01882C0921F15D092B7
:102C10002015E0922115F0922215C701B601DF912F
:102C2000CF91FF90EF90DF90CF9008954F925F92F9
:102C30006F927F928F929F92AF92BF92CF92DF92CC
:102C4000EF92FF920F931F93CF93DF934B015C01A1
:102C500029013A01E0912915F0912A150780F085A4
:102C6000E02DC085D185CE0102960E94B4028E89E6
:102C700082FF1BC04E855F8568897989480D591D83
:102C80006A1D7B1D7501640193018201CE0147DE3F
:102C9000882369F0C12CD12C760100E010E0A50159
:102CA000940160E0CE01CEDE02C08E7F8E8BEC8977
:102CB000FD89CE011995DF91CF911F910F91FF9062
:102CC000EF90DF90CF90BF90AF909F908F907F90CC
:102CD0006F905F904F9008958F929F92AF92BF92A6
:102CE000CF92DF92EF92FF921F93CF93DF931F92C9
:102CF000CDB7DEB76B017C01142F0E94950CCE017D
:102D0000019666DF4B015C01898181112DC0111193
:102D10000DC08C149D04AE04BF0440F00E94D50D7C
:102D2000A5019401C701B60181DF20C0112341F044
:102D3000E0912715F0912815808111E0811110E0B4
:102D4000B701A601481959096A097B09212F809109
:102D50002515909126150E94B2060E94D50D81116D
:102D600005C00E94300302C00E94D50D0F90DF9174
:102D7000CF911F91FF90EF90DF90CF90BF90AF90D9
:102D80009F908F900895AF92BF92CF92DF92EF9273
:102D9000FF920F931F93CF93DF93CDB7DEB72897A2
:102DA0000FB6F894DEBF0FBECDBF82C089818823E5
:102DB0000CF47EC0AE80BF80D5011C968D919C9195
:102DC0001D97892B21F0C50102960E94B402CE0105
:102DD0000896FEDE8B019C01E9810E2E000CFF0B94
:102DE000EA30F10508F064C08827EE58FF4F8F4F96
:102DF0000C947725F50186898160868BCA80DB80FB
:102E0000EC80FD8046855785608971894C0D5D1D7C
:102E10006E1D7F1DC50183DD882309F449C0D501DE
:102E20005496ED91FC915597C5011995F501868948
:102E300082FF3EC04A815B816C817D81868597855A
:102E4000A089B1899A01AB01280F391F4A1F5B1F66
:102E5000C12CD12C760100E010E060E0C501F2DD6C
:102E600027C0D50156968C9156978E7F56968C9397
:102E70001FC0F50186898160868B4A815B816C81E8
:102E80007D8146875787608B718B400F511F621F72
:102E9000731F68017901C50142DD0AC0F501868909
:102EA00081FD04C0C5010E94250202C08E7F868B71
:102EB00020E030E0A901BE016F5F7F4F80912515B2
:102EC000909126150E942306811170CF28960FB687
:102ED000F894DEBF0FBECDBFDF91CF911F910F9150
:102EE000FF90EF90DF90CF90BF90AF90089508953E
:102EF00084B1806884B985B1806885B9089583B14B
:102F0000806883B90895F4DF2FEF80E792E02150C5
:102F100080409040E1F700C00000F1DFF5CFE8DF2E
:102F20002FEF87EA91E6215080409040E1F700C002
:102F30000000E5DFF5CFCF93DF9300D01F92CDB730
:102F4000DEB70E949B0C69837A838B839C834FE15D
:102F500050E060E070E0CE0101960E94B10E8BE47B
:102F600092E00E94162792B181E0892782B9EFCFC3
:102F7000CF93DF9300D01F92CDB7DEB70E949B0C9A
:102F800069837A838B839C834EE350E060E070E03A
:102F9000CE0101960E94B10E81E592E00E941627B3
:102FA00082B1805882B9F0CFEF92FF920F93809157
:102FB000DB169091DC16892B89F481E00E94DC05F8
:102FC0009093DC168093DB16009741F000E020E040
:102FD00030E0A90160E070E00E943805E12CF12C9E
:102FE00002E020E030E040EC50E06BE472E08BE97E
:102FF00097E10E94110C01E020E030E040EC50E04D
:1030000061E572E088EB97E10E94110C0F91FF904F
:10301000EF90089581B1816881B90E94080180E034
:103020000E94B921C1DF60E070E081E0A4D283E0BA
:103030001AC10895EFDF87E592E00E9416270E94EB
:103040005D0CFFCFCF93DF9381E00E947A22E1D223
:103050005DD59F938F9389E692E09F938F930E9413
:10306000032755D453D59F938F938CE792E09F937A
:103070008F930E94032787E595E1DDD247D5C7E509
:10308000D5E1DF93CF939F938F9385E992E09F9350
:103090008F930E940327CE01EAD238D59F938F9356
:1030A000DF93CF9389EA92E09F938F930E94032747
:1030B000AE016EEB72E08FED92E007D527D59F93BE
:1030C0008F93DF93CF938EEB92E09F938F938FED4F
:1030D00092E09F938F9380EF92E09F938F930E9453
:1030E0000327F8D213D59F938F9386E293E09F93A3
:1030F0008F930E9403278DB79EB782960FB6F894E0
:103100009EBF0FBE8DBF81E0DFD300D59F938F930D
:1031100085E393E09F938F930E94032784EF91E0D0
:10312000DED3F4D49F938F9381E08F9384EF8F93BA
:1031300086E593E09F938F930E9403278DB79EB7F8
:103140000A960FB6F8949EBF0FBE8DBFCAE080E00E
:10315000C7D2D82FDBD49F938F931F92CF9386E74C
:1031600093E09F938F930E9403270F900F900F90EF
:103170000F900F900F90D83059F080E00E94DE221F
:1031800066E371E080E090E00E94160FC150F9F60E
:10319000D83021F481E00E94C02209C081E00E9461
:1031A000CF2280E00E949D220E943003FDCFDF915C
:1031B000CF910895CF93DF9300D01F92CDB7DEB7A4
:1031C00086E993E09F938F930E94032781E013D2B7
:1031D00041E050E060E070E082E090E00E94B10EDB
:1031E00080E009D266E970E080E090E00E94160F6E
:1031F000BBD128DFE1E4F5E186E0818382E08083D2
:103200000E949B0C69837A838B839C830F900F9021
:10321000E1E4F5E180E3828389E3838382E08483D0
:1032200083EA858384E086838AE1878383E00E9442
:10323000F02261E475E180E07CD268D49F938F93A3
:1032400089EB93E09F938F930E94032748EA58E409
:1032500060E070E0CE0101960E94B10E0F900F90D9
:103260000F900F90D5CFEF92FF920F93E12CF12C9E
:10327000082F20E030E048E851E06EEC73E08AED82
:1032800098E10E94110C0F91FF90EF90089533D0B8
:1032900088F09F5790F0B92F9927B751A0F0D1F03F
:1032A000660F771F881F991F1AF0BA95C9F712C0C9
:1032B000B13081F03AD0B1E0089537C0672F782F50
:1032C0008827B85F39F0B93FCCF386957795679535
:1032D000B395D9F73EF490958095709561957F4FA1
:1032E0008F4F9F4F089557FD9058440F551F59F029
:1032F0005F3F71F04795880F97FB991F61F09F3FE3
:1033000079F087950895121613061406551FF2CF0B
:103310004695F1DF08C0161617061806991FF1CF5B
:1033200086957105610508940895E894BB27662782
:103330007727CB0197F908950F931F93CF93DF93CE
:103340001F921F92CDB7DEB78C0119822DC0E0917C
:10335000F215EC3250F481E08E0F8093F215F0E01C
:10336000EC5DF94E8A81808302C01092F2158A8149
:103370008A30D1F44091F21550E0FA01EE5DF94E39
:103380001082415051099E012F5F3F4F64E276E168
:103390008091F5159091F6150E9436098981811169
:1033A0000E9430031092F215BE016E5F7F4FC8017C
:1033B0004AD5882361F20F900F90DF91CF911F9132
:1033C0000F9108950F931F93CF93DF938C01EB011F
:1033D0008091F5159091F6150E944308B8018BEB8A
:1033E00095E10E94E426209779F0EBEBF5E101905E
:1033F0000020E9F7319780E290E091838083BE015D
:103400008BEB95E10E94D926EBEBF5E1DF010D9006
:103410000020E9F711978DE09AE011969C938E9326
:1034200012961C9201900020E9F73197EB5BF54171
:10343000AE2F8BEB95E1AC016A2F8091F71590913F
:10344000F815ACD4811111C008E215E020E030E09D
:103450004DE250E06EE776E18091F5159091F6151A
:103460000E947A098EE796E102C080E090E0DF9149
:10347000CF911F910F9108952F923F924F925F929B
:103480006F927F928F929F92AF92BF92CF92DF9274
:10349000EF92FF920F931F93CF93DF935C01FC0198
:1034A00001900020E9F731976F01C81AD90A5C2C06
:1034B0000F2EFEE68F2EF6E09F2EF02DE12CF12C44
:1034C0004C2C3701F40101811281E80109900020A0
:1034D000E9F72197C01BD10B3C2EF9E0CF16D104A0
:1034E00058F0F4012080FEE02F1206C0B801C5019B
:1034F0000E94B426892B09F5442D351408F44C2F6D
:1035000050E0B801C5010E94EB26892B49F4F30174
:10351000EE0FFF1FE60DF71DE259F94F20800DC099
:103520008FEFE81AF80AE3E08E0E911CF1E1EF1636
:10353000F10439F66894222424F8822DDF91CF918A
:103540001F910F91FF90EF90DF90CF90BF90AF90C1
:103550009F908F907F906F905F904F903F902F90B3
:10356000089530DF89CF08958091F5159091F61573
:103570000C94430808958F929F92AF92CF92EF924E
:103580000F931F93CF93C82F8B0141E060E070E051
:1035900088EC90E00E9411089093F6158093F51541
:1035A0001093F4150093F3150F2EFCE98F2EF9E11B
:1035B0009F2EF02D6894AA24A6F86894CC24C6F80F
:1035C000E12C00E023E040E051EE60E070E08C2F61
:1035D0001ED39093F8158093F715E7E0F1E0808112
:1035E00080618083CF911F910F91EF90CF90AF902A
:1035F0009F908F900895882331F0E8E0F1E080817A
:103600008F7E80830895E8E0F1E08081806180838F
:10361000089560E070E084EF93E0D4DEEEE7F6E139
:1036200001900020E9F73197EE57F64181E0759758
:1036300008F080E00895CF93DF93EC0160E070E044
:1036400085E094E0BFDEEEE7F6E101900020E9F7C7
:10365000EF58F64139F46EE776E1CE010E94E42698
:1036600080E002C0188281E0DF91CF910895FC01D3
:1036700001900020E9F79F012151310928173907EE
:1036800029F4BC0183E394E06CCF089589E00895A8
:10369000FC0101900020E9F79F0121513109281711
:1036A000390729F4BC0182E494E05BCF089589E0F6
:1036B0000895FC0101900020E9F79F012152310992
:1036C0002817390729F4BC0181E594E04ACF089511
:1036D00089E0089560E070E080E994E042CF0895C9
:1036E0000F931F93E82FF0E0EE0FFF1FE659F94FFD
:1036F0006081718189E994E034DF811114C008E2AE
:1037000015E020E030E04DE250E06EE776E1809198
:10371000F5159091F6150E947A09882321F08EE71D
:1037200096E1AADE03C08EE796E1A6DE1F910F9117
:1037300008950F931F93CF93DF931F92CDB7DEB7FA
:10374000DB0111969C911197953108F0B4C0992333
:1037500081F160E070E0272F30E0462F50E0FD015E
:10376000E40FF51F928192959F709A3010F0995C4A
:1037700001C0905DF901E15FF94E90832F5F3F4FEB
:10378000FD01E40FF51F92819F70492F50E04A30F0
:10379000510514F0995C01C0905DF901E15FF94EAB
:1037A00090837E5F6F5F11969C911197691798F2D5
:1037B00001C070E0E72FF0E0E15FF94E10824C911C
:1037C000811103C082EA94E002C084EA94E02FE011
:1037D00036E13F932F931F924F939F938F9388EAE5
:1037E00094E09F938F9381E596E19F938F930E943E
:1037F000462760E070E081E596E1B3DE0FB6F8940D
:10380000DEBF0FBECDBF811159C008E215E020E038
:1038100030E04DE250E06EE776E18091F515909151
:10382000F6150E947A09882309F447C08EE796E1CD
:1038300023DE8E3009F042C087E089838091F31542
:103840009091F415892BA9F1BE016F5F7F4F8EE730
:1038500096E168D18093F915E981F0E0E258F94EDC
:10386000DF010D900020E9F71197AE1BBF0BAA23D3
:1038700091F0BB27CD0101979C0112F42F5F3F4FC0
:10388000359527952093FA15AF014F5F5F4F64E19F
:103890008BEF95E173D101E010E020E030E046E1EC
:1038A00050E069EF75E18091F3159091F4150E9455
:1038B00073088EE003C084E101C080E00F90DF91C7
:1038C000CF911F910F910895813019F068EB74E04A
:1038D00002C061E975E08CEB94E043CE08959F93BC
:1038E0008F938DEE94E09F938F9381E596E19F9364
:1038F0008F930E94462760E070E081E596E131DE1B
:103900000F900F900F900F900F900F9008952F929F
:103910003F924F925F926F927F928F929F92AF925F
:10392000BF92CF92DF92EF92FF920F931F93CF93AC
:10393000DF93CDB7DEB7A0970FB6F894DEBF0FBE0A
:10394000CDBF6AE175E086E295E03CDD95DD811151
:10395000A3C080E2EEE1F2E0DE01119601900D924B
:103960008A95E1F79E012F5F3F4F6901E12CF12C11
:103970000F2EF2E3AF2EF5E0BF2EF02D01E516E19C
:103980000F2EFBE44F2EF5E05F2EF02D0F2EF2E60A
:103990008F2EF5E09F2EF02D0F2EFCE76F2EF5E019
:1039A0007F2EF02D3E2C2F2CFF92EF92BF92AF92E4
:1039B0001F930F930E94462760E070E0C80102DD6C
:1039C0005BDD0F900F900F900F900F900F90811173
:1039D00063C032E03E15E8F4F60183818F93828163
:1039E0008F9381818F9380818F93FF92EF925F926B
:1039F0004F921F930F930E94462760E070E0C8012A
:103A0000E1DC3ADD0FB6F894DEBF0FBECDBF811109
:103A100043C02F923F929F928F921F930F930E94C9
:103A2000462760E070E0C801CDDC26DD0F900F90E6
:103A30000F900F900F900F9081112EC02F923F92F8
:103A40007F926F921F930F930E94462760E070E071
:103A5000C801B8DC11DD0F900F900F900F900F9000
:103A60000F90811119C03FEFE31AF30A84E0C80EEA
:103A7000D11C98E0E916F10409F094CF60E070E001
:103A800084E995E09FDCF8DC811106C060E070E01D
:103A900085EA95E097DCF0DCA0960FB6F894DEBFDF
:103AA0000FBECDBFDF91CF911F910F91FF90EF908F
:103AB000DF90CF90BF90AF909F908F907F906F904E
:103AC0005F904F903F902F900895EF92FF920F9349
:103AD0001F93CF93DF93EC018B017A0181E0F4DE39
:103AE00081110DC0CE01D4DD811109C0C801E1DD15
:103AF000811105C0C701BBDD811101C0EBDDDF9184
:103B0000CF911F910F91FF90EF90089590E0FC01ED
:103B1000EE0FFF1F8E0F9F1FFC01E259F94F8181AD
:103B200092810895DC01009729F1FB012081FC01BD
:103B300001900020E9F73197E81BF90B822F90E004
:103B4000E817F907C8F080E008C0880F382F330F56
:103B5000330F830F8053890F2F5FFD01E20FF11D9B
:103B6000908130ED390F3A3010F49111EECFFB0116
:103B70002083089580E0089580E008950F931F93B7
:103B8000CF93DF93DC01EA012097E1F1FA01019084
:103B90000020E9F73197E41BF50B329710F532C09E
:103BA0008D01040F151F30E0AE01420F531FFA01C3
:103BB0009081913428F09753592F5295507F03C02C
:103BC000592F5295507F2C0F3D1FF901918191344F
:103BD00010F0975301C09053950FF80190838F5FB9
:103BE00001C080E0282F220F482F50E0FE010190F5
:103BF0000020E9F73197EC1BFD0B4E175F0710F41F
:103C00008613CECFDF91CF911F910F9108952F9200
:103C10003F924F925F926F927F928F929F92AF925C
:103C2000CF92EF92FF920F931F93CF93DF93CDB775
:103C3000DEB7F82E2A013B0188E090E060D78C01C6
:103C40008F2D90E0FC01EE0FFF1FE555F94E11831B
:103C500000830115110509F464C0880F991FFC0148
:103C6000E95FFD4F80819181D8018D939C938C2DCC
:103C700090E0880F991F880F991F41D71C0186E09B
:103C800090E03DD77C014C2DB10178D5F801F5824B
:103C9000E4828A2D90E0880F991F880F991F2FD7F3
:103CA0001C0186E090E02BD77C014A2DB10166D53E
:103CB000D8011396FC92EE92129717969C928E92D0
:103CC0001697FFB6F894ED91FC9111973697808185
:103CD000826080838D909C90C301B2013DD620E02C
:103CE00030E040E051E49DD69B01AC0160E074E21D
:103CF00084E79BE4C6D520E030E040E85FE35AD596
:103D0000C6DAF40132976083D801ED91FC911197E6
:103D1000359788E98083ED91FC91349786E0808324
:103D2000FFBEC801DF91CF911F910F91FF90EF90DF
:103D3000CF90AF909F908F907F906F905F904F90BB
:103D40003F902F900895CF93DF93DC01892B01F1F1
:103D50001296ED91FC911397938182812581981B96
:103D6000922384819817B1F0838126952823C081FE
:103D7000D181C20FD11D68838F5F95818923838391
:103D8000ED91FC91359780818062808380E003C053
:103D900081E001C082E0DF91CF910895EF92FF9220
:103DA0000F931F93CF93DF937C01009709F441C0D9
:103DB000DC011296ED91FC91139793818281981BFF
:103DC000858198238481891B8617A8F1662341F198
:103DD000842F952FDC016150462F50E04F5F5F4FDD
:103DE000480F591FE701EA81FB8193818281258178
:103DF000981B92238481981779F08C919381269552
:103E00002923608171818B01020F111DE8018883D4
:103E10009F5F8581982393831196A417B50711F7A7
:103E2000D701ED91FC91359780818062808380E09D
:103E300003C081E001C082E0DF91CF911F910F911B
:103E4000FF90EF9008950097D1F0DC011496ED916A
:103E5000FC91159793818281981799F092818581C1
:103E600086958923A081B181A80FB11D8C91DB01BA
:103E70008C939F5F85819823928380E0089581E0F1
:103E8000089583E008951F920F920FB60F921124A8
:103E90000BB60F922F933F934F935F936F937F9344
:103EA0008F939F93AF93BF93CF93DF93EF93FF9342
:103EB000A091AB16B091AC16109711F16091C600AD
:103EC0001496ED91FC911597938182812581981B21
:103ED00092238481981761F0838126952823C081DD
:103EE000D181C20FD11D68838F5F95818923838320
:103EF0001696ED91FC911797309711F0CD01199519
:103F0000FF91EF91DF91CF91BF91AF919F918F91F1
:103F10007F916F915F914F913F912F910F900BBEC9
:103F20000F900FBE0F901F9018951F920F920FB613
:103F30000F9211240BB60F922F938F939F93AF93F1
:103F4000BF93EF93FF93E091AB16F091AC163097CF
:103F5000B9F00280F381E02D938182819817B1F04E
:103F600092818581282F26952923A081B181A20FD6
:103F7000B11D2C919F5F892382832093C6000BC0C3
:103F8000E1ECF0E080818F7D808305C0E1ECF0E022
:103F900080818F7D8083FF91EF91BF91AF919F9141
:103FA0008F912F910F900BBE0F900FBE0F901F900F
:103FB00018951F920F920FB60F9211240BB60F9205
:103FC0002F933F934F935F936F937F938F939F9321
:103FD000AF93BF93CF93DF93EF93FF93A091AD1671
:103FE000B091AE16109711F16091CE001496ED913C
:103FF000FC911597938182812581981B922384815E
:10400000981761F0838126952823C081D181C20F42
:10401000D11D68838F5F9581892383831696ED91E7
:10402000FC911797309711F0CD011995FF91EF9101
:10403000DF91CF91BF91AF919F918F917F916F91C0
:104040005F914F913F912F910F900BBE0F900FBE3C
:104050000F901F9018951F920F920FB60F92112478
:104060000BB60F922F938F939F93AF93BF93EF93C2
:10407000FF93E091AD16F091AE163097B9F0028043
:10408000F381E02D938182819817B1F0928185812F
:10409000282F26952923A081B181A20FB11D2C9133
:1040A0009F5F892382832093CE000BC0E9ECF0E070
:1040B00080818F7D808305C0E9ECF0E080818F7D79
:1040C0008083FF91EF91BF91AF919F918F912F913D
:1040D0000F900BBE0F900FBE0F901F9018951F9260
:1040E0000F920FB60F9211240BB60F922F933F939E
:1040F0004F935F936F937F938F939F93AF93BF93F0
:10410000CF93DF93EF93FF93A091AF16B091B016CA
:10411000109711F16091D6001496ED91FC911597CE
:10412000938182812581981B92238481981761F065
:10413000838126952823C081D181C20FD11D688338
:104140008F5F9581892383831696ED91FC91179754
:10415000309711F0CD011995FF91EF91DF91CF913B
:10416000BF91AF919F918F917F916F915F914F918F
:104170003F912F910F900BBE0F900FBE0F901F908D
:1041800018951F920F920FB60F9211240BB60F9233
:104190002F938F939F93AF93BF93EF93FF93E091F0
:1041A000AF16F091B0163097B9F00280F381E02D90
:1041B000938182819817B1F092818581282F26956D
:1041C0002923A081B181A20FB11D2C919F5F89236A
:1041D00082832093D6000BC0E1EDF0E080818F7DDB
:1041E000808305C0E1EDF0E080818F7D8083FF91C9
:1041F000EF91BF91AF919F918F912F910F900BBE37
:104200000F900FBE0F901F9018951F920F920FB630
:104210000F9211240BB60F922F933F934F935F93FE
:104220006F937F938F939F93AF93BF93CF93DF93BE
:10423000EF93FF93A091B116B091B216109711F1C0
:10424000609136011496ED91FC91159793818281CE
:104250002581981B92238481981761F0838126958C
:104260002823C081D181C20FD11D68838F5F9581C2
:10427000892383831696ED91FC911797309711F05F
:10428000CD011995FF91EF91DF91CF91BF91AF9142
:104290009F918F917F916F915F914F913F912F915E
:1042A0000F900BBE0F900FBE0F901F9018951F928E
:1042B0000F920FB60F9211240BB60F922F938F937C
:1042C0009F93AF93BF93EF93FF93E091B116F0915B
:1042D000B2163097B9F00280F381E02D938182818C
:1042E0009817B1F092818581282F26952923A081E6
:1042F000B181A20FB11D2C919F5F892382832093EE
:1043000036010BC0E1E3F1E080818F7D808305C041
:10431000E1E3F1E080818F7D8083FF91EF91BF9198
:10432000AF919F918F912F910F900BBE0F900FBE69
:104330000F901F901895CF93DF931F92CDB7DEB7E4
:10434000BE016F5F7F4F8091B3169091B4167BDDF5
:104350008111F6CF898190E00F90DF91CF91089580
:10436000682F8091B3169091B416EDDC80E090E058
:1043700008958F929F92AF92CF92EF920F93812CDC
:10438000912C6894AA24A7F86894CC24C7F8E12C4F
:1043900000E023E040E051EE60E070E038DC909314
:1043A000B4168093B316E1EEF6E18FE092E09183CC
:1043B0008083938382830F91EF90CF90AF909F90F3
:1043C0008F90089590E0FC01EE0FFF1FE80FF91F9A
:1043D000EE0FFF1FEB54F94E238121111FC09C01EA
:1043E000220F331FF901E80FF91FEE0FFF1FEB54E7
:1043F000F94EA081B1814C91F901E80FF91FEE0F40
:10440000FF1FEB54F94E81E090E0028002C0880F5C
:10441000991F0A94E2F7842B8C930895FC01EE0F08
:10442000FF1FDF01A80FB91FAA0FBB1FAB54B94E66
:104430000D90BC91A02D2C91E80FF91FEE0FFF1FDE
:10444000EB54F94E81E090E0028002C0880F991F82
:104450000A94E2F7809582238C93089590E0FC0102
:10446000EE0FFF1FE80FF91FEE0FFF1FEB54F94E81
:104470002381211120C09C01220F331FF901E80F75
:10448000F91FEE0FFF1FEB54F94EA081B1814C9143
:10449000F901E80FF91FEE0FFF1FEB54F94E81E011
:1044A00090E0028002C0880F991F0A94E2F780957D
:1044B00084238C930895FC01EE0FFF1FDF01A80FEA
:1044C000B91FAA0FBB1FAB54B94E0D90BC91A02DC4
:1044D0002C91E80FF91FEE0FFF1FEB54F94E81E00E
:1044E00090E0028002C0880F991F0A94E2F7822BA5
:1044F0008C930895CF93DF9390E0FC01EE0FFF1FA4
:10450000DF01A80FB91FAA0FBB1FAB54B94ECD9145
:10451000DC911197488121E030E012960C901297BF
:1045200002C0220F331F0A94E2F724272883FD01DB
:1045300081E08483DF91CF910895CF93DF9390E062
:10454000FC01EE0FFF1FDF01A80FB91FAA0FBB1F51
:10455000AB54B94ECD91DC911197488121E030E008
:1045600012960C90129702C0220F331F0A94E2F7A2
:1045700024272883FD0182E08483DF91CF91089571
:10458000282F30E0F901EE0FFF1FE20FF31FEE0FAF
:10459000FF1FEB54F94E93E0948360CF0895282FCA
:1045A00030E0F901EE0FFF1FE20FF31FEE0FFF1FC8
:1045B000EB54F94E94E0948305CF089590E0FC010C
:1045C000EE0FFF1FDF01A80FB91FAA0FBB1FAB54CF
:1045D000B94E26E015962C931597FD011482089587
:1045E00090E0FC01EE0FFF1FDF01A80FB91FAA0F1B
:1045F000BB1FAB54B94E15961C921597FD01148242
:1046000008951F920F920FB60F9211240BB60F92BE
:104610002F933F934F935F936F937F938F939F93CA
:10462000AF93BF93EF93FF93E091B9008E2F90E08B
:10463000FC013897E135F10508F075C08827E4588A
:10464000FF4F8F4F54C21092CD16E091CD1680913E
:10465000D016E81770F481E08E0F8093CD16F0E04D
:10466000EF52F94E80818093BB0085E88093BC00B7
:1046700072C084E98093BC008091CE169091CF16D1
:10468000DC011296ED91FC911397309709F463C009
:1046900020E040E050E064E019955DC0E091CD1667
:1046A00081E08E0F8093CD168091BB00F0E0EF5239
:1046B000F94E80838091B900803411F41092CD16A8
:1046C0002091CD1630E08091D01690E00197281708
:1046D000390724F485EC8093BC003DC085E88093C5
:1046E000BC0039C08091BB00E091CD16F0E0EF52E4
:1046F000F94E808384E98093BC008091CE1690911E
:10470000CF16DC011296ED91FC911397309719F1B9
:104710002091D01641ED56E165E019951CC085EA5F
:104720008093BC0018C08091B90080931D0284E082
:104730008093BC008091CE169091CF16DC0112962A
:10474000ED91FC911397309731F020E040E050E07C
:1047500060911D021995FF91EF91BF91AF919F91CB
:104760008F917F916F915F914F913F912F910F901A
:104770000BBE0F900FBE0F901F901895FC014111BA
:1047800001C0DED2842F90E09C01215031098223A8
:104790009323892B09F0D4D2413808F0D1D2128268
:1047A00013824483440F415045837183608380E0CA
:1047B00090E008955058BB27AA270ED021C112D1EE
:1047C00030F017D120F031F49F3F11F41EF407C1EF
:1047D0000EF4E095E7FBFDC0E92F0E94731978F312
:1047E000BA17620773078407950720F079F4A6F5D6
:1047F0000C9495190EF4E0950B2EBA2FA02D0B01F9
:10480000B90190010C01CA01A0011124FF27591B15
:1048100099F0593F50F4503E68F11A16F040A22F1B
:10482000232F342F4427585FF3CF4695379527958C
:10483000A795F0405395C9F77EF41F16BA0B620B8B
:10484000730B840BBAF09150A1F0FF0FBB1F661FD2
:10485000771F881FC2F70EC0BA0F621F731F841F15
:1048600048F4879577956795B795F7959E3F08F03B
:10487000B1CF9395880F08F09927EE0F97958795FC
:1048800008950DD0BDC0B5D048F0ACD038F021F4BB
:104890005F3F21F09EC051110C949619A0C00E9458
:1048A000731988F39923B9F35523A1F3951B550B7D
:1048B000BB27AA2762177307840738F09F5F5F4FF3
:1048C000220F331F441FAA1FA9F334D00E2E3AF033
:1048D000E0E831D091505040E695001CCAF72AD04C
:1048E000FE2F28D0660F771F881FBB1F261737079C
:1048F0004807AB07B0E809F0BB0B802DBF01FF27CD
:1049000093585F4F32F09E3F510570F062C00C9497
:1049100096195F3FE4F3983ED4F3869577956795B3
:10492000B795F7959F5FC9F7880F911D9695879565
:1049300097F90895E1E0660F771F881FBB1F621784
:1049400073078407BA0720F0621B730B840BBA0B42
:10495000EE1F88F7E0950895E89409C097FB3EF4B0
:1049600090958095709561957F4F8F4F9F4F9923BC
:10497000A9F0F92F96E9BB279395F695879577953A
:104980006795B795F111F8CFFAF4BB0F11F460FFFA
:104990001BC06F5F7F4F8F4F9F4F16C0882311F052
:1049A00096E911C0772321F09EE8872F762F05C066
:1049B000662371F096E8862F70E060E02AF09A9501
:1049C000660F771F881FDAF7880F9695879597F9F6
:1049D000089597F99F6780E870E060E008959FEF81
:1049E00080EC089500240A94161617061806090686
:1049F000089500240A941216130614060506089555
:104A0000092E0394000C11F4882352F0BB0F40F4DC
:104A1000BF2B11F460FF04C06F5F7F4F8F4F9F4F1C
:104A200008950CD0EDCFDEDF28F0E3DF18F09523FA
:104A300009F0CFCFD4CF11240C9496190E9473198A
:104A400090F3959FC1F3950F50E0551F629FF001C1
:104A5000729FBB27F00DB11D639FAA27F00DB11DFA
:104A6000AA1F649F6627B00DA11D661F829F222783
:104A7000B00DA11D621F739FB00DA11D621F839F0A
:104A8000A00D611D221F749F3327A00D611D231FE0
:104A9000849F600D211D822F762F6A2F11249F572E
:104AA000504092F0E9F088234AF0EE0FFF1FBB1F41
:104AB000661F771F881F91505040A9F79E3F5105F0
:104AC00078F087CF0C9496195F3FE4F3983ED4F3C7
:104AD000869577956795B795F795E7959F5FC1F7A9
:104AE000FE2B880F911D9695879597F90895EE0FE7
:104AF000FF1F881F8BBF0790F691E02D19940F932D
:104B00001F93CF93DF938230910510F482E090E001
:104B1000E091DF16F091E01620E030E0A0E0B0E098
:104B2000309719F14081518102811381481759074B
:104B3000C8F08417950769F4109731F012960C931A
:104B4000129713961C9327C00093DF161093E0165C
:104B500022C02115310519F04217530718F49A01A4
:104B6000BD01EF01DF01F801DBCF21153105F9F0BF
:104B7000281B390B2430310580F48A819B81611513
:104B8000710521F0FB019383828304C09093E016AA
:104B90008093DF16FE01329644C0FE01E20FF31F40
:104BA0008193919322503109398328833AC020910F
:104BB000DD163091DE16232B41F420910202309154
:104BC00003023093DE162093DD162091000230910F
:104BD00001022115310541F42DB73EB74091040281
:104BE00050910502241B350BE091DD16F091DE1685
:104BF000E217F307A0F42E1B3F0B2817390778F0B4
:104C0000AC014E5F5F4F2417350748F04E0F5F1F12
:104C10005093DE164093DD168193919302C0E0E03D
:104C2000F0E0CF01DF91CF911F910F910895CF93C5
:104C3000DF93009709F481C0FC013297138212823E
:104C4000A091DF16B091E016109781F42081318198
:104C5000820F931F2091DD163091DE162817390739
:104C600051F5F093DE16E093DD1667C0ED0120E00C
:104C700030E0CE17DF0740F44A815B819E01411589
:104C80005105F1F0EA01F5CFD383C2834081518110
:104C9000840F951FC817D90759F488819981840F0B
:104CA000951F0296918380838A819B81938382835F
:104CB0002115310529F4F093E016E093DF163DC08D
:104CC000E901FB83EA8349915991C40FD51FEC1781
:104CD000FD0761F480819181840F951F0296E9019F
:104CE00099838883828193819B838A83E0E0F0E0CB
:104CF00012968D919C911397009719F0FD01DC019C
:104D0000F7CF8D919C9111979D012E5F3F4F820FA0
:104D1000931F2091DD163091DE162817390769F4AC
:104D2000309729F41092E0161092DF1602C0138219
:104D30001282B093DE16A093DD16DF91CF91089515
:104D400081E090E0F8947DC3FB01DC0102C001909A
:104D50000D9241505040D8F70895DC0101C06D9389
:104D600041505040E0F70895FB0151915523B1F0B7
:104D7000BF01DC01052E4D91442369F010D0D9F715
:104D8000CD010190002049F04D91411108D0C9F3A7
:104D9000FB014111EECF81E090E00197089540259D
:104DA00039F0403229F440294B57465E08F01894F8
:104DB0000895FB01DC010D900020E9F711970190A7
:104DC0000D920020E1F70895FB01DC0101900D92A6
:104DD0000020E1F70895FB01DC014150504088F0CC
:104DE0008D9181341CF08B350CF4805E61916134BF
:104DF0001CF06B350CF4605E861B611171F3990B2E
:104E00000895881BFCCFCF93DF93CDB7DEB7AE01FB
:104E10004A5F5F4FFA0161917191AF018091E31692
:104E20009091E41661D0DF91CF9108950F931F9375
:104E3000CF93DF93E091E316F091E416238121FFF5
:104E40001BC08C01D0E0C0E0F80181918F0160911E
:104E5000E3167091E416DB011896ED91FC91199719
:104E6000882331F01995892B79F3DFEFCFEFECCF61
:104E70008AE01995892B19F08FEF9FEF02C08D2FD3
:104E80009C2FDF91CF911F910F9108950F931F9346
:104E9000CF93DF93CDB7DEB72E970FB6F894DEBF72
:104EA0000FBECDBF0E891F8986E08C831A830983CC
:104EB0008FEF9FE79E838D83AE01465E5F4F688DC7
:104EC000798DCE01019610D0EF81F885E00FF11FAA
:104ED00010822E960FB6F894DEBF0FBECDBFDF91C5
:104EE000CF911F910F9108952F923F924F925F9211
:104EF0006F927F928F929F92AF92BF92CF92DF92EA
:104F0000EF92FF920F931F93CF93DF93CDB7DEB74E
:104F10002B970FB6F894DEBF0FBECDBF6C017B019F
:104F20008A01FC0117821682838181FFBFC1CE01F5
:104F300001963C01F6019381F70193FD859193FF62
:104F400081917F01882309F4ADC1853239F493FD45
:104F5000859193FF81917F01853221F4B60190E024
:104F6000D6D1E8CF912C212C312CFFE1F315D8F0CC
:104F70008B3279F038F4803279F08332A1F4232D2A
:104F800020611DC08D3261F0803369F4232D2160D2
:104F900016C0832D8260382EE32DE4603E2E2AC099
:104FA000F32DF8601DC037FC2DC020ED280F2A30EE
:104FB00040F08E32B9F436FC75C1232D2064322EB8
:104FC00019C036FE06C08AE0989E200D1124922E4C
:104FD00011C0EAE02E9E200D1124222EF32DF06246
:104FE0003F2E08C08C3621F4832D8068382E02C0F5
:104FF000883641F4F70193FD859193FF81917F01FC
:105000008111B3CF982F9F7D9554933028F40C5F76
:105010001F4F9FE399830DC0833631F0833771F0C2
:10502000833509F055C020C0F801808189830E5F67
:105030001F4F88248394912C530112C02801F2E061
:105040004F0E511CF801A080B18036FE03C0692DBF
:1050500070E002C06FEF7FEFC5014ED14C018201BD
:10506000F32DFF773F2E15C0280122E0420E511C80
:10507000F801A080B18036FE03C0692D70E002C047
:105080006FEF7FEFC5012DD14C01F32DF0683F2E5E
:10509000820133FC19C0822D90E088169906A0F495
:1050A000B60180E290E033D12A94F5CFF50137FCC8
:1050B000859137FE81915F01B60190E028D12110E2
:1050C0002A9421E0821A91088114910479F7E1C0B1
:1050D000843611F0893639F5F80137FE07C0608152
:1050E0007181828193810C5F1F4F08C06081718143
:1050F000072E000C880B990B0E5F1F4FF32DFF76C8
:105100003F2E97FF09C090958095709561957F4FD0
:105110008F4F9F4FF0683F2E2AE030E0A30133D13C
:10512000882E861844C0853731F4232D2F7EB22E69
:105130002AE030E025C0932D997FB92E8F36C1F03B
:1051400018F4883579F0AEC0803719F0883721F02F
:10515000A9C0E92FE061BE2EB4FE0DC0FB2DF460A6
:10516000BF2E09C034FE0AC0292F2660B22E06C009
:1051700028E030E005C020E130E002C020E132E06C
:10518000F801B7FE07C060817181828193810C5F55
:105190001F4F06C06081718180E090E00E5F1F4F5D
:1051A000A301F1D0882E8618FB2DFF773F2E36FE07
:1051B0000DC0232D2E7FA22E891458F434FE0BC06F
:1051C00032FC09C0832D8E7EA82E05C0B82CA32CDE
:1051D00003C0B82C01C0B92CA4FE0FC0FE01E80D1D
:1051E000F11D8081803321F49A2D997EA92E09C06A
:1051F000A2FE06C0B394B39404C08A2D867809F049
:10520000B394A3FC10C0A0FE06C0B21480F4280C16
:10521000922C9B180DC0B21458F4B60180E290E0B5
:1052200076D0B394F8CFB21418F42B1802C0982C8F
:10523000212CA4FE0FC0B60180E390E068D0A2FE4E
:1052400016C0A1FC03C088E790E002C088E590E0AA
:10525000B6010CC08A2D867851F0A1FE02C08BE207
:1052600001C080E2A7FC8DE2B60190E050D0891425
:1052700030F4B60180E390E04AD09A94F8CF8A9453
:10528000F301E80DF11D8081B60190E040D081105E
:10529000F6CF222009F44ECEB60180E290E037D05E
:1052A0002A94F7CFF6018681978102C08FEF9FEF96
:1052B0002B960FB6F894DEBF0FBECDBFDF91CF9116
:1052C0001F910F91FF90EF90DF90CF90BF90AF9024
:1052D0009F908F907F906F905F904F903F902F9016
:1052E0000895FC010590615070400110D8F7809539
:1052F00090958E0F9F1F0895FC01615070400190A2
:105300000110D8F7809590958E0F9F1F08950F93E9
:105310001F93CF93DF93FB01238121FD03C08FEF08
:105320009FEF2CC022FF16C0468157812481358112
:105330004217530744F4A081B1819D012F5F3F4F75
:10534000318320838C93268137812F5F3F4F3783B2
:10535000268314C08B01EC01FB010084F185E02D54
:105360001995892BE1F6D80116968D919C91179786
:10537000019617969C938E931697CE01DF91CF914D
:105380001F910F910895FA01AA27283051F1203179
:1053900081F1E8946F936E7F6E5F7F4F8F4F9F4FC9
:1053A000AF4FB1E03ED0B4E03CD0670F781F891F0B
:1053B0009A1FA11D680F791F8A1F911DA11D6A0FD9
:1053C000711D811D911DA11D20D009F468943F918C
:1053D0002AE0269F11243019305D3193DEF6CF018B
:1053E0000895462F4770405D4193B3E00FD0C9F751
:1053F000F6CF462F4F70405D4A3318F0495D31FDBE
:105400004052419302D0A9F7EACFB4E0A695979510
:10541000879577956795BA95C9F7009761057105E6
:1054200008959B01AC010A2E069457954795379530
:105430002795BA95C9F7620F731F841F951FA01D8A
:065440000895F894FFCF6F
:105446000000E716200009C600CE00D6003601008F
:1054560000000300000000B0219B210000F8A027F7
:10546600BE33E034C1332042C43360E5AE33A0F22C
:10547600B133E0FFB433200DB833601ABB3349446F
:105486004C4500546D7220537663005461736B3142
:10549600005461736B320050726F6772616D2053F6
:1054A600746172746564212100466163746F727958
:1054B6005265736574203E25733C0A00436F6E6621
:1054C600696775726520746F204555383638203EF9
:1054D60025733C0A00476574204857455549203EC8
:1054E60025733C3A2025730A00536574204465767B
:1054F6004555493A202573203E25733C0A00443918
:1055060035314443383741393238453730423143F3
:105516003245444431313645383733353246003228
:10552600453230353534454530424537323635001B
:10553600536574204F544141204964656E74697403
:1055460079206170704555493A2573206170704B1A
:1055560045593A2573206465764555493A257320A1
:105566003E25733C0A0053617665206D6163203EDB
:1055760025733C0A00536574204164617074697632
:1055860065204461746120526174653A204F4E2053
:105596003E25733C0A00536574205265636569763F
:1055A60065722044656C61793A202564206D73200C
:1055B6003E25733C0A004A6F696E204E6574776F0C
:1055C600726B2054726965734C6566743A25642063
:1055D6003E25733C0A006B6F6D6D657220766920FF
:1055E6006865722069206C6F72612068616E646CF8
:1055F6006572207461736B3F0055706C6F61642037
:105606004D657373616765203E25733C0A004C52F5
:1056160048616E6400737973207265736574006DFA
:105626006163207061757365006D616320726573D7
:10563600756D650073797320666163746F72795254
:105646004553455400737973206765742068776500
:105656007569006D6163206765742067776E620007
:105666006D616320736574206C696E6B63686B2073
:105676002564006D616320736574206465766575C5
:1056860069006D616320736574206170706575696A
:10569600006D616320736574206170706B657900BD
:1056A6006D616320736574206E776B736B6579002B
:1056B6006D61632073657420617070736B6579002A
:1056C6006D6163207365742064657661646472003D
:1056D6006D61632073617665006D6163206A6F6931
:1056E6006E00756E636E66006D61632074782025AA
:1056F60073202564202573006F6666006D61632044
:1057060073657420616472006D616320676574203F
:10571600616472006D616320736574206472202574
:1057260064006D616320676574206472006D616357
:105736002073657420727864656C61793120256404
:10574600006D616320736574206172202573006D9E
:1057560061632067657420617200332038363935FD
:105766003235303030006D61632073657420727895
:1057760032006D6163207365742063682064637909
:10578600636C6520256420373939006D61632073A9
:105796006574206368206672657120256420256C17
:1057A60075006D616320736574206368206472728E
:1057B600616E676520256420302037006D616320A7
:1057C600736574206368207374617475732025642F
:1057D600206F6E006D616320736574207077726947
:1057E60064782031006D616320736574207265747E
:1057F600782037006F74616100616270004B455913
:10580600535F4E4F545F494E4954004E4F5F4652C8
:1058160045455F43480053494C454E540042555355
:1058260059004D41435F5041555345440044454E50
:1058360049454400414343455054454400494E566A
:10584600414C49445F504152414D004E4F545F4ACE
:105856004F494E454400494E56414C49445F4441E8
:1058660054415F4C454E004652414D455F434F55AE
:105876004E5445525F4552525F52454A4F494E5F1C
:105886004E4545444544004D41435F54585F4F4B98
:10589600004D41435F5258004D41435F4552524FC0
:1058A6005200554E4B4E4F574E00B405B905004EAB
:1058B60006015C0602BD0503CB0504D60505DD051C
:1058C60006E20507ED0508F40509FD050A0B060BBA
:1058D60016060C27060D47060E51060F58061062CF
:0258E6000600BA
:00000001FF
