S01300003453656D657374657256322E737265630D
S1130000E4C0000003C1000001C10000FFC0000003
S1130010FDC00000FBC00000F9C00000F7C00000F4
S1130020F5C00000F3C00000F1C00000EFC0000004
S1130030D9C30000EBC00000E9C00000E7C0000025
S1130040E5C00000E3C00000E1C00000DFC0000024
S1130050DDC00000DBC00000D9C00000D7C0000034
S1130060D5C000000C941A150C946C15CFC0000078
S1130070CDC00000CBC00000C9C00000C7C0000054
S1130080C5C00000C3C00000C1C00000BFC0000064
S11300900C94B0150C940216B9C000000C949A1874
S11300A0B5C00000B3C00000B1C00000AFC0000084
S11300B0ADC00000ABC00000A9C00000A7C0000094
S11300C0A5C00000A3C00000A1C000000C94461607
S11300D00C9498169BC000000C94DC160C942E17FC
S11300E095C000000612061206123D1245125A125D
S11300F0061206123D124512BC182C192C192C1983
S11301002C192C192C192C19BC182C192C192C1934
S11301102C192C192C192C19BE182C192C192C1922
S11301202C192C192C192C192C192C192C192C19A3
S11301302C192C192C192C19BE182C192C192C1902
S11301402C192C192C192C192C192C192C192C1983
S11301502C192C192C192C1928192C192C192C1977
S11301602C192C192C192C19F3182C192C192C199D
S11301702C192C192C192C192C192C192C192C1953
S11301802C192C192C192C19E7182C192C192C1989
S11301902C192C192C192C190B19F0D78091DB1060
S11301A0823008F05AD20E948312F7CFCF93DF93A4
S11301B01F92CDB7DEB7CE0101960E94890F498107
S11301C00E947C110E94CF11F6CF11241FBECFEFE5
S11301D0D1E2DEBFCDBF00E00CBF12E0A0E0B2E090
S11301E0E2EBFEE300E00BBF02C007900D92AE3CD1
S11301F0B107D9F721E1AEECB2E001C01D92AB39F1
S1130200B207E1F70E940C130C94571FF9CEEAEDE4
S1130210F2E0AEEDB2E0B183A08313821282E6E88D
S1130220F0E1F093D902E093D80213821282118292
S1130230108288EA9DE013969C938E931297ED9317
S1130240FC939093D5028093D4029093D702809329
S1130250D60280E090E89093CF028093CE02089576
S1130260CF93DF93EC01AAEDB2E001C0DF01ED9181
S1130270FC911197EC17FD07C8F312968D919C9190
S113028013979D01280F391FC217D30749F42A81F8
S11302903B81820F931F13969C938E931297ED01CB
S11302A08A819B819E01280F391FE217F307C1F44D
S11302B02091D8023091D902E217F30771F022811C
S11302C03381820F931F9B838A83ED91FC91119755
S11302D0808191819983888305C03983288302C0F2
S11302E0F983E883CA17DB0711F0CD93DC93DF9120
S11302F0CF910895EF92FF920F931F93CF93DF93C3
S11303008C010E94020A8091D8029091D902892B13
S113031009F47DDF8091CE029091CF028023912356
S1130320892B09F076C00115110549F0C80104961E
S11303300817190718F000E010E001C08C0101153E
S1130340110509F469C08091D6029091D7028017F3
S1130350910708F464C0C091DA02D091DB02EAED9F
S1130360F2E002C0FE01EC018A819B8180179107B3
S113037020F4888199810097A9F78091D8029091FF
S1130380D902C817D90709F44DC0E080F18084E090
S1130390E80EF11C88819981918380832A813B81B5
S11303A0201B310B2930310548F0CE01800F911FFD
S11303B0FC01338322831B830A8352DF2A813B811E
S11303C08091D6029091D702821B930B9093D7020F
S11303D08093D6024091D4025091D5028417950798
S11303E020F49093D5028093D4028091CE02909110
S11303F0CF02282B392B3B832A83198218828091C0
S1130400D2029091D30201969093D3028093D202A8
S11304100BC0E12CF12C08C0E12CF12C05C0E12C1F
S1130420F12C02C0E12CF12C0E94420BE114F104E6
S113043011F40E948F12C701DF91CF911F910F9188
S1130440FF90EF9008950F931F93CF93DF9300973E
S113045089F1EC0124974A815B812091CE0230918D
S1130460CF02BA0162237323672B21F1688179815A
S1130470672B01F520953095242335233B832A836C
S1130480C1D78A819B812091D6023091D702820FF5
S1130490931F9093D7028093D602CE01E1DE809120
S11304A0D0029091D10201969093D1028093D00210
S11304B00E94420BDF91CF911F910F910895FC018F
S11304C00396928381834FEF5FEFBA014383548392
S11304D065837683908787839287818710820895C6
S11304E0FC011386128608950F931F93CF93DF9315
S11304F0EB01088119812A813B810F3F4FEF1407DB
S11305002407340721F4FC01A185B28511C0DC0164
S1130510139601C0DF011496ED91FC91159740816B
S1130520518162817381041715072607370790F7F5
S11305301496ED91FC911597FD83EC83D783C683C4
S1130540BF83AE831596DC93CE9314979B878A87DB
S1130550FC0120812F5F2083DF91CF911F910F91A8
S11305600895CF93DF93FC01A285B385C481D5811F
S1130570868197819F838E83C681D781848195816B
S11305809D838C8311968D919C911297E817F9079E
S113059031F48681978112969C938E9311971386DA
S11305A012868C9181508C938C91DF91CF91089518
S11305B0A89590EC88E10FB6F894A8958093600014
S11305C00FBE909360000895FC016083319770839F
S11305D03197108231971082319720E82083319728
S11305E01082319710823197108277974083319728
S11305F0508386970895DCDFA0914911B0914A1188
S1130600CD91CDBFDD91DEBFFF91EF91DF91CF9111
S1130610BF91AF919F918F917F916F915F914F9116
S11306203F912F911F910F91FF90EF90DF90CF900A
S1130630BF90AF909F908F907F906F905F904F90FE
S11306403F902F901F900F900CBE0F900BBE0F90F9
S11306500FBE0F90089581E008950F920FB6F8949D
S11306600F920BB60F920CB60F921F9211242F9279
S11306703F924F925F926F927F928F929F92AF922E
S1130680BF92CF92DF92EF92FF920F931F932F931B
S11306903F934F935F936F937F938F939F93AF9306
S11306A0BF93CF93DF93EF93FF93A0914911B09140
S11306B04A110DB60D920EB60D920E94390CA091FE
S11306C04911B0914A11CD91CDBFDD91DEBFFF91AB
S11306D0EF91DF91CF91BF91AF919F918F917F91D6
S11306E06F915F914F913F912F911F910F91FF90C7
S11306F0EF90DF90CF90BF90AF909F908F907F90BE
S11307006F905F904F903F902F901F900F900CBE72
S11307100F900BBE0F900FBE0F9008950F920FB65F
S1130720F8940F920BB60F920CB60F921F921124ED
S11307302F923F924F925F926F927F928F929F92ED
S1130740AF92BF92CF92DF92EF92FF920F931F93DB
S11307502F933F934F935F936F937F938F939F93C5
S1130760AF93BF93CF93DF93EF93FF93A09149117E
S1130770B0914A110DB60D920EB60D9213BE56D617
S113078081110E94390CA0914911B0914A11CD9167
S1130790CDBFDD91DEBFFF91EF91DF91CF91BF918E
S11307A0AF919F918F917F916F915F914F913F9105
S11307B02F911F910F91FF90EF90DF90CF90BF90FA
S11307C0AF909F908F907F906F905F904F903F90ED
S11307D02F901F900F900CBE0F900BBE0F900FBE6A
S11307E00F9008959BDF1895DC0153962C91539735
S11307F0222341F05A96ED91FC915B9790818AE017
S1130800891B089580E008950FB6F8940F92FC01B7
S1130810868D811102C081E001C080E00F900FBE7F
S113082008950FB6F8940F92FC01268D878D281336
S113083002C081E001C080E00F900FBE08950F93C5
S11308401F93CF93DF93EC01042F1E8D48A1411118
S11308500CC088819981892B09F042C08C819D81CB
S11308600E94B50E1D821C8242C0011117C050E0C7
S11308708A819B810E94571C28A18A819B81820FB7
S1130880911D9B838A832C813D818217930750F1AC
S1130890888199819B838A8380E029C050E08E817E
S11308A09F810E94571C88A190E0919581959109A0
S11308B02E813F81280F391F3F832E834881598120
S11308C02417350730F42C813D81820F931F9F83B9
S11308D08E83023049F4112349F0115080E007C09F
S11308E080E005C080E003C080E001C080E01F5FBD
S11308F01E8FDF91CF911F910F910895FC0140A1AC
S11309004423A9F050E026813781240F351F378313
S11309102683848195812817390720F0808191816D
S113092097838683CB01668177810C94571C089545
S11309301F93CF93DF93EC010FB6F8940F921AA193
S11309400BC08B89882351F0CE0143960E94F60C8C
S113095081110E941C0E115011169CF38FEF8AA373
S11309600F900FBE0FB6F8940F9219A10BC0888593
S1130970882351F0CE0108960E94F60C81110E9442
S11309801C0E115011169CF38FEF89A30F900FBE0C
S1130990DF91CF911F910895CF93DF93EC010FB6B0
S11309A0F8940F92E881F9818F8D28A190E030E0CE
S11309B0829FA001839F500D929F500D11244E0FD2
S11309C05F1F5D834C831E8EFB83EA830197289F00
S11309D0A001299F500D389F500D1124CF01840F81
S11309E0951F9F838E838FEF89A38AA361110AC009
S11309F08885882369F0CE010896F8D7882341F0CA
S1130A002CDE06C0CE0108965ADDCE01439657DD92
S1130A100F900FBE81E0DF91CF9108950F931F9344
S1130A20F801611103C01183008302C05183408324
S1130A30878F60A361E0CF01AFDF1F910F9108950D
S1130A40DF92EF92FF920F931F93CF93DF93F82ED1
S1130A50E62ED42E869FC001112483964BDCEC0134
S1130A60009741F08C012D2DAC014D5D5F4F6E2D33
S1130A708F2DD4DFCE01DF91CF911F910F91FF9085
S1130A80EF90DF900895CF92DF92EF92FF920F9351
S1130A901F93CF93DF93CDB7DEB729970FB6F894A2
S1130AA0DEBF0FBECDBF7C016B012E833F83488721
S1130AB0598710E00FB6F8940F92F701968D878D41
S1130AC0981710F00230A9F4402FB601C701B7DE21
S1130AD0F7019389992339F0C701439687D788236F
S1130AE021F0BBDD02C08111B8DD0F900FBE81E0A3
S1130AF048C08E819F81A885B985892B8A2B8B2B31
S1130B0021F40F900FBE80E03CC0111105C0CE014E
S1130B1001960E94A50D11E00F900FBE73D40FB67D
S1130B20F8940F92F70181A18F3F09F411A2F70104
S1130B3082A18F3F09F412A20F900FBEBE016A5F1B
S1130B407F4FCE0101960E94B60D811116C0C701D8
S1130B5068DE882371F04E815F8168857985C701DD
S1130B600896EBD6C701E4DE8DD58111A3CF75DDE0
S1130B70A1CFC701DDDE86D59DCFC701D9DE82D5E1
S1130B8080E029960FB6F894DEBF0FBECDBFDF918B
S1130B90CF911F910F91FF90EF90DF90CF90089528
S1130BA00F93009769F0FC01158214821182108260
S1130BB0168200E020E030E0A90160E070E063DF2D
S1130BC00F910895CF93DF93482F60E081E038DFE1
S1130BD0EC01E6DFCE01DF91CF910895EF92FF9211
S1130BE00F931F93CF93DF938A01FC01568D378DAA
S1130BF0531710F02230F1F4422F7801EC011AA1BE
S1130C008E8DCE011CDE1F3F79F48B898823A1F0E1
S1130C10CE014396EBD6882389F0E114F10481F0E8
S1130C2081E0F70180830DC0FF24F394F10EFAA252
S1130C3081E007C080E005C081E003C081E001C01D
S1130C4081E0DF91CF911F910F91FF90EF90089574
S1130C50CF92DF92EF92FF920F931F93CF93DF9384
S1130C60CDB7DEB729970FB6F894DEBF0FBECDBF60
S1130C708C016B012E833F8348875987E12C0FB683
S1130C80F8940F92F801F68CFF2091F0B601C80198
S1130C9035DEFA94F801F68E8085882329F0C801A0
S1130CA00896A4D68111D9DC0F900FBE81E04CC008
S1130CB08E819F81A885B985892B8A2B8B2B21F462
S1130CC00F900FBE80E040C0E11005C0CE01019638
S1130CD03CD7EE24E3940F900FBE94D30FB6F89450
S1130CE00F92F80181A18F3F09F411A2F80182A1AA
S1130CF08F3F09F412A20F900FBEBE016A5F7F4FAF
S1130D00CE01019633D7811116C0C8017DDD882339
S1130D1071F04E815F8168857985C80143960DD64F
S1130D20C80106DEAFD48111AACF97DCA8CFC801D1
S1130D30FFDDA8D4A4CFC801FBDDA4D4C80164DDC1
S1130D40882309F49CCF80E029960FB6F894DEBF7F
S1130D500FBECDBFDF91CF911F910F91FF90EF9008
S1130D60DF90CF900895EF92FF920F931F93CF934C
S1130D70DF93CDB7DEB729970FB6F894DEBF0FBE69
S1130D80CDBF8C014E835F8368877987E12CF12C7A
S1130D900FB6F8940F92F801868D8823C1F0815024
S1130DA0868F80819181892B29F40E94770FF80125
S1130DB095838483F8018085882329F0C8010896E7
S1130DC015D681114ADC0F900FBE81E06AC08E8176
S1130DD09F81A885B985892B8A2B8B2B21F40F90B1
S1130DE00FBE80E05EC0F11005C0CE010196ADD605
S1130DF0FF24F3940F900FBE05D30FB6F8940F920F
S1130E00F80181A18F3F09F411A2F80182A18F3F5B
S1130E1009F412A20F900FBEBE016A5F7F4FCE018C
S1130E200196A4D6811124C0C801EEDC8823E1F028
S1130E30F80180819181892B49F40FB6F8940F92BF
S1130E40848195810BD7E82E0F900FBE4E815F8170
S1130E5068857985C801439670D5C80169DD12D4C7
S1130E60811196CFFADB94CFC80162DD0BD490CF09
S1130E70C8015EDD07D4C801C7DC882309F488CF24
S1130E80EE2071F00FB6F8940F92C801ADDC682F14
S1130E90F80184819581C4D70F900FBE80E001C012
S1130EA080E029960FB6F894DEBF0FBECDBFDF9168
S1130EB0CF911F910F91FF90EF900895CF93DF93FF
S1130EC0EC010FB6F8940F9289A18F3F09F419A28F
S1130ED08AA18F3F09F41AA20F900FBE8E8D811143
S1130EE003C0CE01439640D5CE0122DDDF91CF91E0
S1130EF00895E091C310F091C410808181110CC059
S1130F008FEF9FEFDC0180938D1090938E10A09350
S1130F108F10B09390100895E091C310F091C41015
S1130F200780F085E02D80819181A281B381809337
S1130F308D1090938E10A0938F10B09390100895FD
S1130F40CF93DF93EC018B8D9C8D7DDACE017BDA20
S1130F50DF91CF9108954F925F926F927F928F921B
S1130F609F92AF92BF92CF92DF92EF92FF920F9334
S1130F70CF93DF932C015B014A013901E60165EA55
S1130F8070E08B8D9C8D0E94601C8B8D9C8D21E06C
S1130F90821A9108880E991EA114B10489F415C00F
S1130FA0822F90E0F501E80FF91F3081DE01A80FD0
S1130FB0B91F5D963C938081882329F02F5F01C07F
S1130FC020E0203168F31CA601C01D8E0A3008F011
S1130FD009E00A8F0DA71EA6CE01029681DACE0182
S1130FE00E967EDADB87CA878AE090E0A0E0B0E064
S1130FF0801B9109A109B1098E879F87A88BB98BA2
S1131000DF8BCE8B84E0FE01BF96DF011D928A95B3
S1131010E9F71BAAA301B201C401D6DA9983888334
S1131020E114F10419F0F701D183C083DF91CF916A
S11310300F91FF90EF90DF90CF90BF90AF909F9073
S11310408F907F906F905F904F900895CF93C0E002
S113105008C02BE0C29FC001112485529F4E2FDA95
S1131060CF5FCA30B0F380ED90E129DA85EC90E1EE
S113107026DA86EB90E123DA8BEA90E120DA8FE935
S113108090E11DDA80ED90E19093C4108093C31039
S113109085EC90E19093C2108093C110CF91089594
S11310A0CF93DF93EC010FB6F8940F9280919E10CA
S11310B08F5F80939E108091491190914A11892BE2
S11310C051F4D0934A11C093491180919E108130FC
S11310D091F4BCDF10C08091981081110CC0E09194
S11310E04911F0914A11928D8A8D891720F0D0937D
S11310F04A11C0934911809191108F5F8093911090
S1131100EA8D809199108E1710F4E09399108BE07A
S11311108E9FF0011124E552FF4E0180F281E02DF3
S1131120FF83EE832681378139872887A681B7819B
S11311309E012E5F3F4F15963C932E931497378351
S11311402683EA8D8E9FF0011124E552FF4EFD8720
S1131150EC8780818F5F80830F900FBE8091981001
S1131160882349F0E0914911F0914A11928D8A8DBA
S1131170981708F472DADF91CF910895CF93DF9333
S11311801AC00FB6F8940F92E091B210F091B31018
S1131190C085D185CE010296E4D980919E108150FC
S11311A080939E108091AA1081508093AA100F9072
S11311B00FBECE01C5DE8091AA108111E2CFDF916E
S11311C0CF9108958F929F92AF92BF92CF92DF9268
S11311D0EF92FF92CF93DF936B017C01C42F809039
S11311E09A1090909B10A0909C10B0909D108091AC
S11311F0491190914A110296B4D98FEFC816D806B6
S1131200E806F806B1F5CC23A1F1EFE9F0E1A181FC
S1131210B281C0914911D0914A11BF83AE83C0916C
S11312204911D0914A1116968D919C9117979987DF
S113123088871696CD91DC911797809149119091EA
S11312404A1102969D838C838091491190914A1191
S1131250029617969C938E931697A0914911B0917C
S11312604A111D96FC93EE931C9780818F5F8083B7
S11312703DC0C80CD91CEA1CFB1CE0914911F0913B
S11312804A11C282D382E482F582C814D904EA04E2
S1131290FB0460F46091491170914A118091C1106E
S11312A09091C2106E5F7F4F1FD920C06091491189
S11312B070914A118091C3109091C4106E5F7F4F5A
S11312C013D980918D1090918E10A0918F10B091B0
S11312D09010C816D906EA06FB0640F4C0928D1099
S11312E0D0928E10E0928F10F0929010DF91CF91F7
S11312F0FF90EF90DF90CF90BF90AF909F908F9032
S113130008952F923F924F925F926F927F928F92A5
S11313109F92AF92BF92CF92DF92EF92FF920F9380
S1131320CF93DF933C011B014A012901CA010E94AA
S11313307A016C01892B69F084E390E00E947A01C0
S1131340EC01892B19F0DC8ECB8E05C0C6017BD84D
S113135002C0C0E0D0E0209761F0A12CB12C6E0156
S11313609201A401B101C301F6DDCE0199DE81E051
S113137001C08FEFDF91CF910F91FF90EF90DF903D
S1131380CF90BF90AF909F908F907F906F905F9021
S11313904F903F902F900895EF92FF920F930F2E4E
S11313A0FBE8EF2EF0E1FF2EF02D00E020E030E02E
S11313B040EC50E062E272E08DEC90E0A2DF81301C
S11313C009F431D68130C1F4F8948FEF9FEFDC013A
S11313D080938D1090938E10A0938F10B0939010E3
S11313E081E08093981010929A1010929B101092A2
S11313F09C1010929D10FFD8809106020F91FF90CF
S1131400EF90089580918A108F5F80938A100895D9
S11314100FB6F8940F9260919A1070919B1080917E
S11314209C1090919D100F900FBE0895CF92DF9263
S1131430EF92FF92CF93DF9380918A10811105C1BF
S1131440C0909A10D0909B10E0909C10F0909D104A
S11314508FEFC81AD80AE80AF80AC0929A10D092F4
S11314609B10E0929C10F0929D10C114D104E104F1
S1131470F104B1F48091C3109091C4102091C11073
S11314803091C2103093C4102093C3109093C210B3
S11314908093C110809192108F5F8093921029DD08
S11314A080918D1090918E10A0918F10B09190101A
S11314B0C816D906EA06FB0620F480E0B2C081E033
S11314C001C080E0E091C310F091C41090819111AB
S11314D00CC04FEF5FEFBA0140938D1050938E1004
S11314E060938F10709390109CC0E091C310F091A2
S11314F0C4100780F085E02D0084F185E02D428141
S1131500538164817581C416D506E606F70648F44E
S113151040938D1050938E1060938F1070939010A1
S113152080C0A485B585C681D781208531853F8358
S11315302E83C085D185268137813D832C831196E6
S11315404D915C9112979F012E5F3F4F42175307B5
S113155031F44085518512965C934E93119715860C
S113156014869C9191509C93A08DB18D109709F194
S1131570C289D389448955895F834E83C489D589B7
S1131580428953895D834C8311966D917C911297A6
S1131590AF01425F5F4F6417750731F44489558981
S11315A012965C934E931197118E108E9C919150CC
S11315B09C93A28D909199109A1710F4A09399106E
S11315C09BE09A9FD0011124A552BF4E11960D9015
S11315D0BC91A02DB783A68316964D915C91179765
S11315E0518740871696CD91DC9117973D832C83C4
S11315F017963C932E931697A28D9A9FD00111248F
S1131600A552BF4EB587A4879C919F5F9C93228D62
S1131610E0914911F0914A11928D291708F04FCFAA
S113162051CFE0914911F0914A11E28D9BE0E99F7D
S1131630F0011124E552FF4E9081923008F081E0D0
S113164090919310911116C016C0809194109091AE
S11316509510A0919610B09197100196A11DB11DFF
S11316608093941090939510A0939610B093971034
S113167080E001C081E0DF91CF91FF90EF90DF9097
S1131680CF900895CF92DF92EF92FF92CF93DF93A2
S11316900FB6F8940F9280918A10815080938A102B
S11316A080918A108111BEC080919E10811188C0E2
S11316B0BCC0E091BD10F091BE100084F185E02D16
S11316C0A08DB18DC289D389848995899F838E83A6
S11316D0C489D589828993899D838C8311962D91A0
S11316E03C911297CF010E962817390731F484895B
S11316F0958912969C938E931197118E108E8C91CE
S113170081508C93A485B585C681D78180859185C8
S11317109F838E83C085D185868197819D838C83A9
S113172011968D919C9112979F012E5F3F4F8217C6
S1131730930731F48085918512969C938E9311972B
S1131740158614868C9181508C93A28D809199106A
S11317508A1710F4A09399108BE08A9FD00111246A
S1131760A552BF4E11960D90BC91A02DB783A683B0
S113177016964D915C911797518740871696CD9197
S1131780DC9117973D832C8317963C932E931697E1
S1131790A28D8A9FD0011124A552BF4EB587A4877C
S11317A08C918F5F8C93928DA0914911B0914A11C5
S11317B05A968C91981730F081E08093931002C070
S11317C0E0E0F0E08091B610811173CFEF2B09F0C7
S11317D090DBC0909410D0909510E0909610F0900B
S11317E09710C114D104E104F104A1F01FDE882391
S11317F019F081E08093931081E0C81AD108E108C0
S1131800F108A1F71092941010929510109296106E
S11318101092971080919310882331F00E942D0329
S113182081E003C080E001C080E00F900FBEDF9133
S1131830CF91FF90EF90DF90CF900895CF92DF92F9
S1131840EF92FF926B017C01672B682B692B39F0B7
S1131850D9DD40E0C701B601B5DC14DF01C080E08A
S1131860811102C00E942D03FF90EF90DF90CF9072
S1131870089580918A10882321F081E08093931049
S1131880089510929310E0914911F0914A1120812A
S11318903181E0914911F0914A11838D948D821721
S11318A0930758F06091491170914A11635E7F4F1C
S11318B08091491190914A113ED68091991001C0AE
S11318C08150282F30E09BE0929FF001939FF00D10
S11318D01124E552FF4E9081992391F39BE0929F4E
S11318E0A001939F500D1124DF010180F281E02DAE
S11318F00480F581E02D1296FC93EE9311974252E9
S11319005F4EE417F50729F444815581FD015283A4
S113191041839BE0929FF001939FF00D1124E552C7
S1131920FF4E0180F281E02D2085318530934A11EC
S113193020934911809399100895CF92DF92EF92EA
S1131940FF926A017B016091491170914A11625FB3
S11319507F4F0E94740241E0C701B60133DCFF905F
S1131960EF90DF90CF900895CF93DF93FC01CB01EC
S1131970BA01A181B281C0914911D0914A11BB8BA6
S1131980AA8BC0914911D0914A1116964D915C9140
S113199017975D8B4C8B1696CD91DC9117974091E0
S11319A0491150914A11425F5F4F5D834C834091CE
S11319B0491150914A11425F5F4F17965C934E93C1
S11319C01697A0914911B0914A115996FC93EE9340
S11319D0589730813F5F3083222319F06FEF7FEFF8
S11319E0CB01422FEFDBDF91CF910895CF93DF93AB
S11319F0DC011796ED91FC9118970084F185E02D98
S1131A00A08DB18DC289D389848995899F838E8362
S1131A10C489D589828993899D838C8311968D91FC
S1131A209C9112979F01225F3F4F8217930731F4D5
S1131A308489958912969C938E931197118E108E9A
S1131A408C9181508C9380918A10811152C0A4850D
S1131A50B585C681D781808591859F838E83C08516
S1131A60D185868197819D838C8311968D919C91DC
S1131A7012979F012E5F3F4F8217930731F48085A1
S1131A80918512969C938E931197158614868C914A
S1131A9081508C93A28D809199108A1710F4A09391
S1131AA099108BE08A9FD0011124A552BF4E119644
S1131AB00D90BC91A02DB783A68316964D915C9191
S1131AC01797518740871696CD91DC9117973D83E0
S1131AD02C8317963C932E931697A28D8A9FD00140
S1131AE01124A552BF4EB587A4878C918F5F8C9328
S1131AF01CC046EB50E1DA011196CD91DC911297AE
S1131B00D38BC28B8E819F81958B848B8E819F8199
S1131B10DC0115963C932E9314973F832E83518FAB
S1131B20408FDA018C918F5F8C93928DE0914911F3
S1131B30F0914A11828D891720F481E080939310EB
S1131B4001C080E0DF91CF91089520919210FC01B3
S1131B50208340919A1050919B1060919C10709139
S1131B609D10418352836383748308958F929F925F
S1131B70AF92BF92CF92DF92EF92FF920F931F9397
S1131B80CF93DF93FB010FB6F8940F92C0909A1095
S1131B90D0909B10E0909C10F0909D10DC01119669
S1131BA00D911D912D913C91149746015701801A76
S1131BB0910AA20AB30A40815181628173814F3F25
S1131BC0BFEF5B076B077B0739F1EC01B881A0918C
S1131BD09210BA1759F0C016D106E206F30630F097
S1131BE0108211821282138281E017C08416950636
S1131BF0A606B70658F4481959096A097B094083AF
S1131C00518362837383A1DF80E007C01082118255
S1131C101282138281E001C080E00F900FBEDF9139
S1131C20CF911F910F91FF90EF90DF90CF90BF90D5
S1131C30AF909F908F90089581E0809393100895C2
S1131C4080919810882331F080918A10811104C00A
S1131C5082E0089581E0089580E008950F931F9332
S1131C60CF93DF93FC01892B09F477C0828DA09177
S1131C704911B0914A115A969C91891708F063C092
S1131C804685578560897189772394F0A09149111D
S1131C90B0914A115A969C914AE050E060E070E09D
S1131CA0491B51096109710946875787608B718BFC
S1131CB0248535854BE0849FC001112485529F4EB5
S1131CC028173907B9F5EF018F010E5F1F4FC801BF
S1131CD00E94B102E0914911F0914A11E28DEA8F1C
S1131CE0809199108E1710F4E09399108BE08E9FD9
S1131CF0F0011124E552FF4E0180F281E02DFF83B3
S1131D00EE832681378139872887A681B781159686
S1131D101C930E93149717830683EA8D8E9FF0010C
S1131D201124E552FF4EFD87EC8780818F5F80830D
S1131D3081E016C0A0914911B0914A115A968C9134
S1131D40828F81E00DC095A5E0914911F0914A116F
S1131D50828D981720F080E003C080E001C081E00C
S1131D60DF91CF911F910F9108950F931F93CF93FC
S1131D70DF93FC01892B09F449C086A5815086A70D
S1131D80228D95A5291709F443C0811143C0EF01A1
S1131D908F010E5F1F4FC8010E94B102EDA5EA8FAB
S1131DA08AE090E0A0E0B0E08E1B9109A109B1099E
S1131DB08E879F87A88BB98B809199108E1710F40A
S1131DC0E09399108BE08E9FF0011124E552FF4EB1
S1131DD00180F281E02DFF83EE83268137813987EC
S1131DE02887A681B78115961C930E9314971783A1
S1131DF00683EA8D8E9FF0011124E552FF4EFD8784
S1131E00EC8780818F5F808381E005C080E003C020
S1131E1080E001C080E0DF91CF911F910F91089580
S1131E200F931F93CF93DF93FC01892B09F45AC0BE
S1131E3085A5861708F4862F928D891709F452C058
S1131E4026A5213009F04EC0828F468557856089CA
S1131E507189772364F04AE050E060E070E0481B49
S1131E6051096109710946875787608B718B2485F5
S1131E7035854BE0949FC001112485529F4E28174D
S1131E80390781F5EF018F010E5F1F4FC8010E94D2
S1131E90B102EA8D809199108E1710F4E093991095
S1131EA08BE08E9FF0011124E552FF4E0180F281F8
S1131EB0E02DFF83EE832681378139872887A68129
S1131EC0B78115961C930E93149717830683EA8D96
S1131ED08E9FF0011124E552FF4EFD87EC8780812F
S1131EE08F5F8083DF91CF911F910F91089580912F
S1131EF0491190914A11892B39F0E0914911F091DF
S1131F004A1186A58F5F86A78091491190914A1145
S1131F100895DC01E0915511F0915611808191E012
S1131F20811190E09C93911108C00780F085E02D09
S1131F306081718182819381089560E070E0CB01BA
S1131F400895CF92DF92EF92FF920F931F93FC01BB
S1131F5042835383648375839387828704171507A9
S1131F6026073707C0F00C191D092E093F0986857D
S1131F709785A089B189081719072A073B0700F537
S1131F80BF016E5F7F4F80915311909154110E9455
S1131F90740280E018C00C151D052E053F0528F4B9
S1131FA04C155D056E057F0568F4BF016E5F7F4FBC
S1131FB080915511909156110E94740280E003C0E3
S1131FC081E001C081E01F910F91FF90EF90DF90BD
S1131FD0CF9008950FB6F8940F928091511190917B
S1131FE05211892BE9F482E691E10E945F0287E5B0
S1131FF091E10E945F0282E691E1909356118093F1
S1132000551187E591E1909354118093531140E069
S113201067E08AE00E942005909352118093511149
S11320200F900FBE0895EF92FF920F93D3DF80912C
S1132030511190915211892B89F00F2EFFE4EF2E4C
S1132040F1E1FF2EF02D03E020E030E040EC50E021
S113205067E272E086ED90E054D901C080E00F9110
S1132060FF90EF9008958F929F92AF92BF92CF927C
S1132070DF92EF92FF920F931F93CF93DF93CDB72D
S1132080DEB727970FB6F894DEBF0FBECDBFE09141
S11320905111F0915211309781F169832A833B8366
S11320A04C835D839F838E836630F4F4C9DD823074
S11320B069F400E0A7019601BE016F5F7F4F809134
S11320C05111909152110E94430518C000E020E084
S11320D030E0A901BE016F5F7F4F80915111909153
S11320E052110E9443050AC020E0A801BE016F5F9F
S11320F07F4FCF010E94EE0501C080E027960FB606
S1132100F894DEBF0FBECDBFDF91CF911F910F9129
S1132110FF90EF90DF90CF90BF90AF909F908F9003
S113212008958F929F92AF92BF92CF92DF92EF92D7
S1132130FF920F931F93CF93DF933BC00780F085EB
S1132140E02D80809180A280B380C085D1858E01EE
S11321500E5F1F4FC8010E94B102EC89FD89CE01B8
S113216019958E8982FF25C08E859F85A889B98996
S1132170880D991DAA1DBB1D88169906AA06BB06C3
S113218070F48A839B83AC83BD83DB87CA87B801E1
S113219080915511909156110E9474020AC0C12C6D
S11321A0D12C760100E010E0A501940160E0CE019D
S11321B05ADFE0915511F091561180818111BECF03
S11321C0809153119091541190935611809355110D
S11321D0F0935411E0935311DF91CF911F910F911C
S11321E0FF90EF90DF90CF90BF90AF909F908F9033
S11321F00895CF92DF92EF92FF92CF93DF93EC0199
S113220007D96B017C0180914B1190914C11A091E5
S11322104D11B0914E11C816D906EA06FB0620F4FA
S113222080DF81E0888301C01882C0924B11D09274
S11322304C11E0924D11F0924E11C701B601DF919D
S1132240CF91FF90EF90DF90CF9008954F925F92DF
S11322506F927F928F929F92AF92BF92CF92DF92B2
S1132260EF92FF920F931F93CF93DF934B015C0187
S113227029013A01E0915511F09156110780F0853A
S1132280E02DC085D185CE0102960E94B1028E89CF
S113229082FF1BC04E855F8568897989480D591D69
S11322A06A1D7B1D7501640193018201CE0149DE23
S11322B0882369F0C12CD12C760100E010E0A5013F
S11322C0940160E0CE01CFDE02C08E7F8E8BEC895C
S11322D0FD89CE011995DF91CF911F910F91FF9048
S11322E0EF90DF90CF90BF90AF909F908F907F90B2
S11322F06F905F904F9008958F929F92AF92BF928C
S1132300CF92DF92EF92FF921F93CF93DF931F92AE
S1132310CDB7DEB76B017C01142F74D8CE010196C2
S113232068DF4B015C01898181112BC011110CC044
S11323308C149D04AE04BF0438F0A4D9A501940103
S1132340C701B60183DF1EC0112341F0E091531190
S1132350F0915411808111E0811110E0B701A601C0
S1132360481959096A097B09212F809151119091CB
S113237052110E945E0786D9811104C00E942D0368
S113238001C080D90F90DF91CF911F91FF90EF9002
S1132390DF90CF90BF90AF909F908F900895AF92B1
S11323A0BF92CF92DF92EF92FF920F931F93CF933E
S11323B0DF93CDB7DEB728970FB6F894DEBF0FBE14
S11323C0CDBF82C0898188230CF47EC0AE80BF80DB
S11323D0D5011C968D919C911D97892B21F0C501E7
S11323E002960E94B102CE01089603DF8B019C0184
S11323F0E9810E2E000CFF0BEA30F10508F064C0F1
S11324008827EE58FF4F8F4F0C942A1BF5018689BD
S11324108160868BCA80DB80EC80FD804685578591
S1132420608971894C0D5D1D6E1D7F1DC50189DD9F
S1132430882309F449C0D5015496ED91FC91559730
S1132440C5011995F501868982FF3EC04A815B81E9
S11324506C817D8186859785A089B1899A01AB01BC
S1132460280F391F4A1F5B1FC12CD12C760100E0B5
S113247010E060E0C501F7DD27C0D50156968C91C8
S113248056978E7F56968C931FC0F501868981607E
S1132490868B4A815B816C817D8146875787608BFF
S11324A0718B400F511F621F731F68017901C501B1
S11324B048DD0AC0F501868981FD04C0C5010E947A
S11324C0230202C08E7F868B20E030E0A901BE018A
S11324D06F5F7F4F80915111909152110E94280695
S11324E0811170CF28960FB6F894DEBF0FBECDBF12
S11324F0DF91CF911F910F91FF90EF90DF90CF90DC
S1132500BF90AF900895089584B1806884B985B16F
S1132510806885B9089583B1806883B90895F4DF2C
S11325202FEF80E792E0215080409040E1F700C017
S11325300000F1DFF5CFE8DF2FEF87EA91E62150C5
S113254080409040E1F700C00000E5DFF5CF35D1D1
S1132550282F30E02115310579F02330310561F061
S11325601F928F938FE292E09F938F930E94671C38
S11325700F900F900F900F9064E670E080E090E071
S11325805DD92FD1282F30E02115310579F0233082
S1132590310561F01F928F938DE492E09F938F93A6
S11325A00E94671C0F900F900F900F9065E070E0F1
S11325B080E090E043D94FEF5FEFBA0180918B1137
S11325C090918C110E94B3061CD1CDE8D1E157D073
S11325D07B836A833FD1888399839F938F938B8175
S11325E08F938A818F938CE692E09F938F930E94BE
S11325F0671C00E020E030E0A90160E070E0809119
S11326008B1190918C110E9443050F900F900F90A5
S11326100F900F900F909BCFEF92FF920F93109219
S11326208E1110928D1180E07BD40F2EFDE6EF2EDB
S1132630F1E1FF2EF02D07E020E030E040EC50E027
S11326406EE872E087EA92E10E94810981E00E94CB
S1132650E20590938C1180938B1198D0882339F0E4
S113266086EA92E00E947A1C81E090E004C00E9415
S1132670CC0980E090E00F91FF90EF90089504D092
S11326806894B11150C0089533D088F09F5790F0EA
S1132690B92F9927B751A0F0D1F0660F771F881F83
S11326A0991F1AF0BA95C9F712C0B13081F03AD027
S11326B0B1E0089537C0672F782F8827B85F39F0C5
S11326C0B93FCCF3869577956795B395D9F73EF4E2
S11326D090958095709561957F4F8F4F9F4F08958A
S11326E057FD9058440F551F59F05F3F71F04795BF
S11326F0880F97FB991F61F09F3F79F087950895A4
S1132700121613061406551FF2CF4695F1DF08C0C2
S1132710161617061806991FF1CF869571056105DF
S113272008940895E894BB2766277727CB0197F987
S113273008956530F1F4FA0180818F7390E0982F49
S113274088272181822B90930A0280930902828137
S1132750F0E48F9FC0011124FA0123812695269568
S1132760822B909308028093070281E080936F117B
S11327700895643051F080E090E4909308028093CF
S1132780070290930A028093090208950F931F93FE
S113279009E913E120E034E244EF50E060E087E22D
S11327A0F9D3909371118093701121E0892B09F072
S11327B020E0822F1F910F910895809170119091C4
S11327C07111009751F040E060E070E034D484303F
S11327D031F410926F1180E0089582E0089583E04F
S11327E008958091701190917111009731F064E017
S11327F06ED4853021F083E0089582E0089580E06E
S113280008956091090270910A0280E090E038D640
S113281020E030E048EC52E498D620E038EF4FE76F
S113282056E4C6C50895609107027091080280E0DD
S113283090E026D620E030E045E253E486D620E05E
S113284038EF4FE756E4B4D520E030E040E252E4FC
S11328504AC50895E8DF20E030E040E251E475D64F
S11328600EDFCB0108952F923F924F925F926F92A9
S11328707F928F929F92AF92CF92EF92FF920F939B
S11328801F93CF93DF93CDB7DEB7F82E2A013B0118
S113289088E090E0E7D68C018F2D90E0FC01EE0FEC
S11328A0FF1FEE58FE4E118300830115110509F434
S11328B064C0880F991FFC01E55FFD4F8081918101
S11328C0D8018D939C938C2D90E0880F991F880FCD
S11328D0991FC8D61C0186E090E0C4D67C014C2D1B
S11328E0B101E5D4F801F582E4828A2D90E0880FE5
S11328F0991F880F991FB6D61C0186E090E0B2D6C6
S11329007C014A2DB101D3D4D8011396FC92EE92E6
S1132910129717969C928E921697FFB6F894ED91A3
S1132920FC91119736978081826080838D909C9072
S1132930C301B201A5D520E030E040E051E405D662
S11329409B01AC0160E074E284E79BE431D520E0B4
S113295030E040E85FE3C7D497DEF4013297608348
S1132960D801ED91FC911197359788E98083ED9119
S1132970FC91349786E08083FFBEC801DF91CF913C
S11329801F910F91FF90EF90CF90AF909F908F90F9
S11329907F906F905F904F903F902F900895CF93CA
S11329A0DF93DC01892B01F11296ED91FC911397D1
S11329B0938182812581981B922384819817B1F099
S11329C0838126952823C081D181C20FD11D6883BC
S11329D08F5F958189238383ED91FC913597808165
S11329E08062808380E003C081E001C082E0DF91E7
S11329F0CF9108950097D1F0DC011496ED91FC91EC
S1132A00159793818281981799F092818581869593
S1132A108923A081B181A80FB11D8C91DB018C9316
S1132A209F5F85819823928380E0089581E00895D3
S1132A3083E008951F920F920FB60F9211240BB6E4
S1132A400F922F933F934F935F936F937F938F9343
S1132A509F93AF93BF93CF93DF93EF93FF93A09193
S1132A607211B0917311109711F16091C600149610
S1132A70ED91FC911597938182812581981B922376
S1132A808481981761F0838126952823C081D181A0
S1132A90C20FD11D68838F5F958189238383169626
S1132AA0ED91FC911797309711F0CD011995FF9195
S1132AB0EF91DF91CF91BF91AF919F918F917F91D2
S1132AC06F915F914F913F912F910F900BBE0F909B
S1132AD00FBE0F901F9018951F920F920FB60F9272
S1132AE011240BB60F922F938F939F93AF93BF93A1
S1132AF0EF93FF93E0917211F09173113097B9F055
S1132B000280F381E02D938182819817B1F0928144
S1132B108581282F26952923A081B181A20FB11D7B
S1132B202C919F5F892382832093C6000BC0E1EC24
S1132B30F0E080818F7D808305C0E1ECF0E080814E
S1132B408F7D8083FF91EF91BF91AF919F918F9182
S1132B502F910F900BBE0F900FBE0F901F901895E2
S1132B601F920F920FB60F9211240BB60F922F9350
S1132B703F934F935F936F937F938F939F93AF9301
S1132B80BF93CF93DF93EF93FF93A0917411B09110
S1132B907511109711F16091CE001496ED91FC918E
S1132BA01597938182812581981B9223848198179C
S1132BB061F0838126952823C081D181C20FD11D64
S1132BC068838F5F9581892383831696ED91FC91A9
S1132BD01797309711F0CD011995FF91EF91DF917F
S1132BE0CF91BF91AF919F918F917F916F915F91A1
S1132BF04F913F912F910F900BBE0F900FBE0F90EE
S1132C001F9018951F920F920FB60F9211240BB6B6
S1132C100F922F938F939F93AF93BF93EF93FF9351
S1132C20E0917411F09175113097B9F00280F3813D
S1132C30E02D938182819817B1F092818581282FAC
S1132C4026952923A081B181A20FB11D2C919F5FEC
S1132C50892382832093CE000BC0E9ECF0E08081CD
S1132C608F7D808305C0E9ECF0E080818F7D8083D7
S1132C70FF91EF91BF91AF919F918F912F910F9001
S1132C800BBE0F900FBE0F901F9018951F920F92BE
S1132C900FB60F9211240BB60F922F933F934F93BD
S1132CA05F936F937F938F939F93AF93BF93CF93D0
S1132CB0DF93EF93FF93A0917611B0917711109762
S1132CC011F16091D6001496ED91FC9115979381C2
S1132CD082812581981B92238481981761F08381D6
S1132CE026952823C081D181C20FD11D68838F5FAF
S1132CF09581892383831696ED91FC9117973097DC
S1132D0011F0CD011995FF91EF91DF91CF91BF9112
S1132D10AF919F918F917F916F915F914F913F916F
S1132D202F910F900BBE0F900FBE0F901F90189510
S1132D301F920F920FB60F9211240BB60F922F937E
S1132D408F939F93AF93BF93EF93FF93E09176118B
S1132D50F09177113097B9F00280F381E02D9381DF
S1132D6082819817B1F092818581282F2695292395
S1132D70A081B181A20FB11D2C919F5F8923828311
S1132D802093D6000BC0E1EDF0E080818F7D80833D
S1132D9005C0E1EDF0E080818F7D8083FF91EF91AC
S1132DA0BF91AF919F918F912F910F900BBE0F9078
S1132DB00FBE0F901F9018951F920F920FB60F928F
S1132DC011240BB60F922F933F934F935F936F93FE
S1132DD07F938F939F93AF93BF93CF93DF93EF939F
S1132DE0FF93A0917811B0917911109711F160912E
S1132DF036011496ED91FC9115979381828125817A
S1132E00981B92238481981761F083812695282347
S1132E10C081D181C20FD11D68838F5F95818923C1
S1132E2083831696ED91FC911797309711F0CD019D
S1132E301995FF91EF91DF91CF91BF91AF919F9140
S1132E408F917F916F915F914F913F912F910F904F
S1132E500BBE0F900FBE0F901F9018951F920F92EC
S1132E600FB60F9211240BB60F922F938F939F934B
S1132E70AF93BF93EF93FF93E0917811F0917911A1
S1132E803097B9F00280F381E02D93818281981705
S1132E90B1F092818581282F26952923A081B181C3
S1132EA0A20FB11D2C919F5F892382832093360149
S1132EB00BC0E1E3F1E080818F7D808305C0E1E315
S1132EC0F1E080818F7D8083FF91EF91BF91AF917D
S1132ED09F918F912F910F900BBE0F900FBE0F906B
S1132EE01F901895CF93DF931F92CDB7DEB7BE0125
S1132EF06F5F7F4F80917A1190917B117BDD8111FF
S1132F00F6CF898190E00F90DF91CF910895682FDB
S1132F1080917A1190917B1142DD80E090E00895D8
S1132F208F929F92AF92CF92EF920F93812C912C1C
S1132F306894AA24A7F86894CC24C7F8E12C00E08C
S1132F4023E040E051EE60E070E08DDC90937B1173
S1132F5080937A11E5E9F1E183E192E09183808342
S1132F60938382830F91EF90CF90AF909F908F9037
S1132F70089580918A1181110CC08CE08093B8006F
S1132F808FEF8093BB0084E08093BC0081E080934A
S1132F908A110895AF92BF92CF92DF92EF92FF927F
S1132FA00F931F93CF93DF93A82EB62E69017A0156
S1132FB084E090E057D3EC01892B61F1A88281E091
S1132FC0B81212C0C701B60120EA36E841E050E069
S1132FD01FD3DA01C9014097A109B109B695A79594
S1132FE097958795898311C0C701B60120E83AE116
S1132FF046E050E00DD3DA01C9014097A109B109B7
S1133000B695A7959795879589831B830A838C2FFB
S11330109D2F02C080E090E0DF91CF911F910F912E
S1133020FF90EF90DF90CF90BF90AF900895809184
S1133030BC0081700895FF920F931F93CF93DF9389
S11330400097D1F14A30D0F5F42E8B01EC01EFDF7B
S1133050811136C080917D1190917E11C817D907D6
S113306041F087DF89818093B800D0937E11C093AB
S11330707D1181E08F0D80937F118881880F80936B
S11330808011FF2089F0F801A1E8B1E14FEF4F0D65
S1133090642F70E0CB010196B801680F791F81910C
S11330A08D93E617F707D9F788EF8093210285EA15
S11330B08093BC0084E005C086E003C087E001C0C3
S11330C082E0DF91CF911F910F91FF9008951F939C
S11330D0CF93DF93009729F16B3028F5162FEC017D
S11330E0A6DF811122C080917D1190917E11C817B5
S11330F0D90741F03EDF89818093B800D0937E11D7
S1133100C0937D1110937F118881880F8160809313
S1133110801188EF8093210285EA8093BC0085E0CA
S113312005C086E003C087E001C082E0DF91CF9153
S11331301F9108951F920F920FB60F9211240BB690
S11331400F922F933F934F935F936F937F938F933C
S11331509F93AF93BF93EF93FF93E091B9008E2FAA
S113316090E0FC013897E135F10508F075C0882737
S1133170E458FF4F8F4F6EC210927C11E0917C1186
S113318080917F11E81770F481E08E0F80937C1199
S1133190F0E0E058FE4E80818093BB0085E8809388
S11331A0BC0072C084E98093BC0080917D11909131
S11331B07E11DC011296ED91FC911397309709F47E
S11331C063C020E040E050E064E019955DC0E09108
S11331D07C1181E08E0F80937C118091BB00F0E024
S11331E0E058FE4E80838091B900803411F410922F
S11331F07C1120917C1130E080917F1190E0019747
S11332002817390724F485EC8093BC003DC085E879
S11332108093BC0039C08091BB00E0917C11F0E048
S1133220E058FE4E808384E98093BC0080917D1138
S113323090917E11DC011296ED91FC9113973097D9
S113324019F120917F1140E851E165E019951CC006
S113325085EA8093BC0018C08091B9008093210254
S113326084E08093BC0080917D1190917E11DC01FB
S11332701296ED91FC911397309731F020E040E0E5
S113328050E0609121021995FF91EF91BF91AF91A8
S11332909F918F917F916F915F914F913F912F916A
S11332A00F900BBE0F900FBE0F901F901895FC014E
S11332B0411101C0F8D2842F90E09C0121503109C2
S11332C082239323892B09F0EED2413808F0EBD204
S11332D0128213824483440F415045837183608377
S11332E080E090E008955058BB27AA270ED01CC157
S11332F00DD130F012D120F031F49F3F11F41EF4BF
S113330002C10EF4E095E7FBF8C0E92FE9D980F398
S1133310BA17620773078407950718F071F49EF5CE
S113332001CA0EF4E0950B2EBA2FA02D0B01B901A2
S113333090010C01CA01A0011124FF27591B99F027
S1133340593F50F4503E68F11A16F040A22F232F33
S1133350342F4427585FF3CF469537952795A79583
S1133360F0405395C9F77EF41F16BA0B620B730B2A
S1133370840BBAF09150A1F0FF0FBB1F661F771F9B
S1133380881FC2F70EC0BA0F621F731F841F48F450
S1133390879577956795B795F7959E3F08F0B3CFD6
S11333A09395880F08F09927EE0F979587950895C0
S11333B00CD0BAC0B2D040F0A9D030F021F45F3FB5
S11333C019F09BC05111AFC99EC08AD998F39923B3
S11333D0C9F35523B1F3951B550BBB27AA276217D5
S11333E07307840738F09F5F5F4F220F331F441F1A
S11333F0AA1FA9F333D00E2E3AF0E0E830D0915052
S11334005040E695001CCAF729D0FE2F27D0660F3E
S1133410771F881FBB1F261737074807AB07B0E87D
S113342009F0BB0B802DBF01FF2793585F4F2AF093
S11334309E3F510568F061C076C95F3FECF3983E4A
S1133440DCF3869577956795B795F7959F5FC9F7F0
S1133450880F911D9695879597F90895E1E0660F79
S1133460771F881FBB1F621773078407BA0720F0F2
S1133470621B730B840BBA0BEE1F88F7E09508955B
S1133480E89409C097FB3EF49095809570956195FA
S11334907F4F8F4F9F4F9923A9F0F92F96E9BB27B0
S11334A09395F695879577956795B795F111F8CF2C
S11334B0FAF4BB0F11F460FF1BC06F5F7F4F8F4F97
S11334C09F4F16C0882311F096E911C0772321F08D
S11334D09EE8872F762F05C0662371F096E8862F25
S11334E070E060E02AF09A95660F771F881FDAF77C
S11334F0880F9695879597F9089597F99F6780E8BF
S113350070E060E008959FEF80EC089500240A9431
S11335101616170618060906089500240A941216AA
S11335201306140605060895092E0394000C11F4DD
S1133530882352F0BB0F40F4BF2B11F460FF04C08A
S11335406F5F7F4F8F4F9F4F08950BD0EDCFDEDF1E
S113355028F0E3DF18F0952309F0CFCFD4CF11245E
S1133560E2C8BED8A0F3959FD1F3950F50E0551F44
S1133570629FF001729FBB27F00DB11D639FAA27C4
S1133580F00DB11DAA1F649F6627B00DA11D661F13
S1133590829F2227B00DA11D621F739FB00DA11D34
S11335A0621F839FA00D611D221F749F3327A00DEE
S11335B0611D231F849F600D211D822F762F6A2F8A
S11335C011249F5750408AF0E1F088234AF0EE0F0F
S11335D0FF1FBB1F661F771F881F91505040A9F71C
S11335E09E3F510570F089CF9EC85F3FECF3983E33
S11335F0DCF3869577956795B795F795E7959F5F83
S1133600C1F7FE2B880F911D9695879597F908951C
S1133610A1E21A2EAA1BBB1BFD010DC0AA1FBB1FD2
S1133620EE1FFF1FA217B307E407F50720F0A21B44
S1133630B30BE40BF50B661F771F881F991F1A94B1
S113364069F760957095809590959B01AC01BD01DB
S1133650CF010895EE0FFF1F881F8BBF0790F691CF
S1133660E02D19940F931F93CF93DF93823091052C
S113367010F482E090E0E0919311F091941120E035
S113368030E0A0E0B0E0309719F14081518102812F
S1133690138148175907C8F08417950769F41097E0
S11336A031F012960C93129713961C9327C0009333
S11336B093111093941122C02115310519F042176A
S11336C0530718F49A01BD01EF01DF01F801DBCFC4
S11336D021153105F9F0281B390B2430310580F40C
S11336E08A819B816115710521F0FB01938382839B
S11336F004C09093941180939311FE01329644C0B8
S1133700FE01E20FF31F8193919322503109398313
S113371028833AC02091911130919211232B41F4C6
S1133720209102023091030230939211209391115F
S113373020910002309101022115310541F42DB789
S11337403EB74091040250910502241B350BE091D1
S11337509111F0919211E217F307A0F42E1B3F0B85
S11337602817390778F0AC014E5F5F4F24173507EF
S113377048F04E0F5F1F5093921140939111819323
S1133780919302C0E0E0F0E0CF01DF91CF911F916F
S11337900F910895CF93DF93009709F481C0FC0142
S11337A0329713821282A0919311B09194111097C1
S11337B081F420813181820F931F209191113091E6
S11337C092112817390751F5F0939211E093911152
S11337D067C0ED0120E030E0CE17DF0740F44A81F6
S11337E05B819E0141155105F1F0EA01F5CFD383C8
S11337F0C28340815181840F951FC817D90759F49A
S113380088819981840F951F0296918380838A8190
S11338109B81938382832115310529F4F0939411BC
S1133820E09393113DC0E901FB83EA8349915991E7
S1133830C40FD51FEC17FD0761F480819181840FBB
S1133840951F0296E90199838883828193819B83E2
S11338508A83E0E0F0E012968D919C911397009793
S113386019F0FD01DC01F7CF8D919C9111979D0119
S11338702E5F3F4F820F931F20919111309192112F
S11338802817390769F4309729F41092941110928B
S1133890931102C013821282B0939211A0939111DA
S11338A0DF91CF91089581E090E0F89400C3FB018B
S11338B0DC0102C001900D9241505040D8F70895A8
S11338C0DC0101C06D9341505040E0F70895CF935F
S11338D0DF93CDB7DEB7AE014A5F5F4FFA01619166
S11338E07191AF01809197119091981133D0DF912C
S11338F0CF9108950F931F93CF93DF93E091971186
S1133900F0919811238121FF1BC08C01D0E0C0E00D
S1133910F80181918F016091971170919811DB01E9
S11339201896ED91FC911997882331F01995892BFC
S113393079F3DFEFCFEFECCF8AE01995892B19F0FB
S11339408FEF9FEF02C08D2F9C2FDF91CF911F919E
S11339500F9108952F923F924F925F926F927F92B0
S11339608F929F92AF92BF92CF92DF92EF92FF928B
S11339700F931F93CF93DF93CDB7DEB72B970FB67B
S1133980F894DEBF0FBECDBF6C017B018A01FC0140
S113399017821682838181FFBFC1CE0101963C014B
S11339A0F6019381F70193FD859193FF81917F0146
S11339B0882309F4ADC1853239F493FD859193FFD1
S11339C081917F01853221F4B60190E0D6D1E8CF10
S11339D0912C212C312CFFE1F315D8F08B3279F0A6
S11339E038F4803279F08332A1F4232D20611DC094
S11339F08D3261F0803369F4232D216016C0832D4C
S1133A008260382EE32DE4603E2E2AC0F32DF86048
S1133A101DC037FC2DC020ED280F2A3040F08E3217
S1133A20B9F436FC75C1232D2064322E19C036FE3C
S1133A3006C08AE0989E200D1124922E11C0EAE05F
S1133A402E9E200D1124222EF32DF0623F2E08C04D
S1133A508C3621F4832D8068382E02C0883641F4D8
S1133A60F70193FD859193FF81917F018111B3CF7C
S1133A70982F9F7D9554933028F40C5F1F4F9FE33C
S1133A8099830DC0833631F0833771F0833509F0A3
S1133A9055C020C0F801808189830E5F1F4F8824A0
S1133AA08394912C530112C02801F2E04F0E511C53
S1133AB0F801A080B18036FE03C0692D70E002C019
S1133AC06FEF7FEFC5014ED14C018201F32DFF77DB
S1133AD03F2E15C0280122E0420E511CF801A0809F
S1133AE0B18036FE03C0692D70E002C06FEF7FEF36
S1133AF0C5012DD14C01F32DF0683F2E820133FC1A
S1133B0019C0822D90E088169906A0F4B60180E2CF
S1133B1090E033D12A94F5CFF50137FC859137FE37
S1133B2081915F01B60190E028D121102A9421E00F
S1133B30821A91088114910479F7E1C0843611F056
S1133B40893639F5F80137FE07C0608171818281B9
S1133B5093810C5F1F4F08C060817181072E000C98
S1133B60880B990B0E5F1F4FF32DFF763F2E97FFA7
S1133B7009C090958095709561957F4F8F4F9F4FA9
S1133B80F0683F2E2AE030E0A30133D1882E861856
S1133B9044C0853731F4232D2F7EB22E2AE030E045
S1133BA025C0932D997FB92E8F36C1F018F488352E
S1133BB079F0AEC0803719F0883721F0A9C0E92F19
S1133BC0E061BE2EB4FE0DC0FB2DF460BF2E09C013
S1133BD034FE0AC0292F2660B22E06C028E030E049
S1133BE005C020E130E002C020E132E0F801B7FE78
S1133BF007C060817181828193810C5F1F4F06C071
S1133C006081718180E090E00E5F1F4FA301F1D0CD
S1133C10882E8618FB2DFF773F2E36FE0DC0232DF0
S1133C202E7FA22E891458F434FE0BC032FC09C036
S1133C30832D8E7EA82E05C0B82CA32C03C0B82CCF
S1133C4001C0B92CA4FE0FC0FE01E80DF11D808156
S1133C50803321F49A2D997EA92E09C0A2FE06C0B4
S1133C60B394B39404C08A2D867809F0B394A3FC6A
S1133C7010C0A0FE06C0B21480F4280C922C9B182D
S1133C800DC0B21458F4B60180E290E076D0B3943B
S1133C90F8CFB21418F42B1802C0982C212CA4FECF
S1133CA00FC0B60180E390E068D0A2FE16C0A1FC6C
S1133CB003C088E790E002C088E590E0B6010CC03C
S1133CC08A2D867851F0A1FE02C08BE201C080E209
S1133CD0A7FC8DE2B60190E050D0891430F4B6010F
S1133CE080E390E04AD09A94F8CF8A94F301E80DE7
S1133CF0F11D8081B60190E040D08110F6CF2220E2
S1133D0009F44ECEB60180E290E037D02A94F7CF82
S1133D10F6018681978102C08FEF9FEF2B960FB635
S1133D20F894DEBF0FBECDBFDF91CF911F910F91ED
S1133D30FF90EF90DF90CF90BF90AF909F908F90C7
S1133D407F906F905F904F903F902F900895FC016B
S1133D500590615070400110D8F7809590958E0FB2
S1133D609F1F0895FC016150704001900110D8F725
S1133D70809590958E0F9F1F08950F931F93CF9357
S1133D80DF93FB01238121FD03C08FEF9FEF2CC044
S1133D9022FF16C04681578124813581421753077B
S1133DA044F4A081B1819D012F5F3F4F3183208373
S1133DB08C93268137812F5F3F4F3783268314C02E
S1133DC08B01EC01FB010084F185E02D1995892B11
S1133DD0E1F6D80116968D919C9117970196179646
S1133DE09C938E931697CE01DF91CF911F910F91E3
S1133DF00895FA01AA27283051F1203181F1E8947D
S1133E006F936E7F6E5F7F4F8F4F9F4FAF4FB1E0C9
S1133E103ED0B4E03CD0670F781F891F9A1FA11DC4
S1133E20680F791F8A1F911DA11D6A0F711D811DC5
S1133E30911DA11D20D009F468943F912AE0269F8A
S1133E4011243019305D3193DEF6CF010895462FE9
S1133E504770405D4193B3E00FD0C9F7F6CF462FCA
S1133E604F70405D4A3318F0495D31FD4052419333
S1133E7002D0A9F7EACFB4E0A695979587957795F0
S1133E806795BA95C9F700976105710508959B0177
S1133E90AC010A2E06945795479537952795BA9500
S1133EA0C9F7620F731F841F951FA01D0895F8940E
S1053EB0FFCF3E
S1133EB200009B1120000900400040C600CE00D63D
S1133EC2003601000000030000000087177217008B
S1133ED200F849444C4500546D72205376630054F3
S1133EE2656D70657261747572652077616B657555
S1133EF270206572726F723A2025640A0054656DEF
S1133F027065726174757265206D65617375726531
S1133F12206572726F723A2025640A0046756774CE
S1133F2269676865643A20256425252054656D70A7
S1133F326572617475723A20256443B00A0054654F
S1133F426D7065726174757265206D6561737572E9
S1133F52656D656E74004661696C656420746F20DA
S1133F62696E697469616C697A652074656D7065DE
S1113F727261747572652073656E736F7200F0
S9030000FC
