:10000000E5C0000004C1000002C1000000C1000002
:10001000FEC00000FCC00000FAC00000F8C00000F4
:10002000F6C00000F4C00000F2C00000F0C0000004
:10003000DDC30000ECC00000EAC00000E8C0000022
:10004000E6C00000E4C00000E2C00000E0C0000024
:10005000DEC00000DCC00000DAC00000D8C0000034
:10006000D6C000000C9474200C94C620D0C00000B0
:10007000CEC00000CCC00000CAC00000C8C0000054
:10008000C6C00000C4C00000C2C00000C0C0000064
:100090000C940A210C945C21BAC000000C94132526
:1000A000B6C00000B4C00000B2C00000B0C0000084
:1000B000AEC00000ACC00000AAC00000A8C0000094
:1000C000A6C00000A4C00000A2C000000C94A021A3
:1000D0000C94F2219CC000000C9436220C948822CF
:1000E00096C00000D616D616D6160D1715172A1765
:1000F000D616D6160D1715173525A525A525A52520
:10010000A525A525A525A5253525A525A525A5250F
:10011000A525A525A525A5253725A525A525A525FD
:10012000A525A525A525A525A525A525A525A5257F
:10013000A525A525A525A5253725A525A525A525DD
:10014000A525A525A525A525A525A525A525A5255F
:10015000A525A525A525A525A125A525A525A52553
:10016000A525A525A525A5256C25A525A525A52578
:10017000A525A525A525A525A525A525A525A5252F
:10018000A525A525A525A5256025A525A525A52564
:10019000A525A525A525A52584250E94260B8091AA
:1001A0003715823008F05CD20E945317F6CFCF93F8
:1001B000DF931F92CDB7DEB7CE0101960E94531494
:1001C00049810E9448160E949F16F6CF11241FBE37
:1001D000CFEFD1E2DEBFCDBF00E00CBF17E0A0E063
:1001E000B2E0EAEAF6E500E00BBF02C007900D922C
:1001F000AA32B107D9F727E1AAE2B7E001C01D9200
:10020000A537B207E1F70E94BF180C94532BF8CE24
:100210000895E6E3F7E0AAE3B7E0B183A083138291
:100220001282E2EEF4E1F0933507E0933407138293
:1002300012821182108288EA9DE013969C938E931D
:100240001297ED93FC93909331078093300790932E
:1002500033078093320780E090E890932B078093D8
:100260002A070895CF93DF93EC01A6E3B7E001C01E
:10027000DF01ED91FC911197EC17FD07C8F3129681
:100280008D919C9113979D01280F391FC217D30799
:1002900049F42A813B81820F931F13969C938E937E
:1002A0001297ED018A819B819E01280F391FE21769
:1002B000F307C1F42091340730913507E217F307B3
:1002C00071F022813381820F931F9B838A83ED918A
:1002D000FC911197808191819983888305C039832E
:1002E000288302C0F983E883CA17DB0711F0CD9396
:1002F000DC93DF91CF910895EF92FF920F931F93BC
:10030000CF93DF938C010E94710C80913407909100
:100310003507892B09F47DDF80912A0790912B07FF
:1003200080239123892B09F076C00115110549F02E
:10033000C80104960817190718F000E010E001C082
:100340008C010115110509F469C080913207909163
:1003500033078017910708F464C0C0913607D09125
:100360003707E6E3F7E002C0FE01EC018A819B81DA
:100370008017910720F4888199810097A9F78091CF
:10038000340790913507C817D90709F44DC0E080AC
:10039000F18084E0E80EF11C88819981918380834B
:1003A0002A813B81201B310B2930310548F0CE01D9
:1003B000800F911FFC01338322831B830A8352DF4A
:1003C0002A813B818091320790913307821B930BE6
:1003D0009093330780933207409130075091310753
:1003E0008417950720F4909331078093300780910C
:1003F0002A0790912B07282B392B3B832A831982BC
:10040000188280912E0790912F07019690932F07C5
:1004100080932E070BC0E12CF12C08C0E12CF12CAD
:1004200005C0E12CF12C02C0E12CF12C0E94B10D91
:10043000E114F10411F40E945F17C701DF91CF911D
:100440001F910F91FF90EF9008950F931F93CF93FB
:10045000DF93009791F1EC0124974A815B81209111
:100460002A0730912B07BA0162237323672B29F1E6
:1004700068817981672B09F52095309524233523F0
:100480003B832A830E94710C8A819B8120913207D1
:1004900030913307820F931F909333078093320775
:1004A000CE01E0DE80912C0790912D07019690936C
:1004B0002D0780932C070E94B10DDF91CF911F91E2
:1004C0000F910895FC010396928381834FEF5FEFB4
:1004D000BA014383548365837683908787839287A9
:1004E000818710820895FC011386128608950F9368
:1004F0001F93CF93DF93EB01088119812A813B8100
:100500000F3F4FEF14072407340721F4FC01A185A6
:10051000B28511C0DC01139601C0DF011496ED9184
:10052000FC911597408151816281738104171507F1
:100530002607370790F71496ED91FC911597FD83E8
:10054000EC83D783C683BF83AE831596DC93CE93AB
:1005500014979B878A87FC0120812F5F2083DF917E
:10056000CF911F910F910895CF93DF93FC01A28546
:10057000B385C481D581868197819F838E83C6810F
:10058000D781848195819D838C8311968D919C91D7
:100590001297E817F90731F48681978112969C9398
:1005A0008E931197138612868C9181508C938C9127
:1005B000DF91CF910895A89590EC88E10FB6F8945B
:1005C000A895809360000FBE909360000895FC0191
:1005D0006083319770833197108231971082319701
:1005E00020E8208331971082319710823197108252
:1005F000779740833197508386970895DCDFA091E9
:10060000A515B091A615CD91CDBFDD91DEBFFF91AF
:10061000EF91DF91CF91BF91AF919F918F917F919A
:100620006F915F914F913F912F911F910F91FF908B
:10063000EF90DF90CF90BF90AF909F908F907F9082
:100640006F905F904F903F902F901F900F900CBE37
:100650000F900BBE0F900FBE0F90089581E008958C
:100660000F920FB6F8940F920BB60F920CB60F9232
:100670001F9211242F923F924F925F926F927F921E
:100680008F929F92AF92BF92CF92DF92EF92FF92A2
:100690000F931F932F933F934F935F936F937F938A
:1006A0008F939F93AF93BF93CF93DF93EF93FF937A
:1006B000A091A515B091A6150DB60D920EB60D928E
:1006C0000E940D0FA091A515B091A615CD91CDBF9B
:1006D000DD91DEBFFF91EF91DF91CF91BF91AF919F
:1006E0009F918F917F916F915F914F913F912F914A
:1006F0001F910F91FF90EF90DF90CF90BF90AF9040
:100700009F908F907F906F905F904F903F902F9031
:100710001F900F900CBE0F900BBE0F900FBE0F904E
:1007200008950F920FB6F8940F920BB60F920CB675
:100730000F921F9211242F923F924F925F926F92CD
:100740007F928F929F92AF92BF92CF92DF92EF9261
:10075000FF920F931F932F933F934F935F936F934A
:100760007F938F939F93AF93BF93CF93DF93EF9339
:10077000FF93A091A515B091A6150DB60D920EB6DA
:100780000D9213BE0E94850C81110E940D0FA09145
:10079000A515B091A615CD91CDBFDD91DEBFFF911E
:1007A000EF91DF91CF91BF91AF919F918F917F9109
:1007B0006F915F914F913F912F911F910F91FF90FA
:1007C000EF90DF90CF90BF90AF909F908F907F90F1
:1007D0006F905F904F903F902F901F900F900CBEA6
:1007E0000F900BBE0F900FBE0F9008959ADF1895D3
:1007F0000FB6F8940F92FC01868D811102C081E042
:1008000001C080E00F900FBE08950FB6F8940F92CC
:10081000FC01268D878D281302C081E001C080E095
:100820000F900FBE08950F931F93CF93DF93EC01AA
:10083000042F1E8D48A141110CC088819981892BFC
:1008400009F042C08C819D810E941E111D821C8274
:1008500042C0011117C050E08A819B810E94D627B7
:1008600028A18A819B81820F911D9B838A832C8181
:100870003D818217930750F1888199819B838A83F8
:1008800080E029C050E08E819F810E94D62788A1F8
:1008900090E09195819591092E813F81280F391F14
:1008A0003F832E83488159812417350730F42C81EA
:1008B0003D81820F931F9F838E83023049F4112361
:1008C00049F0115080E007C080E005C080E003C01F
:1008D00080E001C080E01F5F1E8FDF91CF911F91EC
:1008E0000F910895FC0140A14423A9F050E0268116
:1008F0003781240F351F37832683848195812817FC
:10090000390720F08081918197838683CB016681AE
:1009100077810C94D62708951F93CF93DF93EC0132
:100920000FB6F8940F921AA10BC08B89882351F04F
:10093000CE0143960E94CB0F81110E9407111150E6
:1009400011169CF38FEF8AA30F900FBE0FB6F89489
:100950000F9219A10BC08885882351F0CE0108960B
:100960000E94CB0F81110E940711115011169CF3A8
:100970008FEF89A30F900FBEDF91CF911F91089544
:10098000CF93DF93EC010FB6F8940F92E881F981D1
:100990008F8D28A190E030E0829FA001839F500DB1
:1009A000929F500D11244E0F5F1F5D834C831E8E4E
:1009B000FB83EA830197289FA001299F500D389F50
:1009C000500D1124CF01840F951F9F838E838FEFCD
:1009D00089A38AA361110BC08885882371F0CE0199
:1009E00008960E94CB0F882341F03ADE06C0CE0164
:1009F000089668DDCE01439665DD0F900FBE81E05D
:100A0000DF91CF9108950F931F93F801611103C0F7
:100A10001183008302C051834083878F60A361E00C
:100A2000CF01AEDF1F910F910895DF92EF92FF92F9
:100A30000F931F93CF93DF93F82EE62ED42E869F2D
:100A4000C0011124839658DCEC01009741F08C0121
:100A50002D2DAC014D5D5F4F6E2D8F2DD4DFCE015E
:100A6000DF91CF911F910F91FF90EF90DF9008954C
:100A7000CF92DF92EF92FF920F931F93CF93DF936A
:100A8000CDB7DEB729970FB6F894DEBF0FBECDBF46
:100A90007C016B012E833F834887598710E00FB696
:100AA000F8940F92F701968D878D981710F0023009
:100AB000B1F4402FB601C701B6DEF701938999233F
:100AC00041F0C70143960E94CB0F882321F0C8DD77
:100AD00002C08111C5DD0F900FBE81E04AC08E813A
:100AE0009F81A885B985892B8A2B8B2B21F40F90A8
:100AF0000FBE80E03EC0111105C0CE0101960E94DC
:100B0000901011E00F900FBEECD60FB6F8940F9234
:100B1000F70181A18F3F09F411A2F70182A18F3F54
:100B200009F412A20F900FBEBE016A5F7F4FCE0183
:100B300001960E94A110811118C0C70166DE8823AA
:100B400081F04E815F8168857985C70108960E9492
:100B5000720FC701E1DE0E94B10D8111A0CF80DDCF
:100B60009ECFC701D9DEFDD79ACFC701D5DEF9D711
:100B700080E029960FB6F894DEBF0FBECDBFDF919F
:100B8000CF911F910F91FF90EF90DF90CF9008953C
:100B9000EF92FF920F931F93CF93DF938A01FC0193
:100BA000568D378D531710F02230F9F4422F78010B
:100BB000EC011AA18E8DCE0136DE1F3F81F48B89A8
:100BC0008823A9F0CE0143960E94CB0F882389F099
:100BD000E114F10481F081E0F70180830DC0FF246E
:100BE000F394F10EFAA281E007C080E005C081E035
:100BF00003C081E001C081E0DF91CF911F910F918F
:100C0000FF90EF900895CF92DF92EF92FF920F93B3
:100C10001F93CF93DF93CDB7DEB729970FB6F89424
:100C2000DEBF0FBECDBF8C016B012E833F83488793
:100C30005987E12C0FB6F8940F92F801F68CFF203B
:100C400099F0B601C8014EDEFA94F801F68E80855F
:100C5000882331F0C80108960E94CB0F811100DD76
:100C60000F900FBE81E04FC08E819F81A885B9850E
:100C7000892B8A2B8B2B21F40F900FBE80E043C071
:100C8000E11006C0CE0101960E949010EE24E3947C
:100C90000F900FBE26D60FB6F8940F92F80181A1DF
:100CA0008F3F09F411A2F80182A18F3F09F412A22B
:100CB0000F900FBEBE016A5F7F4FCE0101960E946A
:100CC000A110811117C0C80193DD882379F04E81EE
:100CD0005F8168857985C80143960E94720FC801BB
:100CE0001BDE3FD78111A6CFBBDCA4CFC80114DE29
:100CF00038D7A0CFC80110DE34D7C80179DD8823EA
:100D000009F498CF80E029960FB6F894DEBF0FBEA5
:100D1000CDBFDF91CF911F910F91FF90EF90DF90AA
:100D2000CF900895CF93DF93EC010FB6F8940F9214
:100D300089A18F3F09F419A28AA18F3F09F41AA251
:100D40000F900FBE8E8D811104C0CE0143960E947C
:100D5000890FCE01E1DDDF91CF910895FC0144813F
:100D6000558122813381240F351F80819181B90102
:100D7000681B790BCB016417750710F0841B950B6A
:100D800008950F93FC018FE0DF011D928A95E9F72A
:100D900075876487558344833783268306870F913D
:100DA0000895AF92BF92CF92DF92EF92FF920F938E
:100DB0001F93CF93DF936C015B017A01FC01C28129
:100DC000D381048115810C1B1D0B4017510708F4BA
:100DD0008A01F60184859585A801B5018C0F9D1FB8
:100DE0000E94D6270E151F0558F4A701401B510B72
:100DF000B501600F711FF601848595850E94D62785
:100E0000CE018E0D9F1DF601248135818217930737
:100E100010F0821B930BF60193838283C701DF914D
:100E2000CF911F910F91FF90EF90DF90CF90BF90E7
:100E3000AF900895CF92DF92EF92FF920F931F939E
:100E4000CF93DF931F921F92CDB7DEB77C016B016A
:100E50005A83498321153105C1F0FC01868580FD47
:100E600008C04217530708F49A013A83298381E0A6
:100E70000FC02017310758F042E050E0BE016F5F0D
:100E80007F4FC7018EDF81E003C080E001C080E0BA
:100E9000882331F049815A81B601C70182DF02C03F
:100EA00080E090E00F900F90DF91CF911F910F9114
:100EB000FF90EF90DF90CF900895AF92BF92CF92C6
:100EC000DF92EF92FF920F931F93CF93DF937C01FA
:100ED0005B01E9014217530708F4EA01209781F109
:100EE000F7010081118184819581801B910B6E0136
:100EF0008C179D0708F46C01F70164857585600FF8
:100F0000711FA601C5010E94D627CC16DD0658F434
:100F1000AE014C195D09F70164857585C5018C0D1D
:100F20009D1D0E94D6270C0F1D1FF70184819581FE
:100F30000817190710F0081B190BF701118300831C
:100F4000CE01DF91CF911F910F91FF90EF90DF9035
:100F5000CF90BF90AF9008956F927F928F929F92A3
:100F6000AF92BF92CF92DF92EF92FF920F931F93B7
:100F7000CF93DF931F921F92CDB7DEB76C014B0169
:100F80005A01790101151105B1F0FC0160807180F1
:100F9000A801BE016F5F7F4F90DF89819A81E01ABF
:100FA000F10AA816B90630F4F60171826082A12C0C
:100FB000B12C01C05C019701A501B401C6017DDF20
:100FC0000F900F90DF91CF911F910F91FF90EF90B5
:100FD000DF90CF90BF90AF909F908F907F906F9059
:100FE0000895CF92DF92EF92FF920F93CF93DF930A
:100FF000EC016B01413011F401E001C000E0C114CB
:10100000D10419F4CC24C394D12CCE014096C81736
:10101000D90720F4219670D97C0102C0E12CF12C73
:10102000E114F10439F09601AE01B701615F7F4F21
:10103000C701A7DEC701DF91CF910F91FF90EF901D
:10104000DF90CF9008950F930FB6F8940F92FC01A4
:1010500020853185232B71F422853385232B61F480
:10106000268137814481558164857585068589DEB1
:1010700081E003C080E001C080E00F900FBE0F91BF
:101080000895FC012481358180819181820F931F15
:1010900042815381841B950B01978217930710F0AF
:1010A000821B930B08952F923F924F925F926F9203
:1010B0007F928F929F92AF92BF92CF92DF92EF92E8
:1010C000FF920F931F93CF93DF93CDB7DEB72B978C
:1010D0000FB6F894DEBF0FBECDBF4C017B876A8789
:1010E0001A010E831F8328873987FC01848195812B
:1010F0000197268520FF0CC02A01F2E04F0E511CFB
:101100008415950558F41E821F821886198606C01C
:101110008417950710F02A0101C02C018E819F8150
:10112000A885B985892B8A2B8B2B09F436C0CE0173
:101130000196E0D70FB6F8940F92C401A2DF3C01EC
:101140008415950538F560E080E090E00E94391440
:101150000E940B11F401938782870F900FBEAE801F
:10116000BF80C884D984E12CF12C00E010E0980104
:1011700040E050E0BA0180E00E947911F40113864A
:101180001286BE016A5F7F4FCE010196DAD78823AF
:1011900089F205C00F900FBE02C0612C712C611442
:1011A000710419F4C4016DDF3C0182019301A101B6
:1011B0006A857B85C4013EDE6C01892BE9F0C401A0
:1011C000CDDDF4012681378182179307A8F089D3FA
:1011D000F40180859185892B71F080859185E12CC2
:1011E000F12C00E020E030E0A90160E00E94201234
:1011F000F40111861086B5D4C6012B960FB6F8946B
:10120000DEBF0FBECDBFDF91CF911F910F91FF9039
:10121000EF90DF90CF90BF90AF909F908F907F9096
:101220006F905F904F903F902F900895AF92BF9234
:10123000CF92DF92EF92FF920F931F93CF93DF93A2
:10124000EC017B015A0169018E8580FF04C08A018F
:101250000E5F1F4F01C08A01CE0113DF9C01A50163
:10126000B701CE01E7DD5C01892BC1F0CE0176DD4F
:101270002E813F818217930788F088859985892B75
:1012800069F088859985E12CF12C00E020E030E0C0
:10129000A90160E00E94171319861886C501DF9125
:1012A000CF911F910F91FF90EF90DF90CF90BF9063
:1012B000AF9008954F925F926F927F928F929F921C
:1012C000AF92BF92CF92DF92EF92FF920F931F9354
:1012D000CF93DF93EC012B013A01580169018E8510
:1012E00080FF05C06894882481F8912C02C0812C6D
:1012F000912CA114B104C104D10431F10FB6F894BA
:101300000F92CE012BDD7C018816990640F060E03B
:1013100080E090E00E9439147ED7998788870F90EB
:101320000FBE8E149F0498F0E12CF12C00E010E029
:10133000980140E050E0BA0180E0DBD719861886BA
:10134000CE010CDD7C0103C0CE0108DD7C018E14D2
:101350009F04E8F484019701A301B201CE01FCDDF2
:101360006C01892BB1F0BDD28A859B85892B69F0F0
:101370008A859B85E12CF12C00E020E030E0A9017A
:1013800060E00E9420121B861A86EBD302C0C12C9B
:10139000D12CC601DF91CF911F910F91FF90EF905B
:1013A000DF90CF90BF90AF909F908F907F906F9085
:1013B0005F904F900895E0911F15F0912015808166
:1013C00081110CC08FEF9FEFDC018093E9149093A3
:1013D000EA14A093EB14B093EC140895E0911F1558
:1013E000F09120150780F085E02D80819181A28108
:1013F000B3818093E9149093EA14A093EB14B09313
:10140000EC140895CF93DF93EC018B8D9C8D1DD848
:10141000CE011BD8DF91CF9108954F925F926F92CA
:101420007F928F929F92AF92BF92CF92DF92EF9274
:10143000FF920F93CF93DF932C015B014A01390197
:10144000E60165EA70E08B8D9C8D0E94DF278B8D15
:101450009C8D21E0821A9108880E991EA114B10476
:1014600089F415C0822F90E0F501E80FF91F308153
:10147000DE01A80FB91F5D963C938081882329F077
:101480002F5F01C020E0203168F31CA601C01D8E33
:101490000A3008F009E00A8F0DA71EA6CE010296B9
:1014A00022D8CE010E961FD8DB87CA878AE090E04B
:1014B000A0E0B0E0801B9109A109B1098E879F8748
:1014C000A88BB98BDF8BCE8B84E0FE01BF96DF014A
:1014D0001D928A95E9F71BAAA301B201C40177D82E
:1014E00099838883E114F10419F0F701D183C08353
:1014F000DF91CF910F91FF90EF90DF90CF90BF9051
:10150000AF909F908F907F906F905F904F900895D5
:10151000CF93C0E009C02BE0C29FC0011124895CB9
:101520009A4E0E946202CF5FCA30A8F38CE295E126
:101530000E94620281E295E10E94620282E195E1ED
:101540000E94620287E095E10E9462028BEF94E1C3
:101550000E9462028CE295E19093201580931F1502
:1015600081E295E190931E1580931D15CF9108950A
:10157000CF93DF93EC010FB6F8940F928091FA1499
:101580008F5F8093FA148091A5159091A615892BF1
:1015900051F4D093A615C093A5158091FA1481300B
:1015A00091F4B6DF10C08091F41481110CC0E09169
:1015B000A515F091A615928D8A8D891720F0D093EC
:1015C000A615C093A5158091ED148F5F8093ED143F
:1015D000EA8D8091F5148E1710F4E093F5148BE0EA
:1015E0008E9FF0011124E95CFA4E0180F281E02D1A
:1015F000FF83EE832681378139872887A681B781CB
:101600009E012E5F3F4F15963C932E931497378380
:101610002683EA8D8E9FF0011124E95CFA4EFD8746
:10162000EC8780818F5F80830F900FBE8091F414D0
:10163000882349F0E091A515F091A615928D8A8D29
:10164000981708F40DD8DF91CF910895CF93DF93C9
:101650001BC00FB6F8940F92E0910E15F0910F1584
:10166000C085D185CE0102960E94B4028091FA1401
:1016700081508093FA14809106158150809306154D
:101680000F900FBECE01BEDE809106158111E1CF15
:10169000DF91CF9108958F929F92AF92BF92CF9298
:1016A000DF92EF92FF92CF93DF936B017C01C42F07
:1016B0008090F6149090F714A090F814B090F9145C
:1016C0008091A5159091A61502960E94B4028FEF05
:1016D000C816D806E806F806B1F5CC23A1F1EBEF61
:1016E000F4E1A181B281C091A515D091A615BF8367
:1016F000AE83C091A515D091A61516968D919C919B
:101700001797998788871696CD91DC9117978091C6
:10171000A5159091A61502969D838C838091A515A1
:101720009091A615029617969C938E931697A0916A
:10173000A515B091A6151D96FC93EE931C9780817C
:101740008F5F80833FC0C80CD91CEA1CFB1CE09152
:10175000A515F091A615C282D382E482F582C81441
:10176000D904EA04FB0468F46091A5157091A615EC
:1017700080911D1590911E156E5F7F4F0E9477021C
:1017800021C06091A5157091A61580911F159091AB
:1017900020156E5F7F4F0E9477028091E91490912F
:1017A000EA14A091EB14B091EC14C816D906EA061D
:1017B000FB0640F4C092E914D092EA14E092EB14D4
:1017C000F092EC14DF91CF91FF90EF90DF90CF90EB
:1017D000BF90AF909F908F9008952F923F924F921D
:1017E0005F926F927F928F929F92AF92BF92CF92B1
:1017F000DF92EF92FF920F93CF93DF933C011B0197
:101800004A012901CA010E947C016C01892B71F0F7
:1018100084E390E00E947C01EC01892B19F0DC8EBE
:10182000CB8E06C0C6010E94250202C0C0E0D0E0F7
:10183000209761F0A12CB12C6E019201A401B1019D
:10184000C301EBDDCE0194DE81E001C08FEFDF91BB
:10185000CF910F91FF90EF90DF90CF90BF90AF901E
:101860009F908F907F906F905F904F903F902F90C0
:101870000895EF92FF920F930F2EF7EEEF2EF4E103
:10188000FF2EF02D00E020E030E040EC50E062E47C
:1018900072E08DEC90E0A1DF813011F40E94DD1444
:1018A0008130C9F4F8948FEF9FEFDC018093E91445
:1018B0009093EA14A093EB14B093EC1481E080931E
:1018C000F4141092F6141092F7141092F814109267
:1018D000F9140E94FE02809106020F91FF90EF9092
:1018E00008958091E6148F5F8093E61408950FB6F3
:1018F000F8940F926091F6147091F7148091F81497
:101900009091F9140F900FBE0895CF92DF92EF924D
:10191000FF92CF93DF938091E614811105C1C090AF
:10192000F614D090F714E090F814F090F9148FEFBB
:10193000C81AD80AE80AF80AC092F614D092F71426
:10194000E092F814F092F914C114D104E104F10406
:10195000B1F480911F159091201520911D153091A3
:101960001E153093201520931F1590931E158093FC
:101970001D158091EE148F5F8093EE141CDD809115
:10198000E9149091EA14A091EB14B091EC14C816EC
:10199000D906EA06FB0620F480E0B2C081E001C06F
:1019A00080E0E0911F15F0912015908191110CC0FD
:1019B0004FEF5FEFBA014093E9145093EA1460933C
:1019C000EB147093EC149CC0E0911F15F09120155E
:1019D0000780F085E02D0084F185E02D4281538160
:1019E00064817581C416D506E606F70648F440936F
:1019F000E9145093EA146093EB147093EC1480C0D4
:101A0000A485B585C681D781208531853F832E8306
:101A1000C085D185268137813D832C8311964D91D8
:101A20005C9112979F012E5F3F4F4217530731F48D
:101A30004085518512965C934E93119715861486B6
:101A40009C9191509C93A08DB18D109709F1C28902
:101A5000D389448955895F834E83C489D589428956
:101A600053895D834C8311966D917C911297AF01E0
:101A7000425F5F4F6417750731F4448955891296A8
:101A80005C934E931197118E108E9C9191509C9364
:101A9000A28D9091F5149A1710F4A093F5149BE081
:101AA0009A9FD0011124A95CBA4E11960D90BC9159
:101AB000A02DB783A68316964D915C9117975187F9
:101AC00040871696CD91DC9117973D832C8317960E
:101AD0003C932E931697A28D9A9FD0011124A95C56
:101AE000BA4EB587A4879C919F5F9C93228DE0910D
:101AF000A515F091A615928D291708F04FCF51CF5B
:101B0000E091A515F091A615E28D9BE0E99FF0010B
:101B10001124E95CFA4E9081923008F081E09091B6
:101B2000EF14911116C016C08091F0149091F11429
:101B3000A091F214B091F3140196A11DB11D8093F0
:101B4000F0149093F114A093F214B093F31480E086
:101B500001C081E0DF91CF91FF90EF90DF90CF90B7
:101B60000895CF92DF92EF92FF92CF93DF930FB65B
:101B7000F8940F928091E61481508093E61480913E
:101B8000E6148111BEC08091FA14811188C0BCC0D6
:101B9000E0911915F0911A150084F185E02DA08DC2
:101BA000B18DC289D389848995899F838E83C489A5
:101BB000D589828993899D838C8311962D913C913F
:101BC0001297CF010E962817390731F48489958929
:101BD00012969C938E931197118E108E8C9181503A
:101BE0008C93A485B585C681D781808591859F8397
:101BF0008E83C085D185868197819D838C83119644
:101C00008D919C9112979F012E5F3F4F82179307F2
:101C100031F48085918512969C938E931197158649
:101C200014868C9181508C93A28D8091F5148A1723
:101C300010F4A093F5148BE08A9FD0011124A95CC5
:101C4000BA4E11960D90BC91A02DB783A68316961F
:101C50004D915C911797518740871696CD91DC91F5
:101C600017973D832C8317963C932E931697A28D3E
:101C70008A9FD0011124A95CBA4EB587A4878C91A4
:101C80008F5F8C93928DA091A515B091A6155A9651
:101C90008C91981730F081E08093EF1402C0E0E05F
:101CA000F0E080911215811173CFEF2B09F083DBE7
:101CB000C090F014D090F114E090F214F090F3146E
:101CC000C114D104E104F104A1F01FDE882319F04E
:101CD00081E08093EF1481E0C81AD108E108F1088F
:101CE000A1F71092F0141092F1141092F2141092C5
:101CF000F3148091EF14882331F00E94300381E0C7
:101D000003C080E001C080E00F900FBEDF91CF9153
:101D1000FF90EF90DF90CF9008958F929F92AF92B7
:101D2000BF92CF92DF92EF92FF921F93CF93DF93F8
:101D3000EC016A017B01D5DD8090F6149090F714D8
:101D4000A090F814B090F91488819981AA81BB8180
:101D5000AC01BD014C0D5D1D6E1D7F1D88169906E1
:101D6000AA06BB0660F4481759076A077B0798F470
:101D700084169506A606B70680F010E013C0481733
:101D800059076A077B0758F084169506A606B7061A
:101D900040F010E007C010E005C011E003C011E002
:101DA00001C011E0488359836A837B83112341F08A
:101DB000CB01BA01681979098A099B0940E06BDCFB
:101DC000D0DE811102C00E943003812FDF91CF91BC
:101DD0001F91FF90EF90DF90CF90BF90AF909F90BA
:101DE0008F900895CF92DF92EF92FF926B017C016A
:101DF000672B682B692B39F074DD40E0C701B60111
:101E00004ADCAFDE01C080E0811102C00E943003D5
:101E1000FF90EF90DF90CF9008958091E614882393
:101E200021F081E08093EF1408951092EF14E09177
:101E3000A515F091A61520813181E091A515F091AD
:101E4000A615838D948D8217930760F06091A51578
:101E50007091A615635E7F4F8091A5159091A61590
:101E60000E946B178091F51401C08150282F30E03B
:101E70009BE0929FF001939FF00D1124E95CFA4ED4
:101E80009081992391F39BE0929FA001939F500D25
:101E90001124DF010180F281E02D0480F581E02D25
:101EA0001296FC93EE931197465C5A4EE417F50791
:101EB00029F444815581FD01528341839BE0929F27
:101EC000F001939FF00D1124E95CFA4E0180F2813C
:101ED000E02D208531853093A6152093A51580939C
:101EE000F5140895CF92DF92EF92FF926A017B0181
:101EF0006091A5157091A615625F7F4F0E947702D1
:101F000041E0C701B601C7DBFF90EF90DF90CF90B3
:101F10000895CF93DF93FC01CB01BA01A181B28177
:101F2000C091A515D091A615BB8BAA8BC091A51504
:101F3000D091A61516964D915C9117975D8B4C8BA1
:101F40001696CD91DC9117974091A5155091A61545
:101F5000425F5F4F5D834C834091A5155091A6155C
:101F6000425F5F4F17965C934E931697A091A5150D
:101F7000B091A6155996FC93EE93589730813F5F28
:101F80003083222319F06FEF7FEFCB01422F83DBE9
:101F9000DF91CF910895CF93DF93DC011796ED91F8
:101FA000FC9118970084F185E02DA08DB18DC28938
:101FB000D389848995899F838E83C489D5898289B1
:101FC00093899D838C8311968D919C9112979F018B
:101FD000225F3F4F8217930731F4848995891296C7
:101FE0009C938E931197118E108E8C9181508C93AF
:101FF0008091E614811152C0A485B585C681D78130
:10200000808591859F838E83C085D18586819781C8
:102010009D838C8311968D919C9112979F012E5FC9
:102020003F4F8217930731F48085918512969C93D8
:102030008E931197158614868C9181508C93A28D66
:102040008091F5148A1710F4A093F5148BE08A9F01
:10205000D0011124A95CBA4E11960D90BC91A02D0F
:10206000B783A68316964D915C9117975187408749
:102070001696CD91DC9117973D832C8317963C9350
:102080002E931697A28D8A9FD0011124A95CBA4E77
:10209000B587A4878C918F5F8C931CC042E155E17A
:1020A000DA011196CD91DC911297D38BC28B8E8180
:1020B0009F81958B848B8E819F81DC0115963C934B
:1020C0002E9314973F832E83518F408FDA018C918A
:1020D0008F5F8C93928DE091A515F091A615828D5E
:1020E000891720F481E08093EF1401C080E0DF9134
:1020F000CF9108950FB6F8940F922091EE14FC0141
:1021000020834091F6145091F7146091F814709167
:10211000F91441835283638374830F900FBE089533
:102120002091EE14FC0120834091F6145091F71495
:102130006091F8147091F91441835283638374831E
:1021400008958F929F92AF92BF92CF92DF92EF92BB
:10215000FF920F931F93CF93DF93FB010FB6F89479
:102160000F92C090F614D090F714E090F814F0900D
:10217000F914DC0111960D911D912D913C9114974C
:1021800046015701801A910AA20AB30A408151817F
:10219000628173814F3FBFEF5B076B077B0739F1AC
:1021A000EC01B881A091EE14BA1759F0C016D1060F
:1021B000E206F30630F0108211821282138281E06F
:1021C00017C084169506A606B70658F4481959098B
:1021D0006A097B094083518362837383A1DF80E0B6
:1021E00007C0108211821282138281E001C080E058
:1021F0000F900FBEDF91CF911F910F91FF90EF9045
:10220000DF90CF90BF90AF909F908F90089581E026
:102210008093EF1408958091A5159091A6150895C7
:102220008091F414882331F08091E614811104C068
:1022300082E0089581E0089580E008950F931F9350
:10224000CF93DF93FC01892B09F449C086A5815007
:1022500086A7228D95A5291709F443C0811143C093
:10226000EF018F010E5F1F4FC8010E94B402EDA560
:10227000EA8F8AE090E0A0E0B0E08E1B9109A1090E
:10228000B1098E879F87A88BB98B8091F5148E1723
:1022900010F4E093F5148BE08E9FF0011124E95CBB
:1022A000FA4E0180F281E02DFF83EE832681378193
:1022B00039872887A681B78115961C930E931497AA
:1022C00017830683EA8D8E9FF0011124E95CFA4E94
:1022D000FD87EC8780818F5F808381E005C080E08F
:1022E00003C080E001C080E0DF91CF911F910F918A
:1022F00008954F925F926F927F92AF92BF92CF926A
:10230000DF92EF92FF920F931F93CF93DF932801F9
:1023100039010FB6F8940F92E091A515F091A6152A
:10232000C82FD0E0EC0FFD1F83A9823071F1E0913E
:10233000A515F091A615CE01880F991F880F991F3A
:10234000E80FF91F87A590A9A1A9B2A940955095BA
:1023500060957095482359236A237B2347A750AB88
:1023600061AB72ABE091A515F091A615EC0FFD1FC6
:1023700081E083ABA114B104C104D10431F041E088
:10238000C601B50188D90E9430030F900FBE0FB669
:10239000F8940F92E114F104A1F0E091A515F091E9
:1023A000A615CE01880F991F880F991FE80FF91FF6
:1023B00087A590A9A1A9B2A9F70180839183A283DF
:1023C000B383E091A515F091A615EC0FFD1F83A92D
:1023D0008230E9F4E091A515F091A615CE01880FA1
:1023E000991F880F991FE80FF91F87A590A9A1A928
:1023F000B2A94094509460947094482259226A2261
:102400007B2247A650AA61AA72AA81E001C080E09F
:102410002091A5153091A615C20FD31F1BAA0F90AE
:102420000FBEDF91CF911F910F91FF90EF90DF9042
:10243000CF90BF90AF907F906F905F904F90089536
:102440008F929F92AF92BF92EF92FF920F93CF9392
:10245000DF93DC010FB6F8940F92E114F10489F0D8
:10246000E62FF0E0EE0FFF1FEE0FFF1FE80FF91F42
:1024700087A490A8A1A8B2A8F70180829182A28225
:10248000B38270E0FD01E60FF71F83A992E093ABE2
:10249000023001F118F4013031F04DC0033079F110
:1024A0000430D1F148C0660F771F660F771FFD011A
:1024B000E60FF71F87A490A8A1A8B2A8BA01A901A6
:1024C000482959296A297B2947A750AB61AB72ABD0
:1024D00001E034C0660F771F660F771FFD01E60F1E
:1024E000F71F47A550A961A972A94F5F5F4F6F4FB2
:1024F0007F4F47A750AB61AB72AB01E01FC0660FC7
:10250000771F660F771FFD01E60FF71F27A730AB78
:1025100041AB52AB01E012C0823079F0660F771FF9
:10252000660F771FFD01E60FF71F27A730AB41AB02
:1025300052AB01E003C001E001C000E0813009F0CE
:1025400069C01C96ED91FC911D971696CD91DC917A
:10255000179718968D919C9119979F838E83189643
:10256000CD91DC91199716968D919C9117979D832B
:102570008C83818192819D012E5F3F4F821793074B
:1025800031F418968D919C911997928381831D96B1
:102590001C921E921C978081815080835A96EC91E8
:1025A0005A978091F5148E1710F4E093F5148BE090
:1025B0008E9FF0011124E95CFA4E0180F281E02D3A
:1025C0001796FC93EE9316974681578119965C9364
:1025D0004E931897C681D7813D832C8337832683FA
:1025E0005A96EC915A978E9FF0011124E95CFA4EAD
:1025F0001D96FC93EE931C9780818F5F80835A9683
:102600009C91E091A515F091A615828D891710F483
:102610000E9430030F900FBE802FDF91CF910F915A
:10262000FF90EF90BF90AF909F908F9008958F9202
:102630009F92AF92BF92CF92DF92EF92FF920F9351
:10264000CF93DF93DC01E114F10489F0E62FF0E091
:10265000EE0FFF1FEE0FFF1FE80FF91F87A490A8D2
:10266000A1A8B2A8F70180829182A282B38270E011
:10267000FD01E60FF71F93A982E083AB023001F161
:1026800018F4013031F04DC0033079F10430D1F14C
:1026900048C0660F771F660F771FFD01E60FF71F13
:1026A00087A490A8A1A8B2A8BA01A90148295929CC
:1026B0006A297B2947A750AB61AB72AB81E034C07C
:1026C000660F771F660F771FFD01E60FF71F47A5FF
:1026D00050A961A972A94F5F5F4F6F4F7F4F47A706
:1026E00050AB61AB72AB81E01FC0660F771F660F06
:1026F000771FFD01E60FF71F27A730AB41AB52ABA9
:1027000081E012C0923079F0660F771F660F771F55
:10271000FD01E60FF71F27A730AB41AB52AB81E0BD
:1027200003C081E001C080E0913009F096C0909133
:10273000E61491115FC01C96ED91FC911D971696C1
:10274000CD91DC91179718962D913C9119973F8365
:102750002E831896CD91DC91199716962D913C9168
:1027600017973D832C83418152819D012E5F3F4FFE
:102770004217530731F418964D915C911997528383
:1027800041831D961C921E921C97908191509083BC
:102790005A96EC915A979091F5149E1710F4E09385
:1027A000F5149BE09E9FF0011124E95CFA4E018034
:1027B000F281E02D1796FC93EE9316974681578190
:1027C00019965C934E931897C681D7813D832C83CD
:1027D000378326835A96EC915A979E9FF0011124D5
:1027E000E95CFA4E1D96FC93EE931C9790819F5FD7
:1027F000908321C062E175E1FB01C181D2815396D2
:10280000DC93CE9352972E813F8155963C932E9325
:1028100054974E815F819D01225F3F4FFA013583BE
:1028200024833F832E8359967C936E935897FB01A4
:1028300090819F5F90835A962C91E091A515F0911D
:10284000A615928D921748F4C114D10419F091E0A5
:10285000F601908391E09093EF14DF91CF910F9167
:10286000FF90EF90DF90CF90BF90AF909F908F90B0
:102870000895009721F48091A5159091A6150FB6A3
:10288000F8940F9270E0FC01E60FF71F23A92230A5
:1028900031F4FC01E60FF71F13AA81E001C080E0CC
:1028A0000F900FBE0895DC01E091B115F091B215C3
:1028B000808191E0811190E09C93911108C0078084
:1028C000F085E02D6081718182819381089560E0BF
:1028D00070E0CB010895CF92DF92EF92FF920F93B9
:1028E0001F93FC014283538364837583938782879C
:1028F0000417150726073707C0F00C191D092E0904
:102900003F0986859785A089B189081719072A0785
:102910003B0700F5BF016E5F7F4F8091AF1590912F
:10292000B0150E94770280E018C00C151D052E0519
:102930003F0528F44C155D056E057F0568F4BF0161
:102940006E5F7F4F8091B1159091B2150E94770212
:1029500080E003C081E001C081E01F910F91FF90F2
:10296000EF90DF90CF9008950FB6F8940F9280917A
:10297000AD159091AE15892BE9F48EEB95E10E948F
:10298000620283EB95E10E9462028EEB95E19093E7
:10299000B2158093B11583EB95E19093B0158093B8
:1029A000AF1540E067E08AE00E9415059093AE15F0
:1029B0008093AD150F900FBE0895EF92FF920F9385
:1029C000D3DF8091AD159091AE15892B91F00F2E2C
:1029D000FBEAEF2EF5E1FF2EF02D03E020E030E0E2
:1029E00040EC50E067E472E087ED90E00E94ED0B70
:1029F00001C080E00F91FF90EF9008958F929F9219
:102A0000AF92BF92CF92DF92EF92FF920F931F93FC
:102A1000CF93DF93CDB7DEB727970FB6F894DEBF1D
:102A20000FBECDBFE091AD15F091AE15309781F19D
:102A300069832A833B834C835D839F838E836630C7
:102A4000F4F4EEDB823069F400E0A7019601BE01E8
:102A50006F5F7F4F8091AD159091AE150E94380544
:102A600018C000E020E030E0A901BE016F5F7F4F99
:102A70008091AD159091AE150E9438050AC020E0F6
:102A8000A801BE016F5F7F4FCF010E94C80501C042
:102A900080E027960FB6F894DEBF0FBECDBFDF9162
:102AA000CF911F910F91FF90EF90DF90CF90BF904B
:102AB000AF909F908F9008958F929F92AF92BF9208
:102AC000CF92DF92EF92FF920F931F93CF93DF93FA
:102AD0003BC00780F085E02D80809180A280B3808C
:102AE000C085D1858E010E5F1F4FC8010E94B402C0
:102AF000EC89FD89CE0119958E8982FF25C08E85CE
:102B00009F85A889B989880D991DAA1DBB1D8816A6
:102B10009906AA06BB0670F48A839B83AC83BD83A7
:102B2000DB87CA87B8018091B1159091B2150E94D8
:102B300077020AC0C12CD12C760100E010E0A5017B
:102B4000940160E0CE015ADFE091B115F091B21529
:102B500080818111BECF8091AF159091B015909377
:102B6000B2158093B115F093B015E093AF15DF91D6
:102B7000CF911F910F91FF90EF90DF90CF90BF907A
:102B8000AF909F908F900895CF92DF92EF92FF9237
:102B9000CF93DF93EC010E94770C6B017C01809155
:102BA000A7159091A815A091A915B091AA15C816BE
:102BB000D906EA06FB0620F47FDF81E0888301C0A6
:102BC0001882C092A715D092A815E092A915F0928C
:102BD000AA15C701B601DF91CF91FF90EF90DF906A
:102BE000CF9008954F925F926F927F928F929F92B3
:102BF000AF92BF92CF92DF92EF92FF920F931F930B
:102C0000CF93DF934B015C0129013A01E091B115AB
:102C1000F091B2150780F085E02DC085D185CE01F9
:102C200002960E94B4028E8982FF1BC04E855F858A
:102C300068897989480D591D6A1D7B1D75016401DC
:102C400093018201CE0147DE882369F0C12CD12C8B
:102C5000760100E010E0A501940160E0CE01CEDE37
:102C600002C08E7F8E8BEC89FD89CE011995DF9194
:102C7000CF911F910F91FF90EF90DF90CF90BF9079
:102C8000AF909F908F907F906F905F904F9008953E
:102C90008F929F92AF92BF92CF92DF92EF92FF926C
:102CA0001F93CF93DF931F92CDB7DEB76B017C01EB
:102CB000142F0E94710CCE01019666DF4B015C015E
:102CC000898181112DC011110DC08C149D04AE0499
:102CD000BF0440F00E94B10DA5019401C701B601E7
:102CE00081DF20C0112341F0E091AF15F091B015C4
:102CF000808111E0811110E0B701A601481959093E
:102D00006A097B09212F8091AD159091AE150E9423
:102D100092060E94B10D811105C00E94300302C0CD
:102D20000E94B10D0F90DF91CF911F91FF90EF9016
:102D3000DF90CF90BF90AF909F908F900895AF920B
:102D4000BF92CF92DF92EF92FF920F931F93CF9398
:102D5000DF93CDB7DEB728970FB6F894DEBF0FBE6E
:102D6000CDBF82C0898188230CF47EC0AE80BF8035
:102D7000D5011C968D919C911D97892B21F0C50141
:102D800002960E94B402CE010896FEDE8B019C01E1
:102D9000E9810E2E000CFF0BEA30F10508F064C04B
:102DA0008827EE58FF4F8F4F0C94A926F50186898E
:102DB0008160868BCA80DB80EC80FD8046855785EC
:102DC000608971894C0D5D1D6E1D7F1DC50183DD00
:102DD000882309F449C0D5015496ED91FC9155978B
:102DE000C5011995F501868982FF3EC04A815B8144
:102DF0006C817D8186859785A089B1899A01AB0117
:102E0000280F391F4A1F5B1FC12CD12C760100E00F
:102E100010E060E0C501F2DD27C0D50156968C9127
:102E200056978E7F56968C931FC0F50186898160D8
:102E3000868B4A815B816C817D8146875787608B59
:102E4000718B400F511F621F731F68017901C5010B
:102E500042DD0AC0F501868981FD04C0C5010E94DA
:102E6000250202C08E7F868B20E030E0A901BE01E2
:102E70006F5F7F4F8091AD159091AE150E94030654
:102E8000811170CF28960FB6F894DEBF0FBECDBF6C
:102E9000DF91CF911F910F91FF90EF90DF90CF9036
:102EA000BF90AF900895089584B1806884B985B1CA
:102EB000806885B9089583B1806883B90895F4DF87
:102EC0002FEF80E792E0215080409040E1F700C072
:102ED0000000F1DFF5CFE8DF2FEF87EA91E6215020
:102EE00080409040E1F700C00000E5DFF5CFCF93D0
:102EF000DF9381E00E94AB23BDD439D79F938F939A
:102F00008FE492E09F938F930E94352831D62FD77C
:102F10009F938F9382E692E09F938F930E94352830
:102F20008FED95E1B9D423D7CFEDD5E1DF93CF93E2
:102F30009F938F938BE792E09F938F930E94352806
:102F4000CE01C6D414D79F938F93DF93CF938FE88E
:102F500092E09F938F930E943528AE0164EA72E05D
:102F600085EC92E0E3D603D79F938F93DF93CF93C3
:102F700084EA92E09F938F9385EC92E09F938F93E6
:102F800086ED92E09F938F930E943528D4D4EFD69C
:102F90009F938F938CE093E09F938F930E943528AB
:102FA0008DB79EB782960FB6F8949EBF0FBE8DBFA9
:102FB00081E0BBD5DCD69F938F938BE193E09F9309
:102FC0008F930E94352884EF91E0BAD5D0D69F9395
:102FD0008F9381E08F9384EF8F938CE393E09F93A3
:102FE0008F930E9435288DB79EB70A960FB6F89436
:102FF0009EBF0FBE8DBFCAE080E0A3D4D82FB7D646
:103000009F938F931F92CF938CE593E09F938F9321
:103010000E9435280F900F900F900F900F900F90F7
:10302000D83059F080E00E940F2466E371E080E020
:1030300090E00E94F20EC150F9F6D83021F481E000
:103040000E94F12309C081E00E94002480E00E94D8
:10305000CE230E943003FDCFDF91CF910895CF930F
:10306000DF9300D01F92CDB7DEB78CE793E09F933C
:103070008F930E94352881E0EFD341E050E060E07B
:1030800070E082E090E00E948D0E80E0E5D366E97A
:1030900070E080E090E00E94F20E97D328DFE9EC28
:1030A000F5E186E0818382E080830E94770C69836A
:1030B0007A838B839C830F900F90E9ECF5E180E39A
:1030C000828389E3838382E0848383EA858384E047
:1030D00086838AE1878383E00E94212469EC75E17D
:1030E00080E058D444D69F938F938FE993E09F93C9
:1030F0008F930E94352848EA58E460E070E0CE01E2
:1031000001960E948D0E0F900F900F900F90D5CFCB
:103110001ED2282F30E02115310579F023303105FA
:1031200061F01F928F938BEB93E09F938F930E949C
:1031300035280F900F900F900F9064E670E080E0BC
:1031400090E00E94F20E18D2282F30E021153105B0
:1031500079F02330310561F01F928F9389ED93E070
:103160009F938F930E9435280F900F900F900F9090
:1031700065E070E080E090E00E94F20EC9CFEF922F
:10318000FF920F9341E060E070E08CE290E00E94DB
:10319000F10781B1816881B90E94080180E00E9435
:1031A000EA2260E070E081E017D30F2EF5E4EF2E05
:1031B000F6E1FF2EF02D07E020E030E040EC50E09B
:1031C0006AE174E088E898E10E94ED0B0F2EF3E4C9
:1031D000EF2EF6E1FF2EF02D04E020E030E040EC91
:1031E00050E062E374E08FE298E10E94ED0B97D12A
:1031F000811103C00E94390CFFCF86E394E00E9446
:10320000482881E090E00F91FF90EF90089550588A
:10321000BB27AA270ED01CC10DD130F012D120F04F
:1032200031F49F3F11F41EF402C10EF4E095E7FB68
:10323000F8C0E92F1ED180F3BA176207730784071D
:10324000950718F071F49EF536C10EF4E0950B2E3B
:10325000BA2FA02D0B01B90190010C01CA01A001E8
:103260001124FF27591B99F0593F50F4503E68F143
:103270001A16F040A22F232F342F4427585FF3CF84
:10328000469537952795A795F0405395C9F77EF455
:103290001F16BA0B620B730B840BBAF09150A1F09E
:1032A000FF0FBB1F661F771F881FC2F70EC0BA0F24
:1032B000621F731F841F48F4879577956795B795AC
:1032C000F7959E3F08F0B3CF9395880F08F09927A4
:1032D000EE0F9795879508950CD0BAC0B2D040F004
:1032E000A9D030F021F45F3F19F09BC05111E4C028
:1032F0009EC0BFD098F39923C9F35523B1F3951B12
:10330000550BBB27AA2762177307840738F09F5F06
:103310005F4F220F331F441FAA1FA9F333D00E2E75
:103320003AF0E0E830D091505040E695001CCAF7E2
:1033300029D0FE2F27D0660F771F881FBB1F2617A7
:1033400037074807AB07B0E809F0BB0B802DBF017A
:10335000FF2793585F4F2AF09E3F510568F061C0E8
:10336000ABC05F3FECF3983EDCF3869577956795AD
:10337000B795F7959F5FC9F7880F911D969587952B
:1033800097F90895E1E0660F771F881FBB1F62174A
:1033900073078407BA0720F0621B730B840BBA0B08
:1033A000EE1F88F7E0950895E89409C097FB3EF476
:1033B00090958095709561957F4F8F4F9F4F992382
:1033C000A9F0F92F96E9BB279395F6958795779500
:1033D0006795B795F111F8CFFAF4BB0F11F460FFC0
:1033E0001BC06F5F7F4F8F4F9F4F16C0882311F018
:1033F00096E911C0772321F09EE8872F762F05C02C
:10340000662371F096E8862F70E060E02AF09A95C6
:10341000660F771F881FDAF7880F9695879597F9BB
:10342000089597F99F6780E870E060E008959FEF46
:1034300080EC089500240A9416161706180609064B
:10344000089500240A94121613061406050608951A
:10345000092E0394000C11F4882352F0BB0F40F4A2
:10346000BF2B11F460FF04C06F5F7F4F8F4F9F4FE2
:10347000089557FD9058440F551F59F05F3F71F064
:103480004795880F97FB991F61F09F3F79F08795CB
:103490000895121613061406551FF2CF4695F1DF54
:1034A00008C0161617061806991FF1CF86957105E4
:1034B000610508940895E894BB2766277727CB0118
:1034C00097F908956530F1F4FA0180818F7390E0E7
:1034D000982F88272181822B90930A0280930902DA
:1034E0008281F0E48F9FC0011124FA012381269587
:1034F0002695822B909308028093070281E08093A7
:1035000047160895643051F080E090E490930802EB
:103510008093070290930A028093090208950F9303
:103520001F9302E61AE120E034E244EF50E060E04D
:1035300087E20E944324909349168093481621E025
:10354000892B09F020E0822F1F910F91089580911F
:10355000481690914916009759F040E060E070E0FD
:103560000E949424843031F41092471680E008952C
:1035700082E0089583E0089580914816909149165D
:10358000009739F064E00E94E024853021F083E068
:10359000089582E0089580E008950F931F93CF93DC
:1035A000DF931F921F92CDB7DEB78C0119822DC019
:1035B000E0918116EC3250F481E08E0F80938116F9
:1035C000F0E0ED54F94E8A81808302C0109281169A
:1035D0008A818A30D1F44091811650E0FA01EF548B
:1035E000F94E1082415051099E012F5F3F4F63EB0E
:1035F00076E180918416909185160E941609898142
:1036000081110E94300310928116BE016E5F7F4FC0
:10361000C8014AD5882361F20F900F90DF91CF91B6
:103620001F910F9108950F931F93CF93DF938C01F8
:10363000EB0180918416909185160E942308B801B1
:103640008AE496E10E941628209779F0EAE4F6E1F0
:1036500001900020E9F7319780E290E09183808328
:10366000BE018AE496E10E940B28EAE4F6E1DF015C
:103670000D900020E9F711978DE09AE011969C9348
:103680008E9312961C9201900020E9F73197EA542C
:10369000F641AE2F8AE496E1AC016A2F809186163E
:1036A00090918716ACD4811111C008E215E020E09A
:1036B00030E04DE250E06DE077E18091841690912A
:1036C00085160E945A098DE097E102C080E090E0E3
:1036D000DF91CF911F910F9108952F923F924F92BA
:1036E0005F926F927F928F929F92AF92BF92CF9292
:1036F000DF92EF92FF920F931F93CF93DF935C01C2
:10370000FC0101900020E9F731976F01C81AD90A2E
:103710005C2C0F2EF7EF8F2EF6E09F2EF02DE12C74
:10372000F12C4C2C3701F40101811281E801099040
:103730000020E9F72197C01BD10B3C2EF9E0CF16F2
:10374000D10458F0F4012080FEE02F1206C0B80129
:10375000C5010E94E627892B09F5442D351408F48C
:103760004C2F50E0B801C5010E941D28892B49F457
:10377000F301EE0FFF1FE60DF71DE950F94F208012
:103780000DC08FEFE81AF80AE3E08E0E911CF1E10C
:10379000EF16F10439F66894222424F8822DDF9183
:1037A000CF911F910F91FF90EF90DF90CF90BF903E
:1037B000AF909F908F907F906F905F904F903F90D1
:1037C0002F90089530DF89CF0895809184169091CD
:1037D00085160C94230808958F929F92AF92CF92F2
:1037E000EF920F931F93CF93C82F8B0141E060E0BE
:1037F00070E088EC90E00E94F1079093851680932A
:10380000841610938316009382160F2EFDEC8F2ED4
:10381000FAE19F2EF02D6894AA24A6F86894CC248F
:10382000C6F8E12C00E023E040E051EE60E070E0FB
:103830008C2F1ED39093871680938616E7E0F1E0D5
:10384000808180618083CF911F910F91EF90CF9005
:10385000AF909F908F900895882331F0E8E0F1E0D9
:1038600080818F7E80830895E8E0F1E0808180612F
:103870008083089560E070E08DE794E0D4DEEDE0B1
:10388000F7E101900020E9F73197ED50F74181E031
:10389000759708F080E00895CF93DF93EC0160E026
:1038A00070E08EE894E0BFDEEDE0F7E101900020EB
:1038B000E9F7EE51F74139F46DE077E1CE010E946E
:1038C000162880E002C0188281E0DF91CF91089530
:1038D000FC0101900020E9F79F01215131092817CF
:1038E000390729F4BC018CEB94E06CCF089589E092
:1038F0000895FC0101900020E9F79F012151310951
:103900002817390729F4BC018BEC94E05BCF0895AC
:1039100089E00895FC0101900020E9F79F01215200
:1039200031092817390729F4BC018AED94E04ACF00
:10393000089589E0089560E070E089E195E042CF64
:1039400008950F931F93E82FF0E0EE0FFF1FED5047
:10395000F94F6081718182E295E034DF811114C0FA
:1039600008E215E020E030E04DE250E06DE077E164
:1039700080918416909185160E945A09882321F01F
:103980008DE097E1AADE03C08DE097E1A6DE1F91EE
:103990000F9108950F931F93CF93DF931F92CDB78D
:1039A000DEB7DB0111969C911197953108F0B4C0F8
:1039B000992381F160E070E0272F30E0462F50E03E
:1039C000FD01E40FF51F928192959F709A3010F0DF
:1039D000995C01C0905DF901E256F94E90832F5F2A
:1039E0003F4FFD01E40FF51F92819F70492F50E07A
:1039F0004A30510514F0995C01C0905DF901E2561E
:103A0000F94E90837E5F6F5F11969C9111976917B5
:103A100098F201C070E0E72FF0E0E256F94E108214
:103A20004C91811103C08BE295E002C08DE295E0DC
:103A30002EE936E13F932F931F924F939F938F93DD
:103A400081E395E09F938F9380EE96E19F938F9310
:103A50000E94782860E070E080EE96E1B3DE0FB659
:103A6000F894DEBF0FBECDBF811159C008E215E04A
:103A700020E030E04DE250E06DE077E18091841687
:103A8000909185160E945A09882309F447C08DE059
:103A900097E123DE8E3009F042C087E08983809170
:103AA000821690918316892BA9F1BE016F5F7F4F1B
:103AB0008DE097E168D180938816E981F0E0E35FBB
:103AC000F84EDF010D900020E9F71197AE1BBF0BF8
:103AD000AA2391F0BB27CD0101979C0112F42F5F1F
:103AE0003F4F3595279520938916AF014F5F5F4F64
:103AF00064E18AE896E173D101E010E020E030E073
:103B000046E150E068E876E1809182169091831654
:103B10000E9453088EE003C084E101C080E00F9052
:103B2000DF91CF911F910F910895813019F061E4D9
:103B300075E002C06AE176E085E495E043CE089541
:103B40009F938F9386E795E09F938F9380EE96E106
:103B50009F938F930E94782860E070E080EE96E15A
:103B600031DE0F900F900F900F900F900F900895EF
:103B70002F923F924F925F926F927F928F929F927D
:103B8000AF92BF92CF92DF92EF92FF920F931F936B
:103B9000CF93DF93CDB7DEB7A0970FB6F894DEBF13
:103BA0000FBECDBF63EA75E08FEA95E03CDD95DDA1
:103BB0008111A3C080E2E2E2F2E0DE011196019001
:103BC0000D928A95E1F79E012F5F3F4F6901E12C2D
:103BD000F12C0F2EFBEBAF2EF5E0BF2EF02D00EEFB
:103BE00016E10F2EF4ED4F2EF5E05F2EF02D0F2E87
:103BF000FBEE8F2EF5E09F2EF02D0F2EF5E06F2EB1
:103C0000F6E07F2EF02D3E2C2F2CFF92EF92BF92EC
:103C1000AF921F930F930E94782860E070E0C80174
:103C200002DD5BDD0F900F900F900F900F900F90C3
:103C3000811163C032E03E15E8F4F60183818F9371
:103C400082818F9381818F9380818F93FF92EF92F6
:103C50005F924F921F930F930E94782860E070E06C
:103C6000C801E1DC3ADD0FB6F894DEBF0FBECDBF70
:103C7000811143C02F923F929F928F921F930F9377
:103C80000E94782860E070E0C801CDDC26DD0F904E
:103C90000F900F900F900F900F9081112EC02F92C8
:103CA0003F927F926F921F930F930E94782860E05B
:103CB00070E0C801B8DC11DD0F900F900F900F90ED
:103CC0000F900F90811119C03FEFE31AF30A84E0BF
:103CD000C80ED11C98E0E916F10409F094CF60E019
:103CE00070E08DE196E09FDCF8DC811106C060E0B9
:103CF00070E08EE296E097DCF0DCA0960FB6F894C8
:103D0000DEBF0FBECDBFDF91CF911F910F91FF900E
:103D1000EF90DF90CF90BF90AF909F908F907F906B
:103D20006F905F904F903F902F900895EF92FF9289
:103D30000F931F93CF93DF93EC018B017A0181E006
:103D4000F4DE81110DC0CE01D4DD811109C0C8019E
:103D5000E1DD811105C0C701BBDD811101C0EBDDD3
:103D6000DF91CF911F910F91FF90EF90089590E018
:103D7000FC01EE0FFF1F8E0F9F1FFC01E950F94F52
:103D8000818192810895DC01009729F1FB01208156
:103D9000FC0101900020E9F73197E81BF90B822F15
:103DA00090E0E817F907C8F080E008C0880F382FC6
:103DB000330F330F830F8053890F2F5FFD01E20F05
:103DC000F11D908130ED390F3A3010F49111EECFA2
:103DD000FB012083089580E0089580E008950F930B
:103DE0001F93CF93DF93DC01EA012097E1F1FA0101
:103DF00001900020E9F73197E41BF50B329710F59D
:103E000032C08D01040F151F30E0AE01420F531F69
:103E1000FA019081913428F09753592F5295507F91
:103E200003C0592F5295507F2C0F3D1FF9019181EE
:103E3000913410F0975301C09053950FF80190837F
:103E40008F5F01C080E0282F220F482F50E0FE0135
:103E500001900020E9F73197EC1BFD0B4E175F072F
:103E600010F48613CECFDF91CF911F910F9108955B
:103E70002F923F924F925F926F927F928F929F927A
:103E8000AF92CF92EF92FF920F931F93CF93DF9356
:103E9000CDB7DEB7F82E2A013B0188E090E061D76C
:103EA0008C018F2D90E0FC01EE0FFF1FE65CF84EB9
:103EB000118300830115110509F464C0880F991F4F
:103EC000FC01E55FFD4F80819181D8018D939C932A
:103ED0008C2D90E0880F991F880F991F42D71C01E5
:103EE00086E090E03ED77C014C2DB10159D6F80117
:103EF000F582E4828A2D90E0880F991F880F991F20
:103F000030D71C0186E090E02CD77C014A2DB1010E
:103F100047D6D8011396FC92EE92129717969C9270
:103F20008E921697FFB6F894ED91FC911197369703
:103F30008081826080838D909C90C301B20134DACD
:103F400020E030E040E051E476D69B01AC0160E037
:103F500074E284E79BE4C0D920E030E040E85FE30E
:103F600056D93AD6F40132976083D801ED91FC918D
:103F70001197359788E98083ED91FC91349786E01D
:103F80008083FFBEC801DF91CF911F910F91FF90F9
:103F9000EF90CF90AF909F908F907F906F905F90B9
:103FA0004F903F902F900895CF93DF93DC01892BA2
:103FB00001F11296ED91FC911397938182812581F5
:103FC000981B922384819817B1F08381269528232A
:103FD000C081D181C20FD11D68838F5F95818923F4
:103FE0008383ED91FC91359780818062808380E0AE
:103FF00003C081E001C082E0DF91CF910895EF928C
:10400000FF920F931F93CF93DF937C01009709F4E6
:1040100041C0DC011296ED91FC911397938182814E
:10402000981B858198238481891B8617A8F16623B4
:1040300041F1842F952FDC016150462F50E04F5FF6
:104040005F4F480F591FE701EA81FB81938182810D
:104050002581981B92238481981779F08C91938104
:1040600026952923608171818B01020F111DE801C2
:1040700088839F5F8581982393831196A417B50742
:1040800011F7D701ED91FC91359780818062808393
:1040900080E003C081E001C082E0DF91CF911F91F9
:1040A0000F91FF90EF9008950097D1F0DC011496E6
:1040B000ED91FC91159793818281981799F09281E7
:1040C000858186958923A081B181A80FB11D8C912E
:1040D000DB018C939F5F85819823928380E0089514
:1040E00081E0089583E008951F920F920FB60F921A
:1040F00011240BB60F922F933F934F935F936F93BF
:104100007F938F939F93AF93BF93CF93DF93EF935F
:10411000FF93A0913A17B0913B17109711F160915E
:10412000C6001496ED91FC911597938182812581AB
:10413000981B92238481981761F083812695282308
:10414000C081D181C20FD11D68838F5F9581892382
:1041500083831696ED91FC911797309711F0CD015E
:104160001995FF91EF91DF91CF91BF91AF919F9101
:104170008F917F916F915F914F913F912F910F9010
:104180000BBE0F900FBE0F901F9018951F920F92AD
:104190000FB60F9211240BB60F922F938F939F930C
:1041A000AF93BF93EF93FF93E0913A17F0913B17D2
:1041B0003097B9F00280F381E02D938182819817C6
:1041C000B1F092818581282F26952923A081B18184
:1041D000A20FB11D2C919F5F892382832093C6007B
:1041E0000BC0E1ECF0E080818F7D808305C0E1ECC5
:1041F000F0E080818F7D8083FF91EF91BF91AF913F
:104200009F918F912F910F900BBE0F900FBE0F902B
:104210001F9018951F920F920FB60F9211240BB694
:104220000F922F933F934F935F936F937F938F934F
:104230009F93AF93BF93CF93DF93EF93FF93A0919F
:104240003C17B0913D17109711F16091CE00149674
:10425000ED91FC911597938182812581981B922382
:104260008481981761F0838126952823C081D181AC
:10427000C20FD11D68838F5F958189238383169632
:10428000ED91FC911797309711F0CD011995FF91A1
:10429000EF91DF91CF91BF91AF919F918F917F91DE
:1042A0006F915F914F913F912F910F900BBE0F90A7
:1042B0000FBE0F901F9018951F920F920FB60F927E
:1042C00011240BB60F922F938F939F93AF93BF93AD
:1042D000EF93FF93E0913C17F0913D173097B9F0C1
:1042E0000280F381E02D938182819817B1F0928151
:1042F0008581282F26952923A081B181A20FB11D88
:104300002C919F5F892382832093CE000BC0E9EC20
:10431000F0E080818F7D808305C0E9ECF0E0808152
:104320008F7D8083FF91EF91BF91AF919F918F918E
:104330002F910F900BBE0F900FBE0F901F901895EE
:104340001F920F920FB60F9211240BB60F922F935C
:104350003F934F935F936F937F938F939F93AF930D
:10436000BF93CF93DF93EF93FF93A0913E17B0914C
:104370003F17109711F16091D6001496ED91FC91C2
:104380001597938182812581981B922384819817A8
:1043900061F0838126952823C081D181C20FD11D70
:1043A00068838F5F9581892383831696ED91FC91B5
:1043B0001797309711F0CD011995FF91EF91DF918B
:1043C000CF91BF91AF919F918F917F916F915F91AD
:1043D0004F913F912F910F900BBE0F900FBE0F90FA
:1043E0001F9018951F920F920FB60F9211240BB6C3
:1043F0000F922F938F939F93AF93BF93EF93FF935E
:10440000E0913E17F0913F173097B9F00280F381A9
:10441000E02D938182819817B1F092818581282FB8
:1044200026952923A081B181A20FB11D2C919F5FF8
:10443000892382832093D6000BC0E1EDF0E08081D8
:104440008F7D808305C0E1EDF0E080818F7D8083EA
:10445000FF91EF91BF91AF919F918F912F910F900D
:104460000BBE0F900FBE0F901F9018951F920F92CA
:104470000FB60F9211240BB60F922F933F934F93C9
:104480005F936F937F938F939F93AF93BF93CF93DC
:10449000DF93EF93FF93A0914017B09141171097CE
:1044A00011F1609136011496ED91FC91159793816D
:1044B00082812581981B92238481981761F08381E2
:1044C00026952823C081D181C20FD11D68838F5FBB
:1044D0009581892383831696ED91FC9117973097E8
:1044E00011F0CD011995FF91EF91DF91CF91BF911F
:1044F000AF919F918F917F916F915F914F913F917C
:104500002F910F900BBE0F900FBE0F901F9018951C
:104510001F920F920FB60F9211240BB60F922F938A
:104520008F939F93AF93BF93EF93FF93E0914017C7
:10453000F09141173097B9F00280F381E02D93811B
:1045400082819817B1F092818581282F26952923A1
:10455000A081B181A20FB11D2C919F5F892382831D
:10456000209336010BC0E1E3F1E080818F7D8083F1
:1045700005C0E1E3F1E080818F7D8083FF91EF91C1
:10458000BF91AF919F918F912F910F900BBE0F9084
:104590000FBE0F901F901895CF93DF931F92CDB74A
:1045A000DEB7BE016F5F7F4F809142179091431736
:1045B0007BDD8111F6CF898190E00F90DF91CF9163
:1045C0000895682F8091421790914317EDDC80E0A9
:1045D00090E008958F929F92AF92CF92EF920F93B7
:1045E000812C912C6894AA24A7F86894CC24C7F84D
:1045F000E12C00E023E040E051EE60E070E038DCC8
:104600009093431780934217EFE6F7E183E192E03E
:1046100091838083938382830F91EF90CF90AF90AB
:104620009F908F90089590E0FC01EE0FFF1FE80F20
:10463000F91FEE0FFF1FEC5BF84E238121111FC005
:104640009C01220F331FF901E80FF91FEE0FFF1F26
:10465000EC5BF84EA081B1814C91F901E80FF91F94
:10466000EE0FFF1FEC5BF84E81E090E0028002C08D
:10467000880F991F0A94E2F7842B8C930895FC010C
:10468000EE0FFF1FDF01A80FB91FAA0FBB1FAC5B06
:10469000B84E0D90BC91A02D2C91E80FF91FEE0F94
:1046A000FF1FEC5BF84E81E090E0028002C0880FB3
:1046B000991F0A94E2F7809582238C93089590E0E5
:1046C000FC01EE0FFF1FE80FF91FEE0FFF1FEC5B61
:1046D000F84E2381211120C09C01220F331FF901C4
:1046E000E80FF91FEE0FFF1FEC5BF84EA081B181C0
:1046F0004C91F901E80FF91FEE0FFF1FEC5BF84E2C
:1047000081E090E0028002C0880F991F0A94E2F7CE
:10471000809584238C930895FC01EE0FFF1FDF0129
:10472000A80FB91FAA0FBB1FAC5BB84E0D90BC9170
:10473000A02D2C91E80FF91FEE0FFF1FEC5BF84E38
:1047400081E090E0028002C0880F991F0A94E2F78E
:10475000822B8C930895CF93DF9390E0FC01EE0FB2
:10476000FF1FDF01A80FB91FAA0FBB1FAC5BB84E1C
:10477000CD91DC911197488121E030E012960C90A8
:10478000129702C0220F331F0A94E2F724272883CE
:10479000FD0181E08483DF91CF910895CF93DF9372
:1047A00090E0FC01EE0FFF1FDF01A80FB91FAA0F59
:1047B000BB1FAC5BB84ECD91DC911197488121E0D5
:1047C00030E012960C90129702C0220F331F0A9409
:1047D000E2F724272883FD0182E08483DF91CF91D3
:1047E0000895282F30E0F901EE0FFF1FE20FF31FAD
:1047F000EE0FFF1FEC5BF84E93E0948360CF0895BB
:10480000282F30E0F901EE0FFF1FE20FF31FEE0F2C
:10481000FF1FEC5BF84E94E0948305CF089590E081
:10482000FC01EE0FFF1FDF01A80FB91FAA0FBB1F6E
:10483000AC5BB84E26E015962C931597FD011482BB
:10484000089590E0FC01EE0FFF1FDF01A80FB91FD4
:10485000AA0FBB1FAC5BB84E15961C921597FD01B5
:104860001482089580916A1781110CC08CE08093A6
:10487000B8008FEF8093BB0084E08093BC0081E0A0
:1048800080936A170895AF92BF92CF92DF92EF9212
:10489000FF920F931F93CF93DF93A82EB62E69013B
:1048A0007A0184E090E05DD2EC01892B61F1A8826D
:1048B00081E0B81212C0C701B60120EA36E841E033
:1048C00050E025D2DA01C9014097A109B109B69596
:1048D000A79597958795898311C0C701B60120E8F0
:1048E0003AE146E050E013D2DA01C9014097A1094C
:1048F000B109B695A7959795879589831B830A83F8
:104900008C2F9D2F02C080E090E0DF91CF911F910E
:104910000F91FF90EF90DF90CF90BF90AF900895F0
:104920008091BC0081700895FF920F931F93CF93E5
:10493000DF930097D1F14A30D0F5F42E8B01EC01D2
:10494000EFDF811136C080915D1790915E17C81717
:10495000D90741F087DF89818093B800D0935E1733
:10496000C0935D1781E08F0D80935F178881880F5A
:1049700080936017FF2089F0F801A1E6B7E14FEFBF
:104980004F0D642F70E0CB010196B801680F791FBD
:1049900081918D93E617F707D9F788EF809321026D
:1049A00085EA8093BC0084E005C086E003C087E010
:1049B00001C082E0DF91CF911F910F91FF90089588
:1049C0001F93CF93DF93009729F16B3028F5162FB3
:1049D000EC01A6DF811122C080915D1790915E17D6
:1049E000C817D90741F03EDF89818093B800D09382
:1049F0005E17C0935D1710935F178881880F8160E1
:104A00008093601788EF8093210285EA8093BC0031
:104A100085E005C086E003C087E001C082E0DF9149
:104A2000CF911F9108951F920F920FB60F921124EC
:104A30000BB60F922F933F934F935F936F937F9398
:104A40008F939F93AF93BF93EF93FF93E091B90040
:104A50008E2F90E0FC013897E135F10508F075C024
:104A60008827E458FF4F8F4F74C110925C17E09174
:104A70005C1780915F17E81770F481E08E0F8093C8
:104A80005C17F0E0E05AF84E80818093BB0085E827
:104A90008093BC0072C084E98093BC0080915D1754
:104AA00090915E17DC011296ED91FC91139730976F
:104AB00009F463C020E040E050E064E019955DC077
:104AC000E0915C1781E08E0F80935C178091BB00B2
:104AD000F0E0E05AF84E80838091B900803411F400
:104AE00010925C1720915C1730E080915F1790E086
:104AF00001972817390724F485EC8093BC003DC04A
:104B000085E88093BC0039C08091BB00E0915C17C0
:104B1000F0E0E05AF84E808384E98093BC008091F5
:104B20005D1790915E17DC011296ED91FC91139741
:104B3000309719F120915F1740E657E165E019952C
:104B40001CC085EA8093BC0018C08091B900809396
:104B5000210284E08093BC0080915D1790915E17E4
:104B6000DC011296ED91FC911397309731F020E023
:104B700040E050E0609121021995FF91EF91BF91C3
:104B8000AF919F918F917F916F915F914F913F91E5
:104B90002F910F900BBE0F900FBE0F901F90189586
:104BA000FC01411101C0FED1842F90E09C012150F5
:104BB000310982239323892B09F0F4D1413808F07D
:104BC000F1D1128213824483440F41504583718393
:104BD000608380E090E008950E94411A88F09F571A
:104BE00098F0B92F9927B751B0F0E1F0660F771F11
:104BF000881F991F1AF0BA95C9F714C0B13091F007
:104C00000E945B1AB1E008950C945B1A672F782F0D
:104C10008827B85F39F0B93FCCF3869577956795CB
:104C2000B395D9F73EF490958095709561957F4F37
:104C30008F4F9F4F089511D00C94281A0E941A1A72
:104C400038F00E94211A20F0952311F00C94111ACB
:104C50000C94171A11240C945C1A0E94391A70F3E0
:104C6000959FC1F3950F50E0551F629FF001729F11
:104C7000BB27F00DB11D639FAA27F00DB11DAA1F20
:104C8000649F6627B00DA11D661F829F2227B00D6D
:104C9000A11D621F739FB00DA11D621F839FA00DF8
:104CA000611D221F749F3327A00D611D231F849F48
:104CB000600D211D822F762F6A2F11249F5750409F
:104CC0009AF0F1F088234AF0EE0FFF1FBB1F661F1A
:104CD000771F881F91505040A9F79E3F510580F0E3
:104CE0000C94111A0C945C1A5F3FE4F3983ED4F3D1
:104CF000869577956795B795F795E7959F5FC1F787
:104D0000FE2B880F911D9695879597F90895A1E23E
:104D10001A2EAA1BBB1BFD010DC0AA1FBB1FEE1F35
:104D2000FF1FA217B307E407F50720F0A21BB30B80
:104D3000E40BF50B661F771F881F991F1A9469F7FC
:104D400060957095809590959B01AC01BD01CF0158
:104D50000895EE0FFF1F881F8BBF0790F691E02D7F
:104D600019940F931F93CF93DF938230910510F422
:104D700082E090E0E0916D17F0916E1720E030E056
:104D8000A0E0B0E0309719F1408151810281138198
:104D900048175907C8F08417950769F4109731F040
:104DA00012960C93129713961C9327C000936D17BD
:104DB00010936E1722C02115310519F042175307C1
:104DC00018F49A01BD01EF01DF01F801DBCF2115D5
:104DD0003105F9F0281B390B2430310580F48A8124
:104DE0009B816115710521F0FB019383828304C0CF
:104DF00090936E1780936D17FE01329644C0FE01AA
:104E0000E20FF31F81939193225031093983288354
:104E10003AC020916B1730916C17232B41F42091ED
:104E200002023091030230936C1720936B1720918C
:104E30000002309101022115310541F42DB73EB732
:104E40004091040250910502241B350BE0916B1731
:104E5000F0916C17E217F307A0F42E1B3F0B2817F5
:104E6000390778F0AC014E5F5F4F2417350748F0E3
:104E70004E0F5F1F50936C1740936B178193919364
:104E800002C0E0E0F0E0CF01DF91CF911F910F91E0
:104E90000895CF93DF93009709F481C0FC01329706
:104EA00013821282A0916D17B0916E17109781F442
:104EB00020813181820F931F20916B1730916C17E5
:104EC0002817390751F5F0936C17E0936B1767C0FB
:104ED000ED0120E030E0CE17DF0740F44A815B812E
:104EE0009E0141155105F1F0EA01F5CFD383C2834C
:104EF00040815181840F951FC817D90759F48881C3
:104F00009981840F951F0296918380838A819B816A
:104F1000938382832115310529F4F0936E17E09372
:104F20006D173DC0E901FB83EA8349915991C40F94
:104F3000D51FEC17FD0761F480819181840F951FC7
:104F40000296E90199838883828193819B838A8376
:104F5000E0E0F0E012968D919C911397009719F084
:104F6000FD01DC01F7CF8D919C9111979D012E5F82
:104F70003F4F820F931F20916B1730916C172817AA
:104F8000390769F4309729F410926E1710926D1753
:104F900002C013821282B0936C17A0936B17DF913B
:104FA000CF91089581E090E0F8947DC3FB01DC018E
:104FB00002C001900D9241505040D8F70895DC0195
:104FC00001C06D9341505040E0F70895FB015191AD
:104FD0005523B1F0BF01DC01052E4D91442369F04A
:104FE00010D0D9F7CD010190002049F04D91411129
:104FF00008D0C9F3FB014111EECF81E090E00197A9
:105000000895402539F0403229F440294B57465E37
:1050100008F018940895FB01DC010D900020E9F7D9
:10502000119701900D920020E1F70895FB01DC013A
:1050300001900D920020E1F70895FB01DC01415041
:10504000504088F08D9181341CF08B350CF4805EDB
:10505000619161341CF06B350CF4605E861B61114C
:1050600071F3990B0895881BFCCFCF93DF93CDB7D5
:10507000DEB7AE014A5F5F4FFA0161917191AF01F6
:10508000809171179091721761D0DF91CF9108953F
:105090000F931F93CF93DF93E0917117F0917217E5
:1050A000238121FF1BC08C01D0E0C0E0F801819179
:1050B0008F016091711770917217DB011896ED9155
:1050C000FC911997882331F01995892B79F3DFEF3B
:1050D000CFEFECCF8AE01995892B19F08FEF9FEF76
:1050E00002C08D2F9C2FDF91CF911F910F910895BA
:1050F0000F931F93CF93DF93CDB7DEB72E970FB6E5
:10510000F894DEBF0FBECDBF0E891F8986E08C8369
:105110001A8309838FEF9FE79E838D83AE01465EDE
:105120005F4F688D798DCE01019610D0EF81F885A3
:10513000E00FF11F10822E960FB6F894DEBF0FBE5F
:10514000CDBFDF91CF911F910F9108952F923F9284
:105150004F925F926F927F928F929F92AF92BF9287
:10516000CF92DF92EF92FF920F931F93CF93DF9333
:10517000CDB7DEB72B970FB6F894DEBF0FBECDBF0D
:105180006C017B018A01FC0117821682838181FFF9
:10519000BFC1CE0101963C01F6019381F70193FD59
:1051A000859193FF81917F01882309F4ADC18532F8
:1051B00039F493FD859193FF81917F01853221F42C
:1051C000B60190E0D6D1E8CF912C212C312CFFE113
:1051D000F315D8F08B3279F038F4803279F08332DD
:1051E000A1F4232D20611DC08D3261F0803369F45C
:1051F000232D216016C0832D8260382EE32DE460BC
:105200003E2E2AC0F32DF8601DC037FC2DC020EDC6
:10521000280F2A3040F08E32B9F436FC75C1232DA8
:105220002064322E19C036FE06C08AE0989E200DFA
:105230001124922E11C0EAE02E9E200D1124222E60
:10524000F32DF0623F2E08C08C3621F4832D806848
:10525000382E02C0883641F4F70193FD859193FF03
:1052600081917F018111B3CF982F9F7D9554933009
:1052700028F40C5F1F4F9FE399830DC0833631F0F4
:10528000833771F0833509F055C020C0F801808163
:1052900089830E5F1F4F88248394912C530112C081
:1052A0002801F2E04F0E511CF801A080B18036FEBB
:1052B00003C0692D70E002C06FEF7FEFC5014ED1D2
:1052C0004C018201F32DFF773F2E15C0280122E00B
:1052D000420E511CF801A080B18036FE03C0692D3A
:1052E00070E002C06FEF7FEFC5012DD14C01F32DAF
:1052F000F0683F2E820133FC19C0822D90E08816A1
:105300009906A0F4B60180E290E033D12A94F5CF5B
:10531000F50137FC859137FE81915F01B60190E080
:1053200028D121102A9421E0821A91088114910435
:1053300079F7E1C0843611F0893639F5F80137FE86
:1053400007C060817181828193810C5F1F4F08C00B
:1053500060817181072E000C880B990B0E5F1F4F27
:10536000F32DFF763F2E97FF09C09095809570959D
:1053700061957F4F8F4F9F4FF0683F2E2AE030E0BE
:10538000A30133D1882E861844C0853731F4232DEC
:105390002F7EB22E2AE030E025C0932D997FB92EC2
:1053A0008F36C1F018F4883579F0AEC0803719F027
:1053B000883721F0A9C0E92FE061BE2EB4FE0DC0F0
:1053C000FB2DF460BF2E09C034FE0AC0292F2660D1
:1053D000B22E06C028E030E005C020E130E002C077
:1053E00020E132E0F801B7FE07C06081718182815F
:1053F00093810C5F1F4F06C06081718180E090E057
:105400000E5F1F4FA301F1D0882E8618FB2DFF776A
:105410003F2E36FE0DC0232D2E7FA22E891458F468
:1054200034FE0BC032FC09C0832D8E7EA82E05C031
:10543000B82CA32C03C0B82C01C0B92CA4FE0FC0FB
:10544000FE01E80DF11D8081803321F49A2D997EB3
:10545000A92E09C0A2FE06C0B394B39404C08A2D3D
:10546000867809F0B394A3FC10C0A0FE06C0B21465
:1054700080F4280C922C9B180DC0B21458F4B6017D
:1054800080E290E076D0B394F8CFB21418F42B18E1
:1054900002C0982C212CA4FE0FC0B60180E390E03E
:1054A00068D0A2FE16C0A1FC03C088E790E002C04D
:1054B00088E590E0B6010CC08A2D867851F0A1FEF7
:1054C00002C08BE201C080E2A7FC8DE2B60190E051
:1054D00050D0891430F4B60180E390E04AD09A9419
:1054E000F8CF8A94F301E80DF11D8081B60190E0B8
:1054F00040D08110F6CF222009F44ECEB60180E2D2
:1055000090E037D02A94F7CFF6018681978102C0C8
:105510008FEF9FEF2B960FB6F894DEBF0FBECDBF77
:10552000DF91CF911F910F91FF90EF90DF90CF907F
:10553000BF90AF909F908F907F906F905F904F90B3
:105540003F902F900895FC0105906150704001102C
:10555000D8F7809590958E0F9F1F0895FC0161509C
:10556000704001900110D8F7809590958E0F9F1F85
:1055700008950F931F93CF93DF93FB01238121FDA8
:1055800003C08FEF9FEF2CC022FF16C046815781CA
:10559000248135814217530744F4A081B1819D01D4
:1055A0002F5F3F4F318320838C93268137812F5F7C
:1055B0003F4F3783268314C08B01EC01FB0100842D
:1055C000F185E02D1995892BE1F6D80116968D917C
:1055D0009C911797019617969C938E931697CE01E0
:1055E000DF91CF911F910F910895FA01AA272830DA
:1055F00051F1203181F1E8946F936E7F6E5F7F4FA0
:105600008F4F9F4FAF4FB1E03ED0B4E03CD0670F1B
:10561000781F891F9A1FA11D680F791F8A1F911D6E
:10562000A11D6A0F711D811D911DA11D20D009F4BE
:1056300068943F912AE0269F11243019305D319300
:10564000DEF6CF010895462F4770405D4193B3E0E9
:105650000FD0C9F7F6CF462F4F70405D4A3318F090
:10566000495D31FD4052419302D0A9F7EACFB4E041
:10567000A6959795879577956795BA95C9F70097F9
:105680006105710508959B01AC010A2E069457959A
:10569000479537952795BA95C9F7620F731F841FF1
:0A56A000951FA01D0895F894FFCF98
:1056AA000000751720000900400040C600CE00D651
:1056BA000036010000000300000000E122CC2200B5
:1056CA0000F8A027BE33E034C1332042C43360E57A
:1056DA00AE33A0F2B133E0FFB433200DB833601A11
:1056EA00BB3349444C4500546D72205376630046DF
:1056FA006163746F72795265736574203E25733CD9
:10570A000A00436F6E66696775726520746F20457B
:10571A0055383638203E25733C0A004765742048C0
:10572A0057455549203E25733C3A2025730A0053B4
:10573A006574204465764555493A202573203E25EF
:10574A00733C0A00443935314443383741393238D9
:10575A004537304231433245444431313645383792
:10576A0033353246003245323035353445453042DC
:10577A00453732363500536574204F54414120492C
:10578A0064656E74697479206170704555493A256B
:10579A0073206170704B45593A25732064657645CC
:1057AA0055493A2573203E25733C0A0053617665B4
:1057BA00206D6163203E25733C0A005365742041C5
:1057CA006461707469766520446174612052617401
:1057DA00653A204F4E203E25733C0A0053657420DB
:1057EA0052656365697665722044656C61793A2011
:1057FA002564206D73203E25733C0A004A6F696E4A
:10580A00204E6574776F726B2054726965734C65AC
:10581A0066743A2564203E25733C0A006B6F6D6DF1
:10582A006572207669206865722069206C6F7261E2
:10583A002068616E646C6572207461736B3F0055F9
:10584A00706C6F6164204D657373616765203E25D6
:10585A00733C0A004C5248616E640054656D706571
:10586A007261747572652077616B657570206572F7
:10587A00726F723A2025640A0054656D7065726110
:10588A0074757265206D65617375726520657272D3
:10589A006F723A2025640A004675677469676865FD
:1058AA00643A20256425252054656D7065726174FB
:1058BA0075723A20256443B00A0054656D706572AA
:1058CA006174757265206D6561737572656D656E5B
:1058DA0074004C6564004661696C656420746F20CD
:1058EA00696E697469616C697A652074656D706541
:1058FA007261747572652073656E736F7200737965
:10590A0073207265736574006D61632070617573CD
:10591A0065006D616320726573756D6500737973D7
:10592A0020666163746F72795245534554007379E6
:10593A007320676574206877657569006D616320F7
:10594A006765742067776E62006D616320736574A2
:10595A00206C696E6B63686B202564006D6163203F
:10596A0073657420646576657569006D616320737B
:10597A00657420617070657569006D616320736577
:10598A0074206170706B6579006D61632073657452
:10599A00206E776B736B6579006D61632073657434
:1059AA0020617070736B6579006D61632073657433
:1059BA002064657661646472006D61632073617648
:1059CA0065006D6163206A6F696E00756E636E664D
:1059DA00006D616320747820257320256420257367
:1059EA00006F6666006D616320736574206164727E
:1059FA00006D61632067657420616472006D616384
:105A0A0020736574206472202564006D61632067C9
:105A1A006574206472006D61632073657420727806
:105A2A0064656C617931202564006D61632073655A
:105A3A0074206172202573006D616320676574208C
:105A4A006172003320383639353235303030006DE6
:105A5A0061632073657420727832006D616320730C
:105A6A00657420636820646379636C65202564200B
:105A7A00373939006D616320736574206368206665
:105A8A0072657120256420256C75006D6163207331
:105A9A00657420636820647272616E67652025648C
:105AAA0020302037006D616320736574206368209D
:105ABA00737461747573202564206F6E006D616361
:105ACA0020736574207077726964782031006D6183
