:10000000E5C0000004C1000002C1000000C1000002
:10001000FEC00000FCC00000FAC00000F8C00000F4
:10002000F6C00000F4C00000F2C00000F0C0000004
:10003000DDC30000ECC00000EAC00000E8C0000022
:10004000E6C00000E4C00000E2C00000E0C0000024
:10005000DEC00000DCC00000DAC00000D8C0000034
:10006000D6C000000C94DE210C943022D0C00000D9
:10007000CEC00000CCC00000CAC00000C8C0000054
:10008000C6C00000C4C00000C2C00000C0C0000064
:100090000C9474220C94C622BAC000000C947D26E5
:1000A000B6C00000B4C00000B2C00000B0C0000084
:1000B000AEC00000ACC00000AAC00000A8C0000094
:1000C000A6C00000A4C00000A2C000000C940A2337
:1000D0000C945C239CC000000C94A0230C94F2238D
:1000E00096C00000BE18BE18BE18F518FD181219EB
:1000F000BE18BE18F518FD189F260F270F270F27CB
:100100000F270F270F270F279F260F270F270F27B0
:100110000F270F270F270F27A1260F270F270F279E
:100120000F270F270F270F270F270F270F270F271F
:100130000F270F270F270F27A1260F270F270F277E
:100140000F270F270F270F270F270F270F270F27FF
:100150000F270F270F270F270B270F270F270F27F3
:100160000F270F270F270F27D6260F270F270F2719
:100170000F270F270F270F270F270F270F270F27CF
:100180000F270F270F270F27CA260F270F270F2705
:100190000F270F270F270F27EE260E940E0C8091A6
:1001A0001515823008F05CD20E943B19F6CFCF9330
:1001B000DF931F92CDB7DEB7CE0101960E943B16AA
:1001C00049810E9430180E948718F6CF11241FBE63
:1001D000CFEFD1E2DEBFCDBF00E00CBF17E0A0E063
:1001E000B2E0E2E8FBE500E00BBF02C007900D9231
:1001F000A830B107D9F726E1A8E0B7E001C01D9209
:10020000A53FB207E1F70E94D91A0C94BF2DF8CE92
:100210000895E4E1F7E0A8E1B7E0B183A083138299
:100220001282E0ECF4E1F0931307E09312071382DB
:1002300012821182108288EA9DE013969C938E931D
:100240001297ED93FC9390930F0780930E07909372
:1002500011078093100780E090E89093090780933E
:1002600008070895CF93DF93EC01A4E1B7E001C044
:10027000DF01ED91FC911197EC17FD07C8F3129681
:100280008D919C9113979D01280F391FC217D30799
:1002900049F42A813B81820F931F13969C938E937E
:1002A0001297ED018A819B819E01280F391FE21769
:1002B000F307C1F42091120730911307E217F307F7
:1002C00071F022813381820F931F9B838A83ED918A
:1002D000FC911197808191819983888305C039832E
:1002E000288302C0F983E883CA17DB0711F0CD9396
:1002F000DC93DF91CF910895EF92FF920F931F93BC
:10030000CF93DF938C010E94590D80911207909139
:100310001307892B09F47DDF809108079091090765
:1003200080239123892B09F076C00115110549F02E
:10033000C80104960817190718F000E010E001C082
:100340008C010115110509F469C080911007909185
:1003500011078017910708F464C0C0911407D09169
:100360001507E4E1F7E002C0FE01EC018A819B8100
:100370008017910720F4888199810097A9F78091CF
:10038000120790911307C817D90709F44DC0E080F0
:10039000F18084E0E80EF11C88819981918380834B
:1003A0002A813B81201B310B2930310548F0CE01D9
:1003B000800F911FFC01338322831B830A8352DF4A
:1003C0002A813B818091100790911107821B930B2A
:1003D000909311078093100740910E0750910F07DB
:1003E0008417950720F490930F0780930E07809150
:1003F000080790910907282B392B3B832A83198200
:10040000188280910C0790910D07019690930D072B
:1004100080930C070BC0E12CF12C08C0E12CF12CCF
:1004200005C0E12CF12C02C0E12CF12C0E94990EA8
:10043000E114F10411F40E944719C701DF91CF9133
:100440001F910F91FF90EF9008950F931F93CF93FB
:10045000DF93009791F1EC0124974A815B81209111
:10046000080730910907BA0162237323672B29F12A
:1004700068817981672B09F52095309524233523F0
:100480003B832A830E94590D8A819B81209110070A
:1004900030911107820F931F9093110780931007DB
:1004A000CE01E0DE80910A0790910B0701969093B0
:1004B0000B0780930A070E94990EDF91CF911F913D
:1004C0000F910895FC010396928381834FEF5FEFB4
:1004D000BA014383548365837683908787839287A9
:1004E000818710820895FC011386128608950F9368
:1004F0001F93CF93DF93EB01088119812A813B8100
:100500000F3F4FEF14072407340721F4FC01A185A6
:10051000B28511C0DC01139601C0DF011496ED9184
:10052000FC911597408151816281738104171507F1
:100530002607370790F71496ED91FC911597FD83E8
:10054000EC83D783C683BF83AE831596DC93CE93AB
:1005500014979B878A87FC0120812F5F2083DF917E
:10056000CF911F910F910895CF93DF93FC01A28546
:10057000B385C481D581868197819F838E83C6810F
:10058000D781848195819D838C8311968D919C91D7
:100590001297E817F90731F48681978112969C9398
:1005A0008E931197138612868C9181508C938C9127
:1005B000DF91CF910895A89590EC88E10FB6F8945B
:1005C000A895809360000FBE909360000895FC0191
:1005D0006083319770833197108231971082319701
:1005E00020E8208331971082319710823197108252
:1005F000779740833197508386970895DCDFA091E9
:100600008315B0918415CD91CDBFDD91DEBFFF91F3
:10061000EF91DF91CF91BF91AF919F918F917F919A
:100620006F915F914F913F912F911F910F91FF908B
:10063000EF90DF90CF90BF90AF909F908F907F9082
:100640006F905F904F903F902F901F900F900CBE37
:100650000F900BBE0F900FBE0F90089581E008958C
:100660000F920FB6F8940F920BB60F920CB60F9232
:100670001F9211242F923F924F925F926F927F921E
:100680008F929F92AF92BF92CF92DF92EF92FF92A2
:100690000F931F932F933F934F935F936F937F938A
:1006A0008F939F93AF93BF93CF93DF93EF93FF937A
:1006B000A0918315B09184150DB60D920EB60D92D2
:1006C0000E94F50FA0918315B0918415CD91CDBFF7
:1006D000DD91DEBFFF91EF91DF91CF91BF91AF919F
:1006E0009F918F917F916F915F914F913F912F914A
:1006F0001F910F91FF90EF90DF90CF90BF90AF9040
:100700009F908F907F906F905F904F903F902F9031
:100710001F900F900CBE0F900BBE0F900FBE0F904E
:1007200008950F920FB6F8940F920BB60F920CB675
:100730000F921F9211242F923F924F925F926F92CD
:100740007F928F929F92AF92BF92CF92DF92EF9261
:10075000FF920F931F932F933F934F935F936F934A
:100760007F938F939F93AF93BF93CF93DF93EF9339
:10077000FF93A0918315B09184150DB60D920EB61E
:100780000D9213BE0E946D0D81110E94F50FA09174
:100790008315B0918415CD91CDBFDD91DEBFFF9162
:1007A000EF91DF91CF91BF91AF919F918F917F9109
:1007B0006F915F914F913F912F911F910F91FF90FA
:1007C000EF90DF90CF90BF90AF909F908F907F90F1
:1007D0006F905F904F903F902F901F900F900CBEA6
:1007E0000F900BBE0F900FBE0F9008959ADF1895D3
:1007F000DC0153962C915397222341F05A96ED91A8
:10080000FC915B9790818AE0891B089580E00895B0
:100810000FB6F8940F92FC01868D811102C081E021
:1008200001C080E00F900FBE08950FB6F8940F92AC
:10083000FC01268D878D281302C081E001C080E075
:100840000F900FBE08950F931F93CF93DF93EC018A
:10085000042F1E8D48A141110CC088819981892BDC
:1008600009F042C08C819D810E948D121D821C82E4
:1008700042C0011117C050E08A819B810E94422A28
:1008800028A18A819B81820F911D9B838A832C8161
:100890003D818217930750F1888199819B838A83D8
:1008A00080E029C050E08E819F810E94422A88A169
:1008B00090E09195819591092E813F81280F391FF4
:1008C0003F832E83488159812417350730F42C81CA
:1008D0003D81820F931F9F838E83023049F4112341
:1008E00049F0115080E007C080E005C080E003C0FF
:1008F00080E001C080E01F5F1E8FDF91CF911F91CC
:100900000F910895FC0140A14423A9F050E02681F5
:100910003781240F351F37832683848195812817DB
:10092000390720F08081918197838683CB0166818E
:1009300077810C94422A08951F93CF93DF93EC01A3
:100940000FB6F8940F921AA10BC08B89882351F02F
:10095000CE0143960E94B31081110E94EF111150F5
:1009600011169CF38FEF8AA30F900FBE0FB6F89469
:100970000F9219A10BC08885882351F0CE010896EB
:100980000E94B31081110E94EF11115011169CF3B7
:100990008FEF89A30F900FBEDF91CF911F91089524
:1009A000CF93DF93EC010FB6F8940F92E881F981B1
:1009B0008F8D28A190E030E0829FA001839F500D91
:1009C000929F500D11244E0F5F1F5D834C831E8E2E
:1009D000FB83EA830197289FA001299F500D389F30
:1009E000500D1124CF01840F951F9F838E838FEFAD
:1009F00089A38AA361110BC08885882371F0CE0179
:100A000008960E94B310882341F02ADE06C0CE016A
:100A1000089658DDCE01439655DD0F900FBE81E05C
:100A2000DF91CF9108950F931F93F801611103C0D7
:100A30001183008302C051834083878F60A361E0EC
:100A4000CF01AEDF1F910F910895DF92EF92FF92D9
:100A50000F931F93CF93DF93F82EE62ED42E869F0D
:100A6000C0011124839648DCEC01009741F08C0111
:100A70002D2DAC014D5D5F4F6E2D8F2DD4DFCE013E
:100A8000DF91CF911F910F91FF90EF90DF9008952C
:100A9000CF92DF92EF92FF920F931F93CF93DF934A
:100AA000CDB7DEB729970FB6F894DEBF0FBECDBF26
:100AB0007C016B012E833F834887598710E00FB676
:100AC000F8940F92F701968D878D981710F00230E9
:100AD000B1F4402FB601C701B6DEF701938999231F
:100AE00041F0C70143960E94B310882321F0B8DD7E
:100AF00002C08111B5DD0F900FBE81E04CC08E8128
:100B00009F81A885B985892B8A2B8B2B21F40F9087
:100B10000FBE80E040C0111105C0CE0101960E94B9
:100B2000781111E00F900FBEC4D70FB6F8940F9252
:100B3000F70181A18F3F09F411A2F70182A18F3F34
:100B400009F412A20F900FBEBE016A5F7F4FCE0163
:100B500001960E948911811119C0C70166DE8823A0
:100B600081F04E815F8168857985C70108960E9472
:100B70005A10C701E1DE0E94990E8111A0CF70DDED
:100B80009ECFC701D9DE0E94990E99CFC701D4DE4E
:100B90000E94990E80E029960FB6F894DEBF0FBE32
:100BA000CDBFDF91CF911F910F91FF90EF90DF901C
:100BB000CF9008950F93009769F0FC01158214827D
:100BC00011821082168200E020E030E0A90160E08E
:100BD00070E05EDF0F910895CF93DF93482F60E0C0
:100BE00081E033DFEC01E6DFCE01DF91CF910895A4
:100BF000EF92FF920F931F93CF93DF938A01FC0133
:100C0000568D378D531710F02230F9F4422F7801AA
:100C1000EC011AA18E8DCE0116DE1F3F81F48B8967
:100C20008823A9F0CE0143960E94B310882389F04F
:100C3000E114F10481F081E0F70180830DC0FF240D
:100C4000F394F10EFAA281E007C080E005C081E0D4
:100C500003C081E001C081E0DF91CF911F910F912E
:100C6000FF90EF900895CF92DF92EF92FF920F9353
:100C70001F93CF93DF93CDB7DEB729970FB6F894C4
:100C8000DEBF0FBECDBF8C016B012E833F83488733
:100C90005987E12C0FB6F8940F92F801F68CFF20DB
:100CA00099F0B601C8012EDEFA94F801F68E80851F
:100CB000882331F0C80108960E94B3108111D0DC5E
:100CC0000F900FBE81E04FC08E819F81A885B985AE
:100CD000892B8A2B8B2B21F40F900FBE80E043C011
:100CE000E11006C0CE0101960E947811EE24E39433
:100CF0000F900FBEDED60FB6F8940F92F80181A1C7
:100D00008F3F09F411A2F80182A18F3F09F412A2CA
:100D10000F900FBEBE016A5F7F4FCE0101960E9409
:100D20008911811117C0C80173DD882379F04E81C4
:100D30005F8168857985C80143960E945A10C80171
:100D4000FBDDF7D78111A6CF8BDCA4CFC801F4DD82
:100D5000F0D7A0CFC801F0DDECD7C80159DD88235A
:100D600009F498CF80E029960FB6F894DEBF0FBE45
:100D7000CDBFDF91CF911F910F91FF90EF90DF904A
:100D8000CF900895EF92FF920F931F93CF93DF932D
:100D9000CDB7DEB729970FB6F894DEBF0FBECDBF33
:100DA0008C014E835F8368877987E12CF12C0FB625
:100DB000F8940F92F801868D8823C9F08150868FB0
:100DC00080819181892B29F40E944F13F80195832A
:100DD0008483F8018085882331F0C80108960E9439
:100DE000B31081113DDC0F900FBE81E06FC08E818A
:100DF0009F81A885B985892B8A2B8B2B21F40F9095
:100E00000FBE80E063C0F11006C0CE0101960E94C3
:100E10007811FF24F3940F900FBE4BD60FB6F894C1
:100E20000F92F80181A18F3F09F411A2F80182A16C
:100E30008F3F09F412A20F900FBEBE016A5F7F4F71
:100E4000CE0101960E948911811126C0C801E0DC03
:100E50008823F1F0F80180819181892B51F40FB63C
:100E6000F8940F92848195810E940612E82E0F90CB
:100E70000FBE4E815F8168857985C80143960E94C7
:100E80005A10C80159DD55D7811191CFE9DB8FCFB9
:100E9000C80152DD4ED78BCFC8014EDD4AD7C801FD
:100EA000B7DC882309F483CFEE2079F00FB6F894ED
:100EB0000F92C8019DDC682FF801848195810E9402
:100EC000E8120F900FBE80E001C080E029960FB6B7
:100ED000F894DEBF0FBECDBFDF91CF911F910F9170
:100EE000FF90EF900895CF93DF93EC010FB6F89445
:100EF0000F9289A18F3F09F419A28AA18F3F09F4AB
:100F00001AA20F900FBE8E8D811104C0CE014396A0
:100F10000E947110CE0110DDDF91CF910895FC0188
:100F20004481558122813381240F351F8081918135
:100F3000B901681B790BCB016417750710F0841B8E
:100F4000950B08950F93FC018FE0DF011D928A95A8
:100F5000E9F775876487558344833783268306873B
:100F60000F910895AF92BF92CF92DF92EF92FF92CE
:100F70000F931F93CF93DF936C015B017A01FC0108
:100F8000C281D381048115810C1B1D0B40175107B1
:100F900008F48A01F60184859585A801B5018C0FB6
:100FA0009D1F0E94422A0E151F0558F4A701401BE1
:100FB000510BB501600F711FF601848595850E9464
:100FC000422ACE018E0D9F1DF601248135818217A4
:100FD000930710F0821B930BF60193838283C70162
:100FE000DF91CF911F910F91FF90EF90DF90CF9005
:100FF000BF90AF900895CF92DF92EF92FF920F9340
:101000001F93CF93DF931F921F92CDB7DEB77C0162
:101010006B015A83498321153105C1F0FC01868596
:1010200080FD08C04217530708F49A013A832983C8
:1010300081E00FC02017310758F042E050E0BE01B8
:101040006F5F7F4FC7018EDF81E003C080E001C08A
:1010500080E0882331F049815A81B601C70182DFDF
:1010600002C080E090E00F900F90DF91CF911F9130
:101070000F91FF90EF90DF90CF900895AF92BF92C5
:10108000CF92DF92EF92FF920F931F93CF93DF9354
:101090007C015B01E9014217530708F4EA0120973C
:1010A00081F1F7010081118184819581801B910B71
:1010B0006E018C179D0708F46C01F7016485758536
:1010C000600F711FA601C5010E94422ACC16DD06E1
:1010D00058F4AE014C195D09F70164857585C501A9
:1010E0008C0D9D1D0E94422A0C0F1D1FF70184814B
:1010F00095810817190710F0081B190BF7011183C8
:101100000083CE01DF91CF911F910F91FF90EF905F
:10111000DF90CF90BF90AF9008956F927F928F92A3
:101120009F92AF92BF92CF92DF92EF92FF920F9376
:101130001F93CF93DF931F921F92CDB7DEB76C0141
:101140004B015A01790101151105B1F0FC016080D4
:101150007180A801BE016F5F7F4F90DF89819A8106
:10116000E01AF10AA816B90630F4F601718260821D
:10117000A12CB12C01C05C019701A501B401C601ED
:101180007DDF0F900F90DF91CF911F910F91FF9016
:10119000EF90DF90CF90BF90AF909F908F907F9017
:1011A0006F900895CF92DF92EF92FF920F93CF93BB
:1011B000DF93EC016B01413011F401E001C000E06C
:1011C000C114D10419F4CC24C394D12CCE0140967F
:1011D000C817D90720F421968FD87C0102C0E12CD2
:1011E000F12CE114F10439F09601AE01B701615F11
:1011F0007F4FC701A7DEC701DF91CF910F91FF900D
:10120000EF90DF90CF9008950F930FB6F8940F9260
:10121000FC0120853185232B71F422853385232B16
:1012200061F4268137814481558164857585068501
:1012300089DE81E003C080E001C080E00F900FBE36
:101240000F910895FC012481358180819181820F65
:10125000931F42815381841B950B0197821793073B
:1012600010F0821B930B08952F923F924F925F9242
:101270006F927F928F929F92AF92BF92CF92DF92A6
:10128000EF92FF920F931F93CF93DF93CDB7DEB70B
:101290002B970FB6F894DEBF0FBECDBF4C017B87F6
:1012A0006A871A010E831F8328873987FC0184818E
:1012B00095810197268520FF0CC02A01F2E04F0E90
:1012C000511C8415950558F41E821F8218861986B4
:1012D00006C08417950710F02A0101C02C018E81E9
:1012E0009F81A885B985892B8A2B8B2B09F436C061
:1012F000CE010196E7D70FB6F8940F92C401A2DF92
:101300003C018415950538F560E080E090E00E948E
:1013100021160E94F311F401938782870F900FBE6C
:10132000AE80BF80C884D984E12CF12C00E010E0AD
:10133000980140E050E0BA0180E00E946113F4019E
:1013400013861286BE016A5F7F4FCE010196E1D7F8
:10135000882389F205C00F900FBE02C0612C712C4A
:101360006114710419F4C4016DDF3C018201930121
:10137000A1016A857B85C4013EDE6C01892BE9F001
:10138000C401CDDDF4012681378182179307A8F0CF
:1013900090D3F40180859185892B71F080859185AA
:1013A000E12CF12C00E020E030E0A90160E00E9497
:1013B0000814F40111861086BCD4C6012B960FB612
:1013C000F894DEBF0FBECDBFDF91CF911F910F917B
:1013D000FF90EF90DF90CF90BF90AF909F908F9055
:1013E0007F906F905F904F903F902F900895AF92B5
:1013F000BF92CF92DF92EF92FF920F931F93CF9302
:10140000DF93EC017B015A0169018E8580FF04C0E6
:101410008A010E5F1F4F01C08A01CE0113DF9C01BC
:10142000A501B701CE01E7DD5C01892BC1F0CE013A
:1014300076DD2E813F818217930788F08885998514
:10144000892B69F088859985E12CF12C00E020E05A
:1014500030E0A90160E00E94FF1419861886C501DA
:10146000DF91CF911F910F91FF90EF90DF90CF9080
:10147000BF90AF9008954F925F926F927F928F923C
:101480009F92AF92BF92CF92DF92EF92FF920F9313
:101490001F93CF93DF93EC012B013A0158016901AF
:1014A0008E8580FF05C06894882481F8912C02C045
:1014B000812C912CA114B104C104D10439F10FB6CF
:1014C000F8940F92CE012BDD7C018816990640F02E
:1014D00060E080E090E00E94211685D79987888798
:1014E0000F900FBE8E149F04A0F0E12CF12C00E0B1
:1014F00010E0980140E050E0BA0180E00E946113E2
:1015000019861886CE010BDD7C0103C0CE0107DDF4
:101510007C018E149F04E8F484019701A301B201B9
:10152000CE01FBDD6C01892BB1F0C3D28A859B858E
:10153000892B69F08A859B85E12CF12C00E020E065
:1015400030E0A90160E00E9408141B861A86F1D3DE
:1015500002C0C12CD12CC601DF91CF911F910F91F8
:10156000FF90EF90DF90CF90BF90AF909F908F90C3
:101570007F906F905F904F900895E091FD14F091EF
:10158000FE14808181110CC08FEF9FEFDC018093EE
:10159000C7149093C814A093C914B093CA140895A3
:1015A000E091FD14F091FE140780F085E02D80811C
:1015B0009181A281B3818093C7149093C814A093A2
:1015C000C914B093CA140895CF93DF93EC018B8DA7
:1015D0009C8D0E942502CE010E942502DF91CF91B1
:1015E00008954F925F926F927F928F929F92AF92E7
:1015F000BF92CF92DF92EF92FF920F93CF93DF9340
:101600002C015B014A013901E60165EA70E08B8D2E
:101610009C8D0E944B2A8B8D9C8D21E0821A910813
:10162000880E991EA114B10489F415C0822F90E090
:10163000F501E80FF91F3081DE01A80FB91F5D9693
:101640003C938081882329F02F5F01C020E0203166
:1016500068F31CA601C01D8E0A3008F009E00A8F4D
:101660000DA71EA6CE0102960E947302CE010E9611
:101670000E947302DB87CA878AE090E0A0E0B0E0B6
:10168000801B9109A109B1098E879F87A88BB98B0F
:10169000DF8BCE8B84E0FE01BF96DF011D928A9521
:1016A000E9F71BAAA301B201C4010E94E7029983D2
:1016B0008883E114F10419F0F701D183C083DF912D
:1016C000CF910F91FF90EF90DF90CF90BF90AF90B0
:1016D0009F908F907F906F905F904F900895CF93E1
:1016E000C0E009C02BE0C29FC00111248B5E9A4E5E
:1016F0000E946202CF5FCA30A8F38AE095E10E949F
:1017000062028FEF94E10E94620280EF94E10E94F6
:10171000620285EE94E10E94620289ED94E10E94EA
:1017200062028AE095E19093FE148093FD148FEF9E
:1017300094E19093FC148093FB14CF910895CF9380
:10174000DF93EC010FB6F8940F928091D8148F5F5D
:101750008093D8148091831590918415892B51F42E
:10176000D0938415C09383158091D814813091F45F
:10177000B6DF10C08091D21481110CC0E0918315A6
:10178000F0918415928D8A8D891720F0D09384155D
:10179000C09383158091CB148F5F8093CB14EA8D17
:1017A0008091D3148E1710F4E093D3148BE08E9FA6
:1017B000F0011124EB5EFA4E0180F281E02DFF83EF
:1017C000EE832681378139872887A681B7819E01DC
:1017D0002E5F3F4F15963C932E93149737832683A5
:1017E000EA8D8E9FF0011124EB5EFA4EFD87EC87A7
:1017F00080818F5F80830F900FBE8091D2148823E9
:1018000051F0E0918315F0918415928D8A8D98178F
:1018100010F40E943003DF91CF910895CF93DF93AE
:101820001BC00FB6F8940F92E091EC14F091ED14F8
:10183000C085D185CE0102960E94B4028091D81451
:1018400081508093D8148091E41481508093E414E3
:101850000F900FBECE01B8DE8091E4148111E1CF6C
:10186000DF91CF9108958F929F92AF92BF92CF92C6
:10187000DF92EF92FF92CF93DF936B017C01C42F35
:101880008090D4149090D514A090D614B090D71412
:10189000809183159091841502960E94B4028FEF77
:1018A000C816D806E806F806B1F5CC23A1F1E9ED93
:1018B000F4E1A181B281C0918315D0918415BF83D9
:1018C000AE83C0918315D091841516968D919C910D
:1018D0001797998788871696CD91DC9117978091F5
:1018E00083159091841502969D838C838091831536
:1018F00090918415029617969C938E931697A091BB
:101900008315B09184151D96FC93EE931C978081EE
:101910008F5F80833FC0C80CD91CEA1CFB1CE09180
:101920008315F0918415C282D382E482F582C814B3
:10193000D904EA04FB0468F460918315709184155E
:101940008091FB149091FC146E5F7F4F0E94770290
:1019500021C060918315709184158091FD14909140
:10196000FE146E5F7F4F0E9477028091C7149091A2
:10197000C814A091C914B091CA14C816D906EA06B1
:10198000FB0640F4C092C714D092C814E092C91468
:10199000F092CA14DF91CF91FF90EF90DF90CF903B
:1019A000BF90AF909F908F9008952F923F924F924B
:1019B0005F926F927F928F929F92AF92BF92CF92DF
:1019C000DF92EF92FF920F93CF93DF933C011B01C5
:1019D0004A012901CA010E947C016C01892B71F026
:1019E00084E390E00E947C01EC01892B19F0DC8EED
:1019F000CB8E06C0C6010E94250202C0C0E0D0E026
:101A0000209761F0A12CB12C6E019201A401B101CB
:101A1000C301E7DDCE0193DE81E001C08FEFDF91EE
:101A2000CF910F91FF90EF90DF90CF90BF90AF904C
:101A30009F908F907F906F905F904F903F902F90EE
:101A40000895EF92FF920F930F2EF5ECEF2EF4E135
:101A5000FF2EF02D00E020E030E040EC50E062E4AA
:101A600072E08DEC90E0A1DF813011F40E94C51688
:101A70008130C9F4F8948FEF9FEFDC018093C71495
:101A80009093C814A093C914B093CA1481E08093B2
:101A9000D2141092D4141092D5141092D61410921D
:101AA000D7140E94FE02809106020F91FF90EF90E2
:101AB00008958091C4148F5F8093C41408950FB665
:101AC000F8940F926091D4147091D5148091D6142B
:101AD0009091D7140F900FBE0895CF92DF92EF929E
:101AE000FF92CF93DF938091C414811105C1C09000
:101AF000D414D090D514E090D614F090D7148FEF72
:101B0000C81AD80AE80AF80AC092D414D092D51498
:101B1000E092D614F092D714C114D104E104F10478
:101B2000B1F48091FD149091FE142091FB1430913A
:101B3000FC143093FE142093FD149093FC148093B6
:101B4000FB148091CC148F5F8093CC1416DD8091B0
:101B5000C7149091C814A091C914B091CA14C816A2
:101B6000D906EA06FB0620F480E0B2C081E001C09D
:101B700080E0E091FD14F091FE14908191110CC071
:101B80004FEF5FEFBA014093C7145093C8146093AE
:101B9000C9147093CA149CC0E091FD14F091FE1416
:101BA0000780F085E02D0084F185E02D428153818E
:101BB00064817581C416D506E606F70648F440939D
:101BC000C7145093C8146093C9147093CA1480C08A
:101BD000A485B585C681D781208531853F832E8335
:101BE000C085D185268137813D832C8311964D9107
:101BF0005C9112979F012E5F3F4F4217530731F4BC
:101C00004085518512965C934E93119715861486E4
:101C10009C9191509C93A08DB18D109709F1C28930
:101C2000D389448955895F834E83C489D589428984
:101C300053895D834C8311966D917C911297AF010E
:101C4000425F5F4F6417750731F4448955891296D6
:101C50005C934E931197118E108E9C9191509C9392
:101C6000A28D9091D3149A1710F4A093D3149BE0F3
:101C70009A9FD0011124AB5EBA4E11960D90BC9183
:101C8000A02DB783A68316964D915C911797518727
:101C900040871696CD91DC9117973D832C8317963C
:101CA0003C932E931697A28D9A9FD0011124AB5E80
:101CB000BA4EB587A4879C919F5F9C93228DE0913B
:101CC0008315F0918415928D291708F04FCF51CFCD
:101CD000E0918315F0918415E28D9BE0E99FF0017E
:101CE0001124EB5EFA4E9081923008F081E09091E1
:101CF000CD14911116C016C08091CE149091CF14BE
:101D0000A091D014B091D1140196A11DB11D809362
:101D1000CE149093CF14A093D014B093D11480E03C
:101D200001C081E0DF91CF91FF90EF90DF90CF90E5
:101D30000895CF92DF92EF92FF92CF93DF930FB689
:101D4000F8940F928091C41481508093C4148091B0
:101D5000C4148111BEC08091D814811188C0BCC048
:101D6000E091F714F091F8140084F185E02DA08D36
:101D7000B18DC289D389848995899F838E83C489D3
:101D8000D589828993899D838C8311962D913C916D
:101D90001297CF010E962817390731F48489958957
:101DA00012969C938E931197118E108E8C91815068
:101DB0008C93A485B585C681D781808591859F83C5
:101DC0008E83C085D185868197819D838C83119672
:101DD0008D919C9112979F012E5F3F4F8217930721
:101DE00031F48085918512969C938E931197158678
:101DF00014868C9181508C93A28D8091D3148A1774
:101E000010F4A093D3148BE08A9FD0011124AB5E11
:101E1000BA4E11960D90BC91A02DB783A68316964D
:101E20004D915C911797518740871696CD91DC9123
:101E300017973D832C8317963C932E931697A28D6C
:101E40008A9FD0011124AB5EBA4EB587A4878C91CE
:101E50008F5F8C93928DA0918315B09184155A96C3
:101E60008C91981730F081E08093CD1402C0E0E0AF
:101E7000F0E08091F014811173CFEF2B09F07DDB3E
:101E8000C090CE14D090CF14E090D014F090D11424
:101E9000C114D104E104F104A1F01FDE882319F07C
:101EA00081E08093CD1481E0C81AD108E108F108DF
:101EB000A1F71092CE141092CF141092D014109259
:101EC000D1148091CD14882331F00E94300381E039
:101ED00003C080E001C080E00F900FBEDF91CF9182
:101EE000FF90EF90DF90CF9008958F929F92AF92E6
:101EF000BF92CF92DF92EF92FF921F93CF93DF9327
:101F0000EC016A017B01D5DD8090D4149090D5144A
:101F1000A090D614B090D71488819981AA81BB81F2
:101F2000AC01BD014C0D5D1D6E1D7F1D881699060F
:101F3000AA06BB0660F4481759076A077B0798F49E
:101F400084169506A606B70680F010E013C0481761
:101F500059076A077B0758F084169506A606B70648
:101F600040F010E007C010E005C011E003C011E030
:101F700001C011E0488359836A837B83112341F0B8
:101F8000CB01BA01681979098A099B0940E06BDC29
:101F9000D0DE811102C00E943003812FDF91CF91EA
:101FA0001F91FF90EF90DF90CF90BF90AF909F90E8
:101FB0008F900895CF92DF92EF92FF926B017C0198
:101FC000672B682B692B39F074DD40E0C701B6013F
:101FD0004ADCAFDE01C080E0811102C00E94300304
:101FE000FF90EF90DF90CF9008958091C4148823E4
:101FF00021F081E08093CD1408951092CD14E091EA
:102000008315F091841520813181E0918315F09141
:102010008415838D948D8217930760F060918315EA
:1020200070918415635E7F4F809183159091841524
:102030000E9453198091D31401C08150282F30E0A1
:102040009BE0929FF001939FF00D1124EB5EFA4EFE
:102050009081992391F39BE0929FA001939F500D53
:102060001124DF010180F281E02D0480F581E02D53
:102070001296FC93EE931197485E5A4EE417F507BB
:1020800029F444815581FD01528341839BE0929F55
:10209000F001939FF00D1124EB5EFA4E0180F28166
:1020A000E02D20853185309384152093831580930E
:1020B000D3140895CF92DF92EF92FF926A017B01D1
:1020C0006091831570918415625F7F4F0E94770243
:1020D00041E0C701B601C7DBFF90EF90DF90CF90E2
:1020E0000895CF93DF93FC01CB01BA01A181B281A6
:1020F000C0918315D0918415BB8BAA8BC091831599
:10210000D091841516964D915C9117975D8B4C8BF1
:102110001696CD91DC9117974091831550918415B7
:10212000425F5F4F5D834C834091831550918415CE
:10213000425F5F4F17965C934E931697A09183155D
:10214000B09184155996FC93EE93589730813F5F78
:102150003083222319F06FEF7FEFCB01422F83DB17
:10216000DF91CF910895CF93DF93DC011796ED9126
:10217000FC9118970084F185E02DA08DB18DC28966
:10218000D389848995899F838E83C489D5898289DF
:1021900093899D838C8311968D919C9112979F01B9
:1021A000225F3F4F8217930731F4848995891296F5
:1021B0009C938E931197118E108E8C9181508C93DD
:1021C0008091C414811152C0A485B585C681D78180
:1021D000808591859F838E83C085D18586819781F7
:1021E0009D838C8311968D919C9112979F012E5FF8
:1021F0003F4F8217930731F48085918512969C9307
:102200008E931197158614868C9181508C93A28D94
:102210008091D3148A1710F4A093D3148BE08A9F73
:10222000D0011124AB5EBA4E11960D90BC91A02D39
:10223000B783A68316964D915C9117975187408777
:102240001696CD91DC9117973D832C8317963C937E
:102250002E931697A28D8A9FD0011124AB5EBA4EA1
:10226000B587A4878C918F5F8C931CC040EF54E19D
:10227000DA011196CD91DC911297D38BC28B8E81AE
:102280009F81958B848B8E819F81DC0115963C9379
:102290002E9314973F832E83518F408FDA018C91B8
:1022A0008F5F8C93928DE0918315F0918415828DD0
:1022B000891720F481E08093CD1401C080E0DF9184
:1022C000CF9108950FB6F8940F922091CC14FC0191
:1022D00020834091D4145091D5146091D6147091FC
:1022E000D71441835283638374830F900FBE089584
:1022F0002091CC14FC0120834091D4145091D5142A
:102300006091D6147091D714418352836383748390
:1023100008958F929F92AF92BF92CF92DF92EF92E9
:10232000FF920F931F93CF93DF93FB010FB6F894A7
:102330000F92C090D414D090D514E090D614F090A1
:10234000D714DC0111960D911D912D913C9114979C
:1023500046015701801A910AA20AB30A40815181AD
:10236000628173814F3FBFEF5B076B077B0739F1DA
:10237000EC01B881A091CC14BA1759F0C016D1065F
:10238000E206F30630F0108211821282138281E09D
:1023900017C084169506A606B70658F448195909B9
:1023A0006A097B094083518362837383A1DF80E0E4
:1023B00007C0108211821282138281E001C080E086
:1023C0000F900FBEDF91CF911F910F91FF90EF9073
:1023D000DF90CF90BF90AF909F908F90089581E055
:1023E0008093CD140895809183159091841508955C
:1023F0008091D214882331F08091C414811104C0DB
:1024000082E0089581E0089580E008950F931F937E
:10241000CF93DF93FC01892B09F477C0828DA091C3
:102420008315B09184155A969C91891708F063C062
:102430004685578560897189772394F0A09183152B
:10244000B09184155A969C914AE050E060E070E0AB
:10245000491B51096109710946875787608B718B48
:10246000248535854BE0849FC00111248B5E9A4EF4
:1024700028173907B9F5EF018F010E5F1F4FC8010B
:102480000E94B402E0918315F0918415E28DEA8FE9
:102490008091D3148E1710F4E093D3148BE08E9FA9
:1024A000F0011124EB5EFA4E0180F281E02DFF83F2
:1024B000EE832681378139872887A681B7811596D3
:1024C0001C930E93149717830683EA8D8E9FF00159
:1024D0001124EB5EFA4EFD87EC8780818F5F80834D
:1024E00081E016C0A0918315B09184155A968C9105
:1024F000828F81E00DC095A5E0918315F091841540
:10250000828D981720F080E003C080E001C081E058
:10251000DF91CF911F910F9108950F931F93CF9348
:10252000DF93FC01892B09F449C086A5815086A759
:10253000228D95A5291709F443C0811143C0EF01ED
:102540008F010E5F1F4FC8010E94B402EDA5EA8FF4
:102550008AE090E0A0E0B0E08E1B9109A109B109EA
:102560008E879F87A88BB98B8091D3148E1710F418
:10257000E093D3148BE08E9FF0011124EB5EFA4EB2
:102580000180F281E02DFF83EE8326813781398738
:102590002887A681B78115961C930E9314971783ED
:1025A0000683EA8D8E9FF0011124EB5EFA4EFD87C3
:1025B000EC8780818F5F808381E005C080E003C06D
:1025C00080E001C080E0DF91CF911F910F910895CD
:1025D0000F931F93CF93DF93FC01892B09F45AC00B
:1025E00085A5861708F4862F928D891709F452C0A5
:1025F00026A5213009F04EC0828F46855785608917
:102600007189772364F04AE050E060E070E0481B95
:1026100051096109710946875787608B718B248541
:1026200035854BE0949FC00111248B5E9A4E28178C
:10263000390781F5EF018F010E5F1F4FC8010E941E
:10264000B402EA8D8091D3148E1710F4E093D31462
:102650008BE08E9FF0011124EB5EFA4E0180F28137
:10266000E02DFF83EE832681378139872887A68175
:10267000B78115961C930E93149717830683EA8DE2
:102680008E9FF0011124EB5EFA4EFD87EC8780816E
:102690008F5F8083DF91CF911F910F91089580917B
:1026A000831590918415892B39F0E0918315F09171
:1026B000841586A58F5F86A78091831590918415D8
:1026C00008954F925F926F927F92AF92BF92CF9296
:1026D000DF92EF92FF920F931F93CF93DF93280126
:1026E00039010FB6F8940F92E0918315F09184159B
:1026F000C82FD0E0EC0FFD1F83A9823071F1E0916B
:102700008315F0918415CE01880F991F880F991FAA
:10271000E80FF91F87A590A9A1A9B2A940955095E6
:1027200060957095482359236A237B2347A750ABB4
:1027300061AB72ABE0918315F0918415EC0FFD1F36
:1027400081E083ABA114B104C104D10431F041E0B4
:10275000C601B50188D80E9430030F900FBE0FB696
:10276000F8940F92E114F104A1F0E0918315F09137
:102770008415CE01880F991F880F991FE80FF91F44
:1027800087A590A9A1A9B2A9F70180839183A2830B
:10279000B383E0918315F0918415EC0FFD1F83A99D
:1027A0008230E9F4E0918315F0918415CE01880F11
:1027B000991F880F991FE80FF91F87A590A9A1A954
:1027C000B2A94094509460947094482259226A228D
:1027D0007B2247A650AA61AA72AA81E001C080E0CC
:1027E0002091831530918415C20FD31F1BAA0F901F
:1027F0000FBEDF91CF911F910F91FF90EF90DF906F
:10280000CF90BF90AF907F906F905F904F90089562
:102810008F929F92AF92BF92EF92FF920F93CF93BE
:10282000DF93DC010FB6F8940F92E114F10489F004
:10283000E62FF0E0EE0FFF1FEE0FFF1FE80FF91F6E
:1028400087A490A8A1A8B2A8F70180829182A28251
:10285000B38270E0FD01E60FF71F83A992E093AB0E
:10286000023001F118F4013031F04DC0033079F13C
:102870000430D1F148C0660F771F660F771FFD0146
:10288000E60FF71F87A490A8A1A8B2A8BA01A901D2
:10289000482959296A297B2947A750AB61AB72ABFC
:1028A00001E034C0660F771F660F771FFD01E60F4A
:1028B000F71F47A550A961A972A94F5F5F4F6F4FDE
:1028C0007F4F47A750AB61AB72AB01E01FC0660FF3
:1028D000771F660F771FFD01E60FF71F27A730ABA5
:1028E00041AB52AB01E012C0823079F0660F771F26
:1028F000660F771FFD01E60FF71F27A730AB41AB2F
:1029000052AB01E003C001E001C000E0813009F0FA
:1029100069C01C96ED91FC911D971696CD91DC91A6
:10292000179718968D919C9119979F838E8318966F
:10293000CD91DC91199716968D919C9117979D8357
:102940008C83818192819D012E5F3F4F8217930777
:1029500031F418968D919C911997928381831D96DD
:102960001C921E921C978081815080835A96EC9114
:102970005A978091D3148E1710F4E093D3148BE000
:102980008E9FF0011124EB5EFA4E0180F281E02D62
:102990001796FC93EE9316974681578119965C9390
:1029A0004E931897C681D7813D832C833783268326
:1029B0005A96EC915A978E9FF0011124EB5EFA4ED5
:1029C0001D96FC93EE931C9780818F5F80835A96AF
:1029D0009C91E0918315F0918415828D891710F4F4
:1029E0000E9430030F900FBE802FDF91CF910F9187
:1029F000FF90EF90BF90AF909F908F9008958F922F
:102A00009F92AF92BF92CF92DF92EF92FF920F937D
:102A1000CF93DF93DC01E114F10489F0E62FF0E0BD
:102A2000EE0FFF1FEE0FFF1FE80FF91F87A490A8FE
:102A3000A1A8B2A8F70180829182A282B38270E03D
:102A4000FD01E60FF71F93A982E083AB023001F18D
:102A500018F4013031F04DC0033079F10430D1F178
:102A600048C0660F771F660F771FFD01E60FF71F3F
:102A700087A490A8A1A8B2A8BA01A90148295929F8
:102A80006A297B2947A750AB61AB72AB81E034C0A8
:102A9000660F771F660F771FFD01E60FF71F47A52B
:102AA00050A961A972A94F5F5F4F6F4F7F4F47A732
:102AB00050AB61AB72AB81E01FC0660F771F660F32
:102AC000771FFD01E60FF71F27A730AB41AB52ABD5
:102AD00081E012C0923079F0660F771F660F771F82
:102AE000FD01E60FF71F27A730AB41AB52AB81E0EA
:102AF00003C081E001C080E0913009F096C0909160
:102B0000C41491115FC01C96ED91FC911D9716960F
:102B1000CD91DC91179718962D913C9119973F8391
:102B20002E831896CD91DC91199716962D913C9194
:102B300017973D832C83418152819D012E5F3F4F2A
:102B40004217530731F418964D915C9119975283AF
:102B500041831D961C921E921C97908191509083E8
:102B60005A96EC915A979091D3149E1710F4E093D3
:102B7000D3149BE09E9FF0011124EB5EFA4E01807E
:102B8000F281E02D1796FC93EE93169746815781BC
:102B900019965C934E931897C681D7813D832C83F9
:102BA000378326835A96EC915A979E9FF001112401
:102BB000EB5EFA4E1D96FC93EE931C9790819F5FFF
:102BC000908321C060EF74E1FB01C181D2815396F3
:102BD000DC93CE9352972E813F8155963C932E9352
:102BE00054974E815F819D01225F3F4FFA013583EB
:102BF00024833F832E8359967C936E935897FB01D1
:102C000090819F5F90835A962C91E0918315F0916B
:102C10008415928D921748F4C114D10419F091E0F3
:102C2000F601908391E09093CD14DF91CF910F91B5
:102C3000FF90EF90DF90CF90BF90AF909F908F90DC
:102C40000895009721F480918315909184150FB613
:102C5000F8940F9270E0FC01E60FF71F23A92230D1
:102C600031F4FC01E60FF71F13AA81E001C080E0F8
:102C70000F900FBE0895DC01E0918F15F091901533
:102C8000808191E0811190E09C93911108C00780B0
:102C9000F085E02D6081718182819381089560E0EB
:102CA00070E0CB010895CF92DF92EF92FF920F93E5
:102CB0001F93FC01428353836483758393878287C8
:102CC0000417150726073707C0F00C191D092E0930
:102CD0003F0986859785A089B189081719072A07B2
:102CE0003B0700F5BF016E5F7F4F80918D1590917E
:102CF0008E150E94770280E018C00C151D052E0568
:102D00003F0528F44C155D056E057F0568F4BF018D
:102D10006E5F7F4F80918F15909190150E94770282
:102D200080E003C081E001C081E01F910F91FF901E
:102D3000EF90DF90CF9008950FB6F8940F928091A6
:102D40008B1590918C15892BE9F48CE995E10E9403
:102D5000620281E995E10E9462028CE995E190931B
:102D6000901580938F1581E995E190938E1580934E
:102D70008D1540E067E08AE00E94250590938C1550
:102D800080938B150F900FBE0895EF92FF920F93D3
:102D9000D3DF80918B1590918C15892B91F00F2E9C
:102DA000F9E8EF2EF5E1FF2EF02D03E020E030E012
:102DB00040EC50E067E472E087ED90E00E94D50CB3
:102DC00001C080E00F91FF90EF9008958F929F9245
:102DD000AF92BF92CF92DF92EF92FF920F931F9329
:102DE000CF93DF93CDB7DEB727970FB6F894DEBF4A
:102DF0000FBECDBFE0918B15F0918C15309781F10E
:102E000069832A833B834C835D839F838E836630F3
:102E1000F4F4EEDA823069F400E0A7019601BE0115
:102E20006F5F7F4F80918B1590918C150E944805A4
:102E300018C000E020E030E0A901BE016F5F7F4FC5
:102E400080918B1590918C150E9448050AC020E056
:102E5000A801BE016F5F7F4FCF010E94F80501C03E
:102E600080E027960FB6F894DEBF0FBECDBFDF918E
:102E7000CF911F910F91FF90EF90DF90CF90BF9077
:102E8000AF909F908F9008958F929F92AF92BF9234
:102E9000CF92DF92EF92FF920F931F93CF93DF9326
:102EA0003BC00780F085E02D80809180A280B380B8
:102EB000C085D1858E010E5F1F4FC8010E94B402EC
:102EC000EC89FD89CE0119958E8982FF25C08E85FA
:102ED0009F85A889B989880D991DAA1DBB1D8816D3
:102EE0009906AA06BB0670F48A839B83AC83BD83D4
:102EF000DB87CA87B80180918F15909190150E9449
:102F000077020AC0C12CD12C760100E010E0A501A7
:102F1000940160E0CE015ADFE0918F15F091901599
:102F200080818111BECF80918D1590918E159093E7
:102F3000901580938F15F0938E15E0938D15DF918A
:102F4000CF911F910F91FF90EF90DF90CF90BF90A6
:102F5000AF909F908F900895CF92DF92EF92FF9263
:102F6000CF93DF93EC010E945F0D6B017C01809198
:102F7000851590918615A0918715B0918815C81672
:102F8000D906EA06FB0620F47FDF81E0888301C0D2
:102F90001882C0928515D0928615E0928715F0921E
:102FA0008815C701B601DF91CF91FF90EF90DF90B8
:102FB000CF9008954F925F926F927F928F929F92DF
:102FC000AF92BF92CF92DF92EF92FF920F931F9337
:102FD000CF93DF934B015C0129013A01E0918F15FA
:102FE000F09190150780F085E02DC085D185CE0148
:102FF00002960E94B4028E8982FF1BC04E855F85B7
:1030000068897989480D591D6A1D7B1D7501640108
:1030100093018201CE0147DE882369F0C12CD12CB7
:10302000760100E010E0A501940160E0CE01CEDE63
:1030300002C08E7F8E8BEC89FD89CE011995DF91C0
:10304000CF911F910F91FF90EF90DF90CF90BF90A5
:10305000AF909F908F907F906F905F904F9008956A
:103060008F929F92AF92BF92CF92DF92EF92FF9298
:103070001F93CF93DF931F92CDB7DEB76B017C0117
:10308000142F0E94590DCE01019666DF4B015C01A1
:10309000898181112DC011110DC08C149D04AE04C5
:1030A000BF0440F00E94990EA5019401C701B6012A
:1030B00081DF20C0112341F0E0918D15F0918E1534
:1030C000808111E0811110E0B701A601481959096A
:1030D0006A097B09212F80918B1590918C150E9494
:1030E00073070E94990E811105C00E94300302C02F
:1030F0000E94990E0F90DF91CF911F91FF90EF905A
:10310000DF90CF90BF90AF909F908F900895AF9237
:10311000BF92CF92DF92EF92FF920F931F93CF93C4
:10312000DF93CDB7DEB728970FB6F894DEBF0FBE9A
:10313000CDBF82C0898188230CF47EC0AE80BF8061
:10314000D5011C968D919C911D97892B21F0C5016D
:1031500002960E94B402CE010896FEDE8B019C010D
:10316000E9810E2E000CFF0BEA30F10508F064C077
:103170008827EE58FF4F8F4F0C941529F50186894B
:103180008160868BCA80DB80EC80FD804685578518
:10319000608971894C0D5D1D6E1D7F1DC50183DD2C
:1031A000882309F449C0D5015496ED91FC915597B7
:1031B000C5011995F501868982FF3EC04A815B8170
:1031C0006C817D8186859785A089B1899A01AB0143
:1031D000280F391F4A1F5B1FC12CD12C760100E03C
:1031E00010E060E0C501F2DD27C0D50156968C9154
:1031F00056978E7F56968C931FC0F5018689816005
:10320000868B4A815B816C817D8146875787608B85
:10321000718B400F511F621F731F68017901C50137
:1032200042DD0AC0F501868981FD04C0C5010E9406
:10323000250202C08E7F868B20E030E0A901BE010E
:103240006F5F7F4F80918B1590918C150E94330694
:10325000811170CF28960FB6F894DEBF0FBECDBF98
:10326000DF91CF911F910F91FF90EF90DF90CF9062
:10327000BF90AF900895089584B1806884B985B1F6
:10328000806885B9089583B1806883B90895F4DFB3
:103290002FEF80E792E0215080409040E1F700C09E
:1032A0000000F1DFF5CFE8DF2FEF87EA91E621504C
:1032B00080409040E1F700C00000E5DFF5CF72D21A
:1032C000282F30E02115310579F02330310561F0E8
:1032D0001F928F938FE492E09F938F930E94A12A75
:1032E0000F900F900F900F9064E670E080E090E0F8
:1032F0000E94DA0F6CD2282F30E02115310579F0C9
:103300002330310561F01F928F938DE692E09F93F9
:103310008F930E94A12A0F900F900F900F9065E05D
:1033200070E080E090E00E94DA0F4FEF5FEFBA01AB
:103330008091E5169091E6160E94C20659D2C7EE1A
:10334000D6E191D17B836A8383D2888399839F93CB
:103350008F938B818F938A818F938CE892E09F93D8
:103360008F930E94A12A00E020E030E0A90160E0F4
:1033700070E08091E5169091E6160E9448050F9046
:103380000F900F900F900F900F9099CF0F931F9366
:10339000CF93DF93CDB7DEB764970FB6F894DEBF57
:1033A0000FBECDBF81E00E941525C9D345D69F939E
:1033B0008F938EEA92E09F938F930E94A12A3DD52E
:1033C0003BD69F938F9381EC92E09F938F930E94C3
:1033D000A12A8E010F5F1F4FC801C3D32DD61F93A3
:1033E0000F939F938F938AED92E09F938F930E9408
:1033F000A12AC801D2D320D69F938F931F930F93F6
:103400008EEE92E09F938F930E94A12AA80163E021
:1034100073E084E293E0EFD50FD69F938F931F93D1
:103420000F9383E093E09F938F9384E293E09F93C5
:103430008F9385E393E09F938F930E94A12AE0D31B
:10344000FBD59F938F938BE693E09F938F930E947E
:10345000A12A0FB6F894DEBF0FBECDBF81E0CAD45B
:10346000EBD59F938F938AE793E09F938F930E946E
:10347000A12A84EF91E0C9D4DFD59F938F9381E097
:103480008F9384EF8F938BE993E09F938F930E94A8
:10349000A12A0FB6F894DEBF0FBECDBF1AE080E0C0
:1034A000B5D3082FC9D59F938F931F921F938BEB92
:1034B00093E09F938F930E94A12A0F900F900F90FB
:1034C0000F900F900F90083059F080E00E947925FE
:1034D00066E371E080E090E00E94DA0F1150F9F6A7
:1034E000083021F481E00E945B2509C081E00E9440
:1034F0006A2580E00E9438250E943003FDCF649643
:103500000FB6F894DEBF0FBECDBFDF91CF911F91F4
:103510000F910895CF93DF9300D01F92CDB7DEB700
:1035200081E0FFD262E070E080E090E00E94DA0F7C
:1035300080E0F7D266E970E080E090E00E94DA0F68
:10354000A9D224DFE7EAF5E186E0818382E0808387
:103550000E945F0D69837A838B839C8348EA58E4D9
:1035600060E070E0CE0101960E94750FE7EAF5E198
:1035700080E3828389E3838382E0848383EA858393
:1035800084E086838AE1878383E00E948B2567EA53
:1035900075E180E064D350D59F938F938BED93E0DA
:1035A0009F938F930E94A12A0F900F900F900F90DE
:1035B000D5CFEF92FF920F9341E060E070E08CE294
:1035C00090E00E94D20881B1816881B90E9408010F
:1035D00080E00E94542460E070E081E062D283E0E9
:1035E00090E098DFE7EEF6E11382128211821082FA
:1035F0000F2EFFEBEF2EF5E1FF2EF02D07E020E080
:1036000030E040EC50E067EF73E08FE599E10E9415
:10361000D50C0F2EFDEBEF2EF5E1FF2EF02D01E086
:1036200020E030E040EC50E06FE074E08AE89AE19E
:103630000E94D50C81E00E94EC059093E6168093E1
:10364000E51698D0882339F083E194E00E94B42AEB
:1036500081E090E004C00E94210D80E090E00F9195
:10366000FF90EF90089504D06894B11150C0089570
:1036700033D088F09F5790F0B92F9927B751A0F019
:10368000D1F0660F771F881F991F1AF0BA95C9F7F6
:1036900012C0B13081F03AD0B1E0089537C0672F41
:1036A000782F8827B85F39F0B93FCCF386957795A6
:1036B0006795B395D9F73EF490958095709561958F
:1036C0007F4F8F4F9F4F089557FD9058440F551FC0
:1036D00059F05F3F71F04795880F97FB991F61F094
:1036E0009F3F79F087950895121613061406551F0B
:1036F000F2CF4695F1DF08C0161617061806991F77
:10370000F1CF86957105610508940895E894BB276B
:1037100066277727CB0197F908956530F1F4FA0110
:1037200080818F7390E0982F88272181822B90933E
:103730000A02809309028281F0E48F9FC001112464
:10374000FA01238126952695822B90930802809377
:10375000070281E08093C1150895643051F080E044
:1037600090E4909308028093070290930A0280935A
:10377000090208950F931F930DE81BE120E034E246
:1037800044EF50E060E087E20E94AD259093C315BE
:103790008093C21521E0892B09F020E0822F1F9130
:1037A0000F9108958091C2159091C315009759F01B
:1037B00040E060E070E00E94FE25843031F4109219
:1037C000C11580E0089582E0089583E00895809116
:1037D000C2159091C315009739F064E00E944A2603
:1037E000853021F083E0089582E0089580E0089517
:1037F0006091090270910A0280E090E00E942828FE
:1038000020E030E048EC52E40E948D2820E038EFC0
:103810004FE756E40C94BD2708956091070270911C
:10382000080280E090E00E94282820E030E045E295
:1038300053E40E948D2820E038EF4FE756E40E94C1
:10384000BD2720E030E040E252E40C945627089572
:10385000E4DF20E030E040E251E40E948D2803DF05
:10386000CB0108950F931F93CF93DF931F921F9265
:10387000CDB7DEB78C0119822DC0E091FB15EC327B
:1038800050F481E08E0F8093FB15F0E0E35DF94E7C
:103890008A81808302C01092FB158A818A30D1F41C
:1038A0004091FB1550E0FA01E55DF94E1082415060
:1038B00051099E012F5F3F4F6DE276E18091FE1529
:1038C0009091FF150E94F709898181110E943003B0
:1038D0001092FB15BE016E5F7F4FC8014FD5882344
:1038E00061F20F900F90DF91CF911F910F9108958A
:1038F0000F931F93CF93DF938C01EB018091FE1503
:103900009091FF150E940409B80184EC95E10E9492
:10391000822A209779F0E4ECF5E101900020E9F7A4
:10392000319780E290E091838083BE0184EC95E141
:103930000E94772AE4ECF5E1DF010D900020E9F721
:1039400011978DE09AE011969C938E9312961C929B
:1039500001900020E9F73197E45CF541AE2F84EC4B
:1039600095E1AC016A2F8091001690910116B1D4B7
:10397000811111C008E215E020E030E04DE250E096
:1039800067E876E18091FE159091FF150E943B0A51
:1039900087E896E102C080E090E0DF91CF911F912F
:1039A0000F9108952F923F924F925F926F927F9264
:1039B0008F929F92AF92BF92CF92DF92EF92FF923F
:1039C0000F931F93CF93DF935C01FC0101900020C4
:1039D000E9F731976F01C81AD90A5C2C0F2EF4ED64
:1039E0008F2EF6E09F2EF02DE12CF12C4C2C370180
:1039F000F40101811281E80109900020E9F7219783
:103A0000C01BD10B3C2EF9E0CF16D10458F0F401C5
:103A10002080FEE02F1206C0B801C5010E94522A84
:103A2000892B09F5442D351408F44C2F50E0B801CA
:103A3000C5010E94892A892B49F4F301EE0FFF1F6B
:103A4000E60DF71DEC52F94F20800DC08FEFE81AFC
:103A5000F80AE3E08E0E911CF1E1EF16F10439F65D
:103A60006894222424F8822DDF91CF911F910F9129
:103A7000FF90EF90DF90CF90BF90AF909F908F908E
:103A80007F906F905F904F903F902F90089530DF20
:103A900089CF08958091FE159091FF150C9404092B
:103AA00008958F929F92AF92CF92EF920F931F93B0
:103AB000CF93C82F8B0141E060E070E088EC90E08C
:103AC0000E94D2089093FF158093FE151093FD1568
:103AD0000093FC150F2EF2E38F2EFCE19F2EF02DAC
:103AE0006894AA24A6F86894CC24C6F8E12C00E0D7
:103AF00023E040E051EE60E070E08C2F1ED3909305
:103B0000011680930016E7E0F1E0808180618083F8
:103B1000CF911F910F91EF90CF90AF909F908F908A
:103B20000895882331F0E8E0F1E080818F7E808382
:103B30000895E8E0F1E0808180618083089560E08D
:103B400070E08AE594E0D4DEE7E8F6E10190002039
:103B5000E9F73197E758F64181E0759708F080E082
:103B60000895CF93DF93EC0160E070E08BE694E082
:103B7000BFDEE7E8F6E101900020E9F7E859F641F9
:103B800039F467E876E1CE010E94822A80E002C023
:103B9000188281E0DF91CF910895FC01019000200F
:103BA000E9F79F01215131092817390729F4BC0190
:103BB00089E994E06CCF089589E00895FC010190B3
:103BC0000020E9F79F01215131092817390729F40D
:103BD000BC0188EA94E05BCF089589E00895FC0178
:103BE00001900020E9F79F01215231092817390778
:103BF00029F4BC0187EB94E04ACF089589E0089549
:103C000060E070E086EF94E042CF08950F931F9339
:103C1000E82FF0E0EE0FFF1FE053F94F6081718154
:103C20008FEF94E034DF811114C008E215E020E04A
:103C300030E04DE250E067E876E18091FE1590912A
:103C4000FF150E943B0A882321F087E896E1AADE4F
:103C500003C087E896E1A6DE1F910F9108950F93A8
:103C60001F93CF93DF931F92CDB7DEB7DB01119681
:103C70009C911197953108F0B4C0992381F160E0CF
:103C800070E0272F30E0462F50E0FD01E40FF51FD4
:103C9000928192959F709A3010F0995C01C0905D6E
:103CA000F901E85EF94E90832F5F3F4FFD01E40F6D
:103CB000F51F92819F70492F50E04A30510514F052
:103CC000995C01C0905DF901E85EF94E90837E5FDA
:103CD0006F5F11969C911197691798F201C070E07F
:103CE000E72FF0E0E85EF94E10824C91811103C09D
:103CF00088E095E002C08AE095E028E136E13F9354
:103D00002F931F924F939F938F938EE095E09F93F5
:103D10008F938AE596E19F938F930E94E42A60E057
:103D200070E08AE596E1B3DE0FB6F894DEBF0FBE11
:103D3000CDBF811159C008E215E020E030E04DE22E
:103D400050E067E876E18091FE159091FF150E94A2
:103D50003B0A882309F447C087E896E123DE8E30CA
:103D600009F042C087E089838091FC159091FD1590
:103D7000892BA9F1BE016F5F7F4F87E896E168D17B
:103D800080930216E981F0E0E957F94EDF010D90CA
:103D90000020E9F71197AE1BBF0BAA2391F0BB27B8
:103DA000CD0101979C0112F42F5F3F4F3595279568
:103DB00020930316AF014F5F5F4F64E184E096E10B
:103DC00073D101E010E020E030E046E150E062E035
:103DD00076E18091FC159091FD150E9434098EE0EA
:103DE00003C084E101C080E00F90DF91CF911F916B
:103DF0000F910895813019F06EE175E002C067EF10
:103E000075E082E295E043CE08959F938F9383E51A
:103E100095E09F938F938AE596E19F938F930E94FD
:103E2000E42A60E070E08AE596E131DE0F900F90C1
:103E30000F900F900F900F9008952F923F924F92F6
:103E40005F926F927F928F929F92AF92BF92CF922A
:103E5000DF92EF92FF920F931F93CF93DF93CDB733
:103E6000DEB7A0970FB6F894DEBF0FBECDBF60E8F7
:103E700075E08CE895E03CDD95DD8111A3C080E222
:103E8000E2E2F2E0DE01119601900D928A95E1F7EF
:103E90009E012F5F3F4F6901E12CF12C0F2EF8E9B5
:103EA000AF2EF5E0BF2EF02D0AE516E10F2EF1EB57
:103EB0004F2EF5E05F2EF02D0F2EF8EC8F2EF5E053
:103EC0009F2EF02D0F2EF2EE6F2EF5E07F2EF02DAF
:103ED0003E2C2F2CFF92EF92BF92AF921F930F9325
:103EE0000E94E42A60E070E0C80102DD5BDD0F9013
:103EF0000F900F900F900F900F90811163C032E0E0
:103F00003E15E8F4F60183818F9382818F9381813E
:103F10008F9380818F93FF92EF925F924F921F93C6
:103F20000F930E94E42A60E070E0C801E1DC3ADD12
:103F30000FB6F894DEBF0FBECDBF811143C02F92E4
:103F40003F929F928F921F930F930E94E42A60E00A
:103F500070E0C801CDDC26DD0F900F900F900F9020
:103F60000F900F9081112EC02F923F927F926F92EF
:103F70001F930F930E94E42A60E070E0C801B8DC50
:103F800011DD0F900F900F900F900F900F908111F7
:103F900019C03FEFE31AF30A84E0C80ED11C98E081
:103FA000E916F10409F094CF60E070E08AEF95E043
:103FB0009FDCF8DC811106C060E070E08BE096E0E9
:103FC00097DCF0DCA0960FB6F894DEBF0FBECDBF35
:103FD000DF91CF911F910F91FF90EF90DF90CF90E5
:103FE000BF90AF909F908F907F906F905F904F9019
:103FF0003F902F900895EF92FF920F931F93CF93CE
:10400000DF93EC018B017A0181E0F4DE81110DC0B8
:10401000CE01D4DD811109C0C801E1DD811105C0E7
:10402000C701BBDD811101C0EBDDDF91CF911F9195
:104030000F91FF90EF90089590E0FC01EE0FFF1FAD
:104040008E0F9F1FFC01EC52F94F818192810895E0
:10405000DC01009729F1FB012081FC010190002087
:10406000E9F73197E81BF90B822F90E0E817F90781
:10407000C8F080E008C0880F382F330F330F830F4C
:104080008053890F2F5FFD01E20FF11D908130ED0C
:10409000390F3A3010F49111EECFFB0120830895CF
:1040A00080E0089580E008950F931F93CF93DF93EE
:1040B000DC01EA012097E1F1FA0101900020E9F723
:1040C0003197E41BF50B329710F532C08D01040FC8
:1040D000151F30E0AE01420F531FFA019081913459
:1040E00028F09753592F5295507F03C0592F52955E
:1040F000507F2C0F3D1FF9019181913410F097539F
:1041000001C09053950FF80190838F5F01C080E04C
:10411000282F220F482F50E0FE0101900020E9F7E0
:104120003197EC1BFD0B4E175F0710F48613CECFB3
:10413000DF91CF911F910F9108952F923F924F924F
:104140005F926F927F928F929F92AF92CF92EF92F7
:10415000FF920F931F93CF93DF93CDB7DEB7F82E67
:104160002A013B0188E090E00E941D298C018F2DDF
:1041700090E0FC01EE0FFF1FEC54F94E1183008319
:104180000115110509F468C0880F991FFC01E55F4E
:10419000FD4F80819181D8018D939C938C2D90E06F
:1041A000880F991F880F991F0E941D291C0186E006
:1041B00090E00E941D297C014C2DB1015BD6F801D5
:1041C000F582E4828A2D90E0880F991F880F991F4D
:1041D0000E941D291C0186E090E00E941D297C019F
:1041E0004A2DB10147D6D8011396FC92EE92129750
:1041F00017969C928E921697FFB6F894ED91FC91CB
:10420000119736978081826080838D909C90C30146
:10421000B2011ED720E030E040E051E47ED79B01A0
:10422000AC0160E074E284E79BE4A7D620E030E0D4
:1042300040E85FE33BD61CDAF40132976083D80193
:10424000ED91FC911197359788E98083ED91FC9170
:10425000349786E08083FFBEC801DF91CF911F9124
:104260000F91FF90EF90CF90AF909F908F907F90A5
:104270006F905F904F903F902F900895CF93DF9372
:10428000DC01892B01F11296ED91FC91139793813A
:1042900082812581981B922384819817B1F08381B4
:1042A00026952823C081D181C20FD11D68838F5FDD
:1042B000958189238383ED91FC913597808180627C
:1042C000808380E003C081E001C082E0DF91CF9174
:1042D0000895EF92FF920F931F93CF93DF937C018A
:1042E000009709F441C0DC011296ED91FC911397FF
:1042F00093818281981B858198238481891B8617ED
:10430000A8F1662341F1842F952FDC016150462FDF
:1043100050E04F5F5F4F480F591FE701EA81FB8173
:10432000938182812581981B92238481981779F04B
:104330008C91938126952923608171818B01020FD5
:10434000111DE80188839F5F8581982393831196CF
:10435000A417B50711F7D701ED91FC91359780812E
:104360008062808380E003C081E001C082E0DF9151
:10437000CF911F910F91FF90EF9008950097D1F08A
:10438000DC011496ED91FC91159793818281981729
:1043900099F09281858186958923A081B181A80FAA
:1043A000B11D8C91DB018C939F5F85819823928353
:1043B00080E0089581E0089583E008951F920F92B0
:1043C0000FB60F9211240BB60F922F933F934F937A
:1043D0005F936F937F938F939F93AF93BF93CF938D
:1043E000DF93EF93FF93A091B416B091B516109799
:1043F00011F16091C6001496ED91FC91159793818F
:1044000082812581981B92238481981761F0838192
:1044100026952823C081D181C20FD11D68838F5F6B
:104420009581892383831696ED91FC911797309798
:1044300011F0CD011995FF91EF91DF91CF91BF91CF
:10444000AF919F918F917F916F915F914F913F912C
:104450002F910F900BBE0F900FBE0F901F901895CD
:104460001F920F920FB60F9211240BB60F922F933B
:104470008F939F93AF93BF93EF93FF93E091B41605
:10448000F091B5163097B9F00280F381E02D938159
:1044900082819817B1F092818581282F2695292352
:1044A000A081B181A20FB11D2C919F5F89238283CE
:1044B0002093C6000BC0E1ECF0E080818F7D80830B
:1044C00005C0E1ECF0E080818F7D8083FF91EF916A
:1044D000BF91AF919F918F912F910F900BBE0F9035
:1044E0000FBE0F901F9018951F920F920FB60F924C
:1044F00011240BB60F922F933F934F935F936F93BB
:104500007F938F939F93AF93BF93CF93DF93EF935B
:10451000FF93A091B616B091B716109711F1609164
:10452000CE001496ED91FC9115979381828125819F
:10453000981B92238481981761F083812695282304
:10454000C081D181C20FD11D68838F5F958189237E
:1045500083831696ED91FC911797309711F0CD015A
:104560001995FF91EF91DF91CF91BF91AF919F91FD
:104570008F917F916F915F914F913F912F910F900C
:104580000BBE0F900FBE0F901F9018951F920F92A9
:104590000FB60F9211240BB60F922F938F939F9308
:1045A000AF93BF93EF93FF93E091B616F091B716D8
:1045B0003097B9F00280F381E02D938182819817C2
:1045C000B1F092818581282F26952923A081B18180
:1045D000A20FB11D2C919F5F892382832093CE006F
:1045E0000BC0E9ECF0E080818F7D808305C0E9ECB1
:1045F000F0E080818F7D8083FF91EF91BF91AF913B
:104600009F918F912F910F900BBE0F900FBE0F9027
:104610001F9018951F920F920FB60F9211240BB690
:104620000F922F933F934F935F936F937F938F934B
:104630009F93AF93BF93CF93DF93EF93FF93A0919B
:10464000B816B091B916109711F16091D600149672
:10465000ED91FC911597938182812581981B92237E
:104660008481981761F0838126952823C081D181A8
:10467000C20FD11D68838F5F95818923838316962E
:10468000ED91FC911797309711F0CD011995FF919D
:10469000EF91DF91CF91BF91AF919F918F917F91DA
:1046A0006F915F914F913F912F910F900BBE0F90A3
:1046B0000FBE0F901F9018951F920F920FB60F927A
:1046C00011240BB60F922F938F939F93AF93BF93A9
:1046D000EF93FF93E091B816F091B9163097B9F0C7
:1046E0000280F381E02D938182819817B1F092814D
:1046F0008581282F26952923A081B181A20FB11D84
:104700002C919F5F892382832093D6000BC0E1ED1B
:10471000F0E080818F7D808305C0E1EDF0E0808155
:104720008F7D8083FF91EF91BF91AF919F918F918A
:104730002F910F900BBE0F900FBE0F901F901895EA
:104740001F920F920FB60F9211240BB60F922F9358
:104750003F934F935F936F937F938F939F93AF9309
:10476000BF93CF93DF93EF93FF93A091BA16B091CD
:10477000BB16109711F1609136011496ED91FC91E2
:104780001597938182812581981B922384819817A4
:1047900061F0838126952823C081D181C20FD11D6C
:1047A00068838F5F9581892383831696ED91FC91B1
:1047B0001797309711F0CD011995FF91EF91DF9187
:1047C000CF91BF91AF919F918F917F916F915F91A9
:1047D0004F913F912F910F900BBE0F900FBE0F90F6
:1047E0001F9018951F920F920FB60F9211240BB6BF
:1047F0000F922F938F939F93AF93BF93EF93FF935A
:10480000E091BA16F091BB163097B9F00280F381AF
:10481000E02D938182819817B1F092818581282FB4
:1048200026952923A081B181A20FB11D2C919F5FF4
:1048300089238283209336010BC0E1E3F1E080817C
:104840008F7D808305C0E1E3F1E080818F7D8083EF
:10485000FF91EF91BF91AF919F918F912F910F9009
:104860000BBE0F900FBE0F901F901895CF93DF9344
:104870001F92CDB7DEB7BE016F5F7F4F8091BC1630
:104880009091BD167BDD8111F6CF898190E00F906C
:10489000DF91CF910895682F8091BC169091BD163D
:1048A000EDDC80E090E008958F929F92AF92CF92DE
:1048B000EF920F93812C912C6894AA24A7F8689406
:1048C000CC24C7F8E12C00E023E040E051EE60E0AA
:1048D00070E033DC9093BD168093BC16EFEEF6E1EA
:1048E00083E192E091838083938382830F91EF90A1
:1048F000CF90AF909F908F90089590E0FC01EE0FC5
:10490000FF1FE80FF91FEE0FFF1FE254F94E23813E
:1049100021111FC09C01220F331FF901E80FF91F5D
:10492000EE0FFF1FE254F94EA081B1814C91F901C5
:10493000E80FF91FEE0FFF1FE254F94E81E090E0FF
:10494000028002C0880F991F0A94E2F7842B8C938F
:104950000895FC01EE0FFF1FDF01A80FB91FAA0F7A
:10496000BB1FA254B94E0D90BC91A02D2C91E80F05
:10497000F91FEE0FFF1FE254F94E81E090E0028034
:1049800002C0880F991F0A94E2F7809582238C93C6
:10499000089590E0FC01EE0FFF1FE80FF91FEE0FE6
:1049A000FF1FE254F94E2381211120C09C01220FE8
:1049B000331FF901E80FF91FEE0FFF1FE254F94E04
:1049C000A081B1814C91F901E80FF91FEE0FFF1F93
:1049D000E254F94E81E090E0028002C0880F991FF6
:1049E0000A94E2F7809584238C930895FC01EE0FDE
:1049F000FF1FDF01A80FB91FAA0FBB1FA254B94E9A
:104A00000D90BC91A02D2C91E80FF91FEE0FFF1F08
:104A1000E254F94E81E090E0028002C0880F991FB5
:104A20000A94E2F7822B8C930895CF93DF9390E062
:104A3000FC01EE0FFF1FDF01A80FB91FAA0FBB1F5C
:104A4000A254B94ECD91DC911197488121E030E01C
:104A500012960C90129702C0220F331F0A94E2F7AD
:104A600024272883FD0181E08483DF91CF9108957D
:104A7000CF93DF9390E0FC01EE0FFF1FDF01A80F43
:104A8000B91FAA0FBB1FA254B94ECD91DC9111974B
:104A9000488121E030E012960C90129702C0220F5C
:104AA000331F0A94E2F724272883FD0182E08483E0
:104AB000DF91CF910895282F30E0F901EE0FFF1F0D
:104AC000E20FF31FEE0FFF1FE254F94E93E09483C1
:104AD00060CF0895282F30E0F901EE0FFF1FE20F9D
:104AE000F31FEE0FFF1FE254F94E94E0948305CFBD
:104AF000089590E0FC01EE0FFF1FDF01A80FB91F22
:104B0000AA0FBB1FA254B94E26E015962C931597F9
:104B1000FD011482089590E0FC01EE0FFF1FDF01FC
:104B2000A80FB91FAA0FBB1FA254B94E15961C920D
:104B30001597FD01148208958091E41681110CC02F
:104B40008CE08093B8008FEF8093BB0084E080936B
:104B5000BC0081E08093E4160895AF92BF92CF929B
:104B6000DF92EF92FF920F931F93CF93DF93A82EC4
:104B7000B62E69017A0184E090E05FD3EC01892BC5
:104B800061F1A88281E0B81212C0C701B60120EA23
:104B900036E841E050E027D3DA01C9014097A10986
:104BA000B109B695A79597958795898311C0C701D7
:104BB000B60120E83AE146E050E015D3DA01C90138
:104BC0004097A109B109B695A795979587958983CF
:104BD0001B830A838C2F9D2F02C080E090E0DF9121
:104BE000CF911F910F91FF90EF90DF90CF90BF90EA
:104BF000AF9008958091BC0081700895FF920F934B
:104C00001F93CF93DF930097D1F14A30D0F5F42E64
:104C10008B01EC01EFDF811136C08091D7169091A6
:104C2000D816C817D90741F087DF89818093B8006B
:104C3000D093D816C093D71681E08F0D8093D916E4
:104C40008881880F8093DA16FF2089F0F801ABED98
:104C5000B6E14FEF4F0D642F70E0CB010196B80124
:104C6000680F791F81918D93E617F707D9F788EFC1
:104C70008093210285EA8093BC0084E005C086E031
:104C800003C087E001C082E0DF91CF911F910F91B7
:104C9000FF9008951F93CF93DF93009729F16B3016
:104CA00028F5162FEC01A6DF811122C08091D716BE
:104CB0009091D816C817D90741F03EDF89818093BB
:104CC000B800D093D816C093D7161093D916888100
:104CD000880F81608093DA1688EF8093210285EA3D
:104CE0008093BC0085E005C086E003C087E001C07A
:104CF00082E0DF91CF911F9108951F920F920FB61E
:104D00000F9211240BB60F922F933F934F935F9303
:104D10006F937F938F939F93AF93BF93EF93FF9383
:104D2000E091B9008E2F90E0FC013897E135F10554
:104D300008F075C08827E458FF4F8F4F76C2109255
:104D4000D616E091D6168091D916E81770F481E056
:104D50008E0F8093D616F0E0E652F94E8081809354
:104D6000BB0085E88093BC0072C084E98093BC00DE
:104D70008091D7169091D816DC011296ED91FC9196
:104D80001397309709F463C020E040E050E064E0FE
:104D900019955DC0E091D61681E08E0F8093D616EE
:104DA0008091BB00F0E0E652F94E80838091B9001B
:104DB000803411F41092D6162091D61630E08091EE
:104DC000D91690E001972817390724F485EC8093D1
:104DD000BC003DC085E88093BC0039C08091BB0019
:104DE000E091D616F0E0E652F94E808384E9809394
:104DF000BC008091D7169091D816DC011296ED91E7
:104E0000FC911397309719F12091D9164AED56E18C
:104E100065E019951CC085EA8093BC0018C080919C
:104E2000B9008093210284E08093BC008091D71662
:104E30009091D816DC011296ED91FC911397309762
:104E400031F020E040E050E0609121021995FF919F
:104E5000EF91BF91AF919F918F917F916F915F91F2
:104E60004F913F912F910F900BBE0F900FBE0F905F
:104E70001F901895FC01411101C000D3842F90E0D0
:104E80009C012150310982239323892B09F0F6D20A
:104E9000413808F0F3D2128213824483440F415008
:104EA00045837183608380E090E008955058BB276C
:104EB000AA270ED021C112D130F017D120F031F441
:104EC0009F3F11F41EF407C10EF4E095E7FBFDC00F
:104ED000E92F0E94641B78F3BA17620773078407EF
:104EE000950720F079F4A6F50C94861B0EF4E09556
:104EF0000B2EBA2FA02D0B01B90190010C01CA0194
:104F0000A0011124FF27591B99F0593F50F4503E3E
:104F100068F11A16F040A22F232F342F4427585F30
:104F2000F3CF469537952795A795F0405395C9F748
:104F30007EF41F16BA0B620B730B840BBAF0915000
:104F4000A1F0FF0FBB1F661F771F881FC2F70EC09F
:104F5000BA0F621F731F841F48F487957795679572
:104F6000B795F7959E3F08F0B1CF9395880F08F05D
:104F70009927EE0F9795879508950DD0BDC0B5D0B0
:104F800048F0ACD038F021F45F3F21F09EC05111C1
:104F90000C94871BA0C00E94641B88F39923B9F36B
:104FA0005523A1F3951B550BBB27AA27621773073F
:104FB000840738F09F5F5F4F220F331F441FAA1FE3
:104FC000A9F334D00E2E3AF0E0E831D091505040A1
:104FD000E695001CCAF72AD0FE2F28D0660F771F4F
:104FE000881FBB1F261737074807AB07B0E809F033
:104FF000BB0B802DBF01FF2793585F4F32F09E3FC0
:10500000510570F062C00C94871B5F3FE4F3983E3B
:10501000D4F3869577956795B795F7959F5FC9F710
:10502000880F911D9695879597F90895E1E0660F91
:10503000771F881FBB1F621773078407BA0720F00A
:10504000621B730B840BBA0BEE1F88F7E095089573
:10505000E89409C097FB3EF4909580957095619512
:105060007F4F8F4F9F4F9923A9F0F92F96E9BB27C8
:105070009395F695879577956795B795F111F8CF44
:10508000FAF4BB0F11F460FF1BC06F5F7F4F8F4FAF
:105090009F4F16C0882311F096E911C0772321F0A5
:1050A0009EE8872F762F05C0662371F096E8862F3D
:1050B00070E060E02AF09A95660F771F881FDAF794
:1050C000880F9695879597F9089597F99F6780E8D7
:1050D00070E060E008959FEF80EC089500240A944A
:1050E0001616170618060906089500240A941216C3
:1050F0001306140605060895092E0394000C11F4F6
:10510000882352F0BB0F40F4BF2B11F460FF04C0A2
:105110006F5F7F4F8F4F9F4F08950CD0EDCFDEDF35
:1051200028F0E3DF18F0952309F0CFCFD4CF112476
:105130000C94871B0E94641B90F3959FC1F3950FFD
:1051400050E0551F629FF001729FBB27F00DB11D0B
:10515000639FAA27F00DB11DAA1F649F6627B00D9B
:10516000A11D661F829F2227B00DA11D621F739F84
:10517000B00DA11D621F839FA00D611D221F749F92
:105180003327A00D611D231F849F600D211D822FD9
:10519000762F6A2F11249F57504092F0E9F0882310
:1051A0004AF0EE0FFF1FBB1F661F771F881F91502D
:1051B0005040A9F79E3F510578F087CF0C94871B8C
:1051C0005F3FE4F3983ED4F3869577956795B7955E
:1051D000F795E7959F5FC1F7FE2B880F911D969578
:1051E000879597F90895A1E21A2EAA1BBB1BFD0112
:1051F0000DC0AA1FBB1FEE1FFF1FA217B307E407B6
:10520000F50720F0A21BB30BE40BF50B661F771F0D
:10521000881F991F1A9469F76095709580959095ED
:105220009B01AC01BD01CF010895EE0FFF1F881F48
:105230008BBF0790F691E02D19940F931F93CF9396
:10524000DF938230910510F482E090E0E091ED165A
:10525000F091EE1620E030E0A0E0B0E0309719F1D8
:10526000408151810281138148175907C8F0841782
:10527000950769F4109731F012960C9312971396D4
:105280001C9327C00093ED161093EE1622C0211533
:10529000310519F04217530718F49A01BD01EF01C7
:1052A000DF01F801DBCF21153105F9F0281B390B9F
:1052B0002430310580F48A819B816115710521F0CC
:1052C000FB019383828304C09093EE168093ED16C6
:1052D000FE01329644C0FE01E20FF31F81939193C9
:1052E00022503109398328833AC02091EB1630913E
:1052F000EC16232B41F420910202309103023093EB
:10530000EC162093EB16209100023091010221153A
:10531000310541F42DB73EB740910402509105028A
:10532000241B350BE091EB16F091EC16E217F30716
:10533000A0F42E1B3F0B2817390778F0AC014E5F05
:105340005F4F2417350748F04E0F5F1F5093EC1640
:105350004093EB168193919302C0E0E0F0E0CF011F
:10536000DF91CF911F910F910895CF93DF93009715
:1053700009F481C0FC01329713821282A091ED16CC
:10538000B091EE16109781F420813181820F931F26
:105390002091EB163091EC162817390751F5F09350
:1053A000EC16E093EB1667C0ED0120E030E0CE177D
:1053B000DF0740F44A815B819E0141155105F1F000
:1053C000EA01F5CFD383C28340815181840F951FB9
:1053D000C817D90759F488819981840F951F0296BF
:1053E000918380838A819B819383828321153105F8
:1053F00029F4F093EE16E093ED163DC0E901FB832E
:10540000EA8349915991C40FD51FEC17FD0761F448
:1054100080819181840F951F0296E9019983888389
:10542000828193819B838A83E0E0F0E012968D91E4
:105430009C911397009719F0FD01DC01F7CF8D9136
:105440009C9111979D012E5F3F4F820F931F2091DA
:10545000EB163091EC162817390769F4309729F4C8
:105460001092EE161092ED1602C013821282B093C3
:10547000EC16A093EB16DF91CF91089581E090E0B8
:10548000F8947DC3FB01DC0102C001900D924150F4
:105490005040D8F70895DC0101C06D934150504051
:1054A000E0F70895FB0151915523B1F0BF01DC01F4
:1054B000052E4D91442369F010D0D9F7CD0101900C
:1054C000002049F04D91411108D0C9F3FB01411171
:1054D000EECF81E090E001970895402539F0403209
:1054E00029F440294B57465E08F018940895FB01B3
:1054F000DC010D900020E9F7119701900D9200203A
:10550000E1F70895FB01DC0101900D920020E1F725
:105510000895FB01DC014150504088F08D918134A9
:105520001CF08B350CF4805E619161341CF06B359E
:105530000CF4605E861B611171F3990B0895881B52
:10554000FCCFCF93DF93CDB7DEB7AE014A5F5F4F9D
:10555000FA0161917191AF018091F1169091F2166B
:1055600061D0DF91CF9108950F931F93CF93DF9375
:10557000E091F116F091F216238121FF1BC08C01FE
:10558000D0E0C0E0F80181918F016091F116709137
:10559000F216DB011896ED91FC911997882331F0F2
:1055A0001995892B79F3DFEFCFEFECCF8AE01995CE
:1055B000892B19F08FEF9FEF02C08D2F9C2FDF9169
:1055C000CF911F910F9108950F931F93CF93DF9366
:1055D000CDB7DEB72E970FB6F894DEBF0FBECDBFA6
:1055E0000E891F8986E08C831A8309838FEF9FE7DA
:1055F0009E838D83AE01465E5F4F688D798DCE01AF
:10560000019610D0EF81F885E00FF11F10822E96E1
:105610000FB6F894DEBF0FBECDBFDF91CF911F91C3
:105620000F9108952F923F924F925F926F927F92C7
:105630008F929F92AF92BF92CF92DF92EF92FF92A2
:105640000F931F93CF93DF93CDB7DEB72B970FB692
:10565000F894DEBF0FBECDBF6C017B018A01FC0157
:1056600017821682838181FFBFC1CE0101963C0162
:10567000F6019381F70193FD859193FF81917F015D
:10568000882309F4ADC1853239F493FD859193FFE8
:1056900081917F01853221F4B60190E0D6D1E8CF27
:1056A000912C212C312CFFE1F315D8F08B3279F0BD
:1056B00038F4803279F08332A1F4232D20611DC0AB
:1056C0008D3261F0803369F4232D216016C0832D63
:1056D0008260382EE32DE4603E2E2AC0F32DF86060
:1056E0001DC037FC2DC020ED280F2A3040F08E322F
:1056F000B9F436FC75C1232D2064322E19C036FE54
:1057000006C08AE0989E200D1124922E11C0EAE076
:105710002E9E200D1124222EF32DF0623F2E08C064
:105720008C3621F4832D8068382E02C0883641F4EF
:10573000F70193FD859193FF81917F018111B3CF93
:10574000982F9F7D9554933028F40C5F1F4F9FE353
:1057500099830DC0833631F0833771F0833509F0BA
:1057600055C020C0F801808189830E5F1F4F8824B7
:105770008394912C530112C02801F2E04F0E511C6A
:10578000F801A080B18036FE03C0692D70E002C030
:105790006FEF7FEFC5014ED14C018201F32DFF77F2
:1057A0003F2E15C0280122E0420E511CF801A080B6
:1057B000B18036FE03C0692D70E002C06FEF7FEF4D
:1057C000C5012DD14C01F32DF0683F2E820133FC31
:1057D00019C0822D90E088169906A0F4B60180E2E7
:1057E00090E033D12A94F5CFF50137FC859137FE4F
:1057F00081915F01B60190E028D121102A9421E027
:10580000821A91088114910479F7E1C0843611F06D
:10581000893639F5F80137FE07C0608171818281D0
:1058200093810C5F1F4F08C060817181072E000CAF
:10583000880B990B0E5F1F4FF32DFF763F2E97FFBE
:1058400009C090958095709561957F4F8F4F9F4FC0
:10585000F0683F2E2AE030E0A30133D1882E86186D
:1058600044C0853731F4232D2F7EB22E2AE030E05C
:1058700025C0932D997FB92E8F36C1F018F4883545
:1058800079F0AEC0803719F0883721F0A9C0E92F30
:10589000E061BE2EB4FE0DC0FB2DF460BF2E09C02A
:1058A00034FE0AC0292F2660B22E06C028E030E060
:1058B00005C020E130E002C020E132E0F801B7FE8F
:1058C00007C060817181828193810C5F1F4F06C088
:1058D0006081718180E090E00E5F1F4FA301F1D0E5
:1058E000882E8618FB2DFF773F2E36FE0DC0232D08
:1058F0002E7FA22E891458F434FE0BC032FC09C04E
:10590000832D8E7EA82E05C0B82CA32C03C0B82CE6
:1059100001C0B92CA4FE0FC0FE01E80DF11D80816D
:10592000803321F49A2D997EA92E09C0A2FE06C0CB
:10593000B394B39404C08A2D867809F0B394A3FC81
:1059400010C0A0FE06C0B21480F4280C922C9B1844
:105950000DC0B21458F4B60180E290E076D0B39452
:10596000F8CFB21418F42B1802C0982C212CA4FEE6
:105970000FC0B60180E390E068D0A2FE16C0A1FC83
:1059800003C088E790E002C088E590E0B6010CC053
:105990008A2D867851F0A1FE02C08BE201C080E220
:1059A000A7FC8DE2B60190E050D0891430F4B60126
:1059B00080E390E04AD09A94F8CF8A94F301E80DFE
:1059C000F11D8081B60190E040D08110F6CF2220F9
:1059D00009F44ECEB60180E290E037D02A94F7CF9A
:1059E000F6018681978102C08FEF9FEF2B960FB64D
:1059F000F894DEBF0FBECDBFDF91CF911F910F9105
:105A0000FF90EF90DF90CF90BF90AF909F908F90DE
:105A10007F906F905F904F903F902F900895FC0182
:105A20000590615070400110D8F7809590958E0FC9
:105A30009F1F0895FC016150704001900110D8F73C
:105A4000809590958E0F9F1F08950F931F93CF936E
:105A5000DF93FB01238121FD03C08FEF9FEF2CC05B
:105A600022FF16C046815781248135814217530792
:105A700044F4A081B1819D012F5F3F4F318320838A
:105A80008C93268137812F5F3F4F3783268314C045
:105A90008B01EC01FB010084F185E02D1995892B28
:105AA000E1F6D80116968D919C911797019617965D
:105AB0009C938E931697CE01DF91CF911F910F91FA
:105AC0000895FA01AA27283051F1203181F1E89494
:105AD0006F936E7F6E5F7F4F8F4F9F4FAF4FB1E0E1
